:020000040800F2
:100000002007002089010008B10A00082107000824
:10001000AD0A0008C30200081F2A00080000000003
:100020000000000000000000000000008115000832
:100030004D030008000000008D110008291A000877
:10004000A3010008A3010008A3010008A301000800
:10005000A3010008A3010008A3010008A3010008F0
:10006000A3010008A3010008A3010008A3010008E0
:10007000A3010008A3010008A3010008A3010008D0
:10008000A3010008A3010008A3010008A3010008C0
:10009000A3010008A3010008A3010008A3010008B0
:1000A000A3010008A3010008A3010008A3010008A0
:1000B000CD1C0008A3010008E51D0008A3010008ED
:1000C000A3010008A3010008A3010008A301000880
:1000D000A30100081D270008A3010008A3010008D0
:1000E000A3010008A3010008A301000800F002F822
:1000F00000F03AF80AA090E8000C82448344AAF188
:100100000107DA4501D100F02FF8AFF2090EBAE885
:100110000F0013F0010F18BFFB1A43F0010318473B
:10012000E43B0000043C0000103A24BF78C878C1CA
:10013000FAD8520724BF30C830C144BF04680C60ED
:10014000704700000023002400250026103A28BF35
:1001500078C1FBD8520728BF30C148BF0B60704739
:100160001FB51FBD10B510BD00F071F81146FFF7A7
:10017000F7FF02F003FD00F08FF803B4FFF7F2FF82
:1001800003BC00F097F80000094880470948004781
:10019000FEE7FEE7FEE7FEE7FEE7FEE7FEE7FEE737
:1001A000FEE7FEE704480549054A064B7047000094
:1001B0002D1A0008ED000008200100202007002073
:1001C00020030020200300204FF0013C50F8042BB6
:1001D00051F8043B9A4221D1A2EB0C03934313EA5A
:1001E000CC1317D150F8042B51F8043B9A4215D187
:1001F000A2EB0C03934313EACC130BD150F8042B5E
:1002000051F8043B9A4209D1A2EB0C03934313EA41
:10021000CC13DBD04FF00000704700BFD01A01BAFA
:10022000B1FA81F101F0180122FA01F0CB40C1F1DD
:100230002001DBB2C0B2C01A2CFA01F3D11A9143EB
:1002400011EAC311E6D17047704770477047754691
:1002500000F02CF8AE4605006946534620F0070032
:10026000854618B020B5FFF79DFFBDE820404FF050
:1002700000064FF000074FF000084FF0000B21F090
:100280000701AC46ACE8C009ACE8C009ACE8C0095D
:10029000ACE8C0098D46704710B50446AFF3008046
:1002A0002046BDE81040FFF768BF000000487047D7
:1002B000C000002001491820ABBEFEE72600020066
:1002C000704700BFFEE7000010B5032000F004FCFB
:1002D000184908700846007800F00F0016490870A9
:1002E0001448007800091549087015480078154928
:1002F0000870022000F0F0FB1149087008460078F1
:1003000010490978884214D00D48007800F00200A6
:1003100018B101200C4908700BE00948007800F082
:10032000080018B102200849087002E003200649BD
:10033000087010BD6D0000206B0000206C000020D4
:10034000900000209100002089000020704700B537
:10035000034603E04FF47A7000F005F8181EA3F18D
:100360000103F7D100BD00EBC001C9004FF0E0224E
:100370005161002191610521116100BF4FF0E02121
:10038000096901F480310029F8D004214FF0E022FE
:100390001161704770B55348007800F0080038B319
:1003A0005048007800F00700012806D0022809D044
:1003B00003280CD0042814D10EE000F0B3F94A4908
:1003C00008600EE000F0FEF94849086009E000F01E
:1003D00047FA4749086004E000F090FA4549086090
:1003E00000BF00BF3F48007800F007003D4908709B
:1003F00041493D48006802F0D7FF054603F096F8F2
:100400000446022322460321184600F069FE3A49B9
:100410003648006802F0C8FF054603F087F8044636
:10042000022322460B21184600F05AFE324930487A
:10043000006802F0B9FF054603F078F8044602238D
:1004400022460321084600F04BFE2B49294800684C
:1004500002F0AAFF054603F069F80446022322468B
:100460000B21032000F03CFE1F48006803F05EF8FB
:100470000A21B0FBF1F201FB1204012322460621FE
:10048000022000F02DFE1948006803F04FF80A2101
:10049000B0FBF1F201FB1204012322460E210220DF
:1004A00000F01EFE1248006803F040F80A21B0FB7D
:1004B000F1F201FB1204012322460621032000F081
:1004C0000FFE0C48006803F031F80A21B0FBF1F28E
:1004D00001FB1204012322460E21032000F000FE3E
:1004E00070BD00005F00002070000020740000203C
:1004F000780000207C000020000020412DE9F04120
:10050000024600250026002000230024002791F841
:1005100003C00CF00F0591F803C00CF0100CBCF1F7
:10052000000F03D091F802C04CEA050591F800C015
:10053000BCF1000F31D0146800202BE04FF0010C0B
:100540000CFA00F3B1F800C00CEA03069E4220D179
:1005500083004FF00F0C0CFA03F7BC4305FA03FCC1
:100560004CEA040491F803C0BCF1280F06D14FF007
:10057000010C0CFA00FCC2F814C00AE091F803C0A8
:10058000BCF1480F05D14FF0010C0CFA00FCC2F889
:1005900010C0401C0828D1D31460B1F800C0BCF1D1
:1005A000FF0F34DD546800202EE000F1080C4FF0FE
:1005B000010808FA0CF3B1F800C00CEA03069E42E9
:1005C00021D183004FF00F0C0CFA03F7BC4305FA5E
:1005D00003FC4CEA040491F803C0BCF1280F05D1D8
:1005E00000F1080C08FA0CF8C2F8148091F803C066
:1005F000BCF1480F07D100F1080C4FF0010808FAD0
:100600000CF8C2F81080401C0828CED35460BDE816
:10061000F0810000F0B50A460023002400210025E7
:1006200000F00046B6F1004F02D11D4EF16901E025
:100630001B4E7168C0F3034583B200F44016B6F553
:10064000401F08D121F07061154E766826F0706663
:10065000134F7E6012E000F48016B6F5801F06D1BD
:10066000032606FA05F4A14341F0706106E0460D49
:10067000360103FA06F6B14341F0706122B1460D2E
:10068000360103FA06F6314300F00046B6F1004F9A
:1006900002D1034EF16101E0014E7160F0BD000036
:1006A0000000014002460020D3680B400BB101203E
:1006B00000E00020704741617047016170470AB156
:1006C000016100E04161704710B51148006840B910
:1006D000104A1149114801F08DFF4FF4FA700C498E
:1006E000086001230D4802780421184600F0F8FC48
:1006F0000123094802780621184600F0F1FC012385
:10070000054802780821184600F0EAFC10BD0000F8
:100710008C000020650000206400002063000020A1
:1007200000BFFEE72DE9F0411F48006868B90122CB
:10073000D1031E48FFF7C3FF0F20FFF714FE00226E
:100740004FF400411948FFF7BAFF1748006830B36B
:100750001748007818BB17490988080402F006FFFB
:10076000154908601048006802F000FF044612486E
:100770000168204602F0B6FD0F490860084600688F
:1007800002F084FD06460D4A0D4B02F081FC044642
:1007900002F0AEFA084908600020034908600648E4
:1007A0000068BDE8F081000038000020000801402A
:1007B00034000020A400002048000020C3F5285C7D
:1007C0008FC2C53F2DE9F0411E48006860B9012283
:1007D00008211D48FFF773FF0F20FFF7C4FD00221B
:1007E00008211948FFF76BFF1648006830B3174817
:1007F000007818BB16498988080402F0B7FE15492D
:1008000008601048006802F0B1FE04461148016813
:10081000204602F067FD0F4908600846006802F0B4
:1008200035FD06460C4A0D4B02F032FC044602F040
:100830005FFA08490860002002490860054800681E
:10084000BDE8F0813C000020000C01403500002094
:10085000A40000204C000020C3F5285C8FC2C53FD7
:100860002DE9F0411E48006860B9012210211D48A1
:10087000FFF725FF0F20FFF776FD00221021194812
:10088000FFF71DFF1648006830B31748007818BB03
:1008900016490989080402F069FE154908601048E4
:1008A000006802F063FE044611480168204602F029
:1008B00019FD0F4908600846006802F0E7FC06468B
:1008C0000C4A0D4B02F0E4FB044602F011FA084911
:1008D000086000200249086005480068BDE8F08112
:1008E00040000020000C014036000020A400002041
:1008F00050000020C3F5285C8FC2C53F2DE9F041B0
:100900001E48006860B9012220211D48FFF7D7FE6C
:100910000F20FFF728FD002220211948FFF7CFFE06
:100920001648006830B31748007818BB1649898903
:10093000080402F01BFE154908601048006802F028
:1009400015FE044611480168204602F0CBFC0F4911
:1009500008600846006802F099FC06460C4A0D4BF8
:1009600002F096FB044602F0C3F908490860002033
:100970000249086005480068BDE8F0814400002095
:10098000000C014037000020A4000020540000208B
:10099000C3F5285C8FC2C53F08B501210D2000F0CA
:1009A00017FC01211B48FFF735FE28208DF80300B6
:1009B0004FF47070ADF8000069461748FFF79EFDD0
:1009C00010208DF803003820ADF8000003208DF8CA
:1009D000020069461048FFF791FD4FF40040ADF862
:1009E000000069460D48FFF789FD01F0D7FA4FF482
:1009F00000410948FFF75FFE08210748FFF75BFE4B
:100A000010210548FFF757FE20210348FFF753FE4A
:100A100008BD000000023000000C01400008014049
:100A200010B54FF400510248FFF747FE10BD00001B
:100A30000010014010B54FF400510248FFF73BFE93
:100A400010BD00000010014008B50121042000F095
:100A5000BFFB10208DF803000620ADF80000032036
:100A60008DF8020069460F48FFF748FD06210D4842
:100A7000FFF723FE0121102000F0AAFB4FF40050E5
:100A8000ADF8000010208DF8030003208DF802005F
:100A900069460548FFF732FD4FF400510248FFF761
:100AA0000AFE08BD000801400010014000BFFEE73B
:100AB0007047000010B50748007820B900210420D5
:100AC00000F06EFC02E0002002490870002001499D
:100AD000487010BD1E00002001460148405C704770
:100AE0001E00002000B587B00121080300F070FB54
:100AF0000121D42000F06CFB18208DF81B00E020B1
:100B0000ADF8180003208DF81A0006A94448FFF735
:100B1000F5FC10208DF81B001220ADF8180006A976
:100B20003F48FFF7EBFC48208DF81B000120ADF893
:100B3000180006A93B48FFF7E1FC012210213848C4
:100B4000FFF7BDFD002202213548FFF7B8FD012265
:100B500011463448FFF7B3FD0020ADF804004FF410
:100B60008270ADF806000020ADF80800ADF80A006C
:100B7000ADF80C004FF40070ADF80E000820ADF891
:100B800010000020ADF812000720ADF8140001A9F4
:100B9000254800F095FC0121234800F077FC08214E
:100BA000202000F09FF83F21212000F09BF8032136
:100BB000222000F097F80321232000F093F803216E
:100BC000242000F08FF80221252000F08BF80E2160
:100BD000262000F087F80021272000F083F800216C
:100BE000312000F07FF80021322000F07BF8002156
:100BF000332000F077F80021342000F073F8002152
:100C0000352000F06FF80021362000F06BF8E2206C
:100C100000F00CF8E12000F009F807B000BD00007A
:100C200000080140000C01400030014070B504464E
:100C3000002210210848FFF742FD204600F05EFC2C
:100C4000002000F05BFC0546012210210248FFF75E
:100C500036FD284670BD0000000801402DE9F04136
:100C600007460D461646002210210C48FFF727FDC7
:100C7000384600F043FC8046002405E0002000F0E8
:100C80003DFC2855601CC4B2B442F7DB01221021A0
:100C90000248FFF714FD4046BDE8F081000801401E
:100CA00010B50720FFF7C2FF0C490870084600780E
:100CB00000F0400030B1082209496120FFF7CEFF63
:100CC000012400E0002405480178272000F00AF8FC
:100CD000E220FFF7ABFF204610BD00001800002007
:100CE0001E00002070B505460C4600221021084861
:100CF000FFF7E5FC284600F001FC0646204600F020
:100D0000FDFB012210210248FFF7D9FC304670BDDF
:100D1000000801402DE9F04107460D461646002225
:100D200010210C48FFF7CBFC384600F0E7FB80466B
:100D3000002404E0285D00F0E1FB601CC4B2B44272
:100D4000F8DB012210210348FFF7B9FC4046BDE85B
:100D5000F08100000008014008B54FF4A06000F0E9
:100D600047F826208DF8000001208DF801008DF84D
:100D700002008DF80300684600F002F808BD00008C
:100D800070B5002100230F22C47804B3154C2468E9
:100D900004F4E064C4F5E064210AC1F10403CA402C
:100DA000447804FA03F184781440214309010E4C7D
:100DB0000678A155047804F01F050124AC4005789D
:100DC0006D11AD0005F1E025C5F8004109E004789A
:100DD00004F01F050124AC40044D0678761145F857
:100DE000264070BD0CED00E000E400E080E100E092
:100DF00002490143024A1160704700000000FA05F1
:100E00000CED00E070B500240EE00021204600F05B
:100E1000F0F8002504E0002000F0A8F9681CC5B235
:100E2000802DF8DB601CC4B2082CEEDB70BD000026
:100E300008B50121082000F0CBF914208DF803003B
:100E400003208DF802004FF40060ADF80000694601
:100E50000A48FFF753FB4FF48050ADF80000694695
:100E60000648FFF74BFB0122D1020448FFF727FC9D
:100E7000012211030148FFF722FC08BD00080140D0
:100E800070B50546002415E08020204100EA0502E7
:100E90004FF480510E48FFF712FC0122D1020C489A
:100EA000FFF70DFC00224FF400610948FFF707FC33
:100EB000601CC4B2082CE7DB0122D1020448FFF712
:100EC000FEFB00224FF400610148FFF7F8FB70BD04
:100ED0000008014010B5012211030A48FFF7EFFB9B
:100EE0000122D1020748FFF7EAFB00224FF48051AC
:100EF0000448FFF7E4FB00224FF400610148FFF7CC
:100F0000DEFB10BD0008014010B500224FF48051F7
:100F10000648FFF7D4FB0122D1020448FFF7CFFBBC
:100F2000012211030148FFF7CAFB10BD0008014070
:100F300070B5002406E0002500E06D1CB5F57A7F51
:100F4000FBD3641CB4F57A7FF5D3FFF771FFAE20B5
:100F500000F0FCF8D52000F0F9F8802000F0F6F859
:100F6000A82000F0F3F83F2000F0F0F8D02000F0C7
:100F7000EDF8002000F0EAF8402000F0E7F8A120AA
:100F800000F0E4F8C82000F0E1F8DA2000F0DEF824
:100F9000122000F0DBF8812000F0D8F8CF2000F01C
:100FA000D5F8D92000F0D2F8F12000F0CFF8DB20FE
:100FB00000F0CCF8302000F0C9F8A42000F0C6F80A
:100FC000A62000F0C3F88D2000F0C0F8142000F037
:100FD000BDF8AF2000F0BAF8FFF714FF70BD10B5F0
:100FE0000246012000E050430B1EA1F10101FAD19D
:100FF00010BD70B505460C4645F0B00000F0A6F8EF
:10100000102141EA141000F0A1F804F00F0141F0A2
:10101000020000F09BF870BD2DE9F04105460E4638
:101020001746721ED206110E6A1E5206100EFFF7E8
:10103000E0FF002409E0A7F12001134A02EB0111AF
:10104000085D00F093F8601CC4B2082CF3DB721E3C
:10105000D206110E6A1E012303EB4202D0B2FFF743
:10106000C8FF00240BE0A7F12001074A02EB0112A0
:1010700004F10801505C00F079F8601CC4B2082C3F
:10108000F1DBBDE8F0810000123700082DE9F047E0
:1010900081460E4690461F4600241DE0381B411E27
:1010A0001020FFF79CFFB8FBF0F000F00F050A2DB1
:1010B00008DA05F13000C2B23019C1B24846FFF774
:1010C000ABFF07E005F13700C2B23019C1B24846A4
:1010D000FFF7A2FF601CC4B2BC42DFDBBDE8F087B3
:1010E0002DE9F04780460E4617461D46002415E0C0
:1010F000281B411E0A20FFF772FFB7FBF0F00A2100
:10110000B0FBF1F201FB120000F130093019C1B25D
:101110004A464046FFF780FF601CC4B2AC42E7DBA2
:10112000BDE8F0872DE9F04107460E46154600243C
:1011300007E02A5D3019C1B23846FFF76DFF601C29
:10114000C4B2285D0028F4D1BDE8F08110B5044692
:10115000FFF7C0FE7820FFF793FE0020FFF790FE18
:101160002046FFF78DFEFFF7CFFE10BD10B50446F9
:10117000FFF7B0FE7820FFF783FE4020FFF780FEE8
:101180002046FFF77DFEFFF7BFFE10BD7047000051
:1011900029B1064AD2690243044BDA6104E0034AEA
:1011A000D2698243014BDA617047000000100240AF
:1011B00029B1064A12690243044B1A6104E0034A4A
:1011C00012698243014B1A6170470000001002400F
:1011D00029B1064A92690243044B9A6104E0034A2A
:1011E00092698243014B9A617047000000100240EF
:1011F00029B1064AD2680243044BDA6004E0034A8C
:10120000D2688243014BDA60704700000010024050
:1012100030B500210022002400232D4D6D6805F01B
:101220000C0121B1042905D0082923D105E0294D5D
:10123000056022E0274D05601FE0254D6D6805F42F
:101240007012234D6D6805F48034022505EB92423F
:101250001CB9214D554305600BE01D4D6D6805F42B
:1012600000351DB11C4D5543056002E0194D554335
:10127000056002E0174D056000BF00BF144D6D68AA
:1012800005F0F0010909154D6B5C0568DD4045600E
:101290000F4D6D6805F4E061090A104D6B5C4568FF
:1012A000DD4085600A4D6D6805F46051C90A0B4D3B
:1012B0006B5C4568DD40C560054D6D6805F44041D7
:1012C000890B074D6B5CC568B5FBF3F5056130BD57
:1012D0000010024000127A0000093D0000000020CA
:1012E0001000002010B5002202211348FFF7E7F993
:1012F000052212492A20FFF70DFD01212120FFF7C9
:10130000F1FC01212220FFF7EDFC28212520FFF729
:10131000E9FC08213120FFF7E5FC07212620FFF733
:10132000E1FC0F212020FFF7DDFC01220221024811
:10133000FFF7C5F910BD00000008014019000020AA
:1013400008B501210920FFF743FF01211248FFF7EB
:1013500061F910208DF803004FF47040ADF80000E3
:1013600003208DF8020069460C48FFF7C7F84FF4D8
:1013700080510A48FFF79FF94FF400510748FFF7E3
:101380009AF94FF480410548FFF795F94FF4004171
:101390000248FFF790F908BD00023000000C014040
:1013A00070B504460D46042C0FD12A468102194817
:1013B000FFF785F92A46E1021648FFF780F92A4629
:1013C00021031448FFF77BF923E0012C09D1052004
:1013D000FFF782FB28B12A4621030E48FFF76FF979
:1013E00017E0022C09D10620FFF776FB28B12A4628
:1013F00021030848FFF763F90BE0032C09D107200C
:10140000FFF76AFB28B12A464FF480410148FFF7F5
:1014100056F970BD000C014010B500210E4801F0D6
:1014200071F800210D4801F06DF80D490A4801F0EE
:1014300069F80B49094801F065F80A20FEF787FFB3
:101440000849054801F05EF80649044801F05AF8D9
:101450000A20FEF77CFF10BD004800400044004019
:101460002307001CC6C4000270B504460D46224680
:101470000621044801F020F82A460621024801F01E
:101480001BF870BD004800400044004021B10288B4
:1014900042F04002028004E002884FF6BF731A4017
:1014A000028070470246002013890B400BB10120D7
:1014B00000E00020704701468889704781817047AD
:1014C00010B50022028802F441520B884C88234355
:1014D0008C882343CC8823430C8923434C892343A2
:1014E0008C892343CC8923431A430280838B4FF298
:1014F000FF74234083830B8A038210BD10B504461A
:101500004FF48050174908600AE016490868411EE8
:10151000144A116020B9002000F028F8C0B210BDB4
:1015200002211148FFF7BEFF0028EED021460E48E9
:10153000FFF7C4FF0AE00B490868411E094A116021
:1015400020B9012000F012F8C0B2E8E701210648F6
:10155000FFF7A8FF0028EED00348FFF7ACFFC0B2AA
:10156000DDE70000300000200030014010B50446E7
:101570000123224619460220FFF7B2FD002010BDCC
:10158000704710B500F002F810BD00000CB5002047
:10159000019000903348006840F480303149086081
:1015A00000BF3048006800F4003000900198401CF3
:1015B0000190009818B90198B0F5A06FF1D12948B1
:1015C000006800F4003010B10120009001E000201C
:1015D00000900098012843D12348006840F0100093
:1015E000214908600846006820F0030008600846AA
:1015F000006840F0020008601A48406819494860D5
:101600000846406848600846406840F4806048608A
:101610000846406820F47C1048600846406840F462
:10162000E81048600846006840F08070086000BF1D
:101630000C48006800F000700028F9D009484068A4
:1016400020F00300074948600846406840F0020067
:10165000486000BF0348406800F00C000828F9D13A
:101660000CBD00000010024000200240024908802A
:10167000024908807047000080000020820000209E
:101680002DE9F04704460CB314F1640F1FDB642C02
:101690001DDCC4EB0410800000EB8000C40004EBF0
:1016A00084004000FA2190FBF1F9484601F0D9FC92
:1016B0000746094A094B01F04DFB054601F0A2FC23
:1016C0000446600340F6B83190FBF1F400E00024DA
:1016D00020B2BDE8F08700001F85EB51B81E09401D
:1016E00010B50220FFF7F8F905287AD10320FFF79B
:1016F000F3F97D480078092853D2DFE800F052055D
:10170000101A232935404B007848B0F900000A210F
:1017100090FBF1F002B21046FFF7A8FF41E07349D9
:10172000B1F90020D11702EB91718810FFF79EFFED
:1017300037E06E49B1F9002002EBD2714810FFF793
:1017400095FF2EE06948B0F90000FFF78FFF28E011
:101750006648B0F9000040420A2190FBF1F002B265
:101760001046FFF783FF1CE06049B1F900104A42C0
:10177000D11702EB91718810FFF778FF11E05B49F8
:10178000B1F900104A4202EBD271491008B2FFF7DA
:101790006DFF06E055480088404200B2FFF766FF43
:1017A00000BF00BF012052490870524908705248DA
:1017B0000078092857D2DFE800F056050615222EDA
:1017C0002F3D4A004FE04948B0F900000A2190FB44
:1017D000F1F002B21046FFF749FFFF2044490870BC
:1017E00041E080E04149B1F90020D11702EB91714D
:1017F0008810FFF73BFFFF203D49087033E03B496D
:10180000B1F9002002EBD2714810FFF72FFFFF2043
:101810003749087027E026E03448B0F900000A2173
:1018200090FBF1F002B21046FFF720FFFF20314994
:10183000087018E02D49B1F90020D11702EB917121
:101840008810FFF713FFFF202A4908700BE0274993
:10185000B1F9002002EBD2714810FFF707FFFF201B
:101860002449087000BF00BF0120FFF735F90828A0
:101870002FD007DC68B1012811D002281AD0042823
:1018800030D120E0102825D0202829D0402829D187
:1018900027E00020194908801949088022E040F219
:1018A0000111184800F02EFE40F20111164800F018
:1018B00029FE17E00021134800F024FE0021124801
:1018C00000F020FE0EE000200C4908800C49088042
:1018D00008E007E00420FFF7FFF80449088001E072
:1018E00000E000BF00BF10BD6C0000205A000020C7
:1018F00086000020870000206B0000208000002070
:1019000082000020004800400044004010B5022042
:10191000FFF7E2F8042826D10120FFF7DDF80828B8
:1019200006D010280BD0202810D040281AD113E060
:10193000FF203649087001203549087012E0012067
:1019400032490870FF20324908700BE001202F490E
:1019500008702F49087005E0FF202C4908702C49B9
:10196000087000BF00BF0120FFF7B6F8082809D1B2
:101970000420FFF7B1F8274908800846B0F90000B5
:10198000FFF774FE0020FFF7A7F8012804D0022813
:1019900007D003280BD109E000210420FFF700FD48
:1019A00005E001210420FFF7FBFC00E000BF00BFC1
:1019B0000120FFF791F830B101280AD0022813D096
:1019C000042820D119E00020134908801349088019
:1019D00019E040F20111124800F094FD40F20111AB
:1019E000104800F08FFD0EE000210D4800F08AFD48
:1019F00000210C4800F086FD05E000200649088023
:101A00000649088000BF00BF10BD00008400002010
:101A10008500002058000020800000208200002067
:101A200000480040004400407047000010B51348D3
:101A3000006840F0010011490860084640681049FC
:101A400008400E494860084600680E4908400B49A6
:101A500008600846006820F4802008600846406856
:101A600020F4FE0048604FF41F008860FFF789FDF6
:101A70004FF000600449086010BD000000100240F3
:101A80000000FFF8FFFFF6FE08ED00E0F0B50C46A1
:101A9000154600220021068C4FF6FE773E40068454
:101AA000028B018C4FF60C7632407E1C06EA031640
:101AB0002E433243104EB0420ED0104EB0420BD0E7
:101AC000B0F1804F08D00E4EB04205D00D4EB0425E
:101AD00002D00D4EB04206D14FF6FD76314044F0B3
:101AE0000106314305E04FF6F576314044F001063A
:101AF000314302830184F0BD002C014000340140D9
:101B00000004004000080040000C0040F0B50C4606
:101B10001546002200210026078C4FF6EF7C07EACD
:101B20000C070784028B018C4FF6FF7707EA041637
:101B300040F6FF473A404FF6FF7707EA03373A434C
:101B40004FF6FF7707EA05273A43114FB8420ED008
:101B5000104FB8420BD0B0F1804F08D00E4FB842B2
:101B600005D00E4FB84202D00D4FB84206D14FF605
:101B7000DF77394046F01007394305E04FF65F77CD
:101B8000394044F01007394302830184F0BD00005E
:101B9000002C0140003401400004004000080040D7
:101BA000000C0040F0B50C4615460022002100262E
:101BB000078C4FF6FF6C07EA0C070784828B018CB9
:101BC0004FF6FF7707EA04264FF60C773A404FF6B8
:101BD000FF7707EA03172F433A43114FB8420ED05D
:101BE000104FB8420BD0B0F1804F08D00E4FB84222
:101BF00005D00E4FB84202D00D4FB84206D14FF675
:101C0000FF57394046F48077394305E04FF2FF57DC
:101C1000394044F48077394382830184F0BD000069
:101C2000002C014000340140000400400008004046
:101C3000000C0040F0B50C4615460022002100269D
:101C4000078C4EF6FF7C07EA0C070784828B018C19
:101C50004FF6FF7707EA043640F6FF473A404FF663
:101C6000FF7707EA05273A434FF6FF7707EA03377E
:101C70003A43114FB8420ED0104FB8420BD0B0F1DA
:101C8000804F08D00E4FB84205D00E4FB84202D058
:101C90000D4FB84206D14DF6FF77394046F48057D4
:101CA000394305E047F6FF57394044F4805739433C
:101CB00082830184F0BD0000002C0140003401400B
:101CC0000004004000080040000C004010B5012155
:101CD000880700F0D8FA012845D125480068401C43
:101CE0002349086008460068642816D3002008606D
:101CF0002048007800F00700042805DA1D48007825
:101D0000401C1C49087002E001201A49087019485B
:101D1000007840F008001749087015484068401CDA
:101D20001349486008464068B0F5FA7F0FD3002099
:101D3000486002211048FEF7B5FC08B9012000E018
:101D400000200446224602210B48FEF7B8FC0B484F
:101D5000006828B109480068401E0849086002E090
:101D60000020064908600121880700F07CF910BDB9
:101D7000B40000205F000020000C01408C00002017
:101D80001FB501210846FFF703FA4FF47A70ADF84A
:101D900008004720ADF804000020ADF80A00ADF8B7
:101DA000060001A94FF0804000F034FB1C208DF8A4
:101DB000000002208DF801008DF8020001208DF84E
:101DC00003006846FEF7DCFF0121880700F048F9B0
:101DD00001221146900700F0B5FA0121880700F0B2
:101DE00045F91FBD10B50121624800F04CFA0128E9
:101DF00023D161480078012804D160480068401C64
:101E00005E4908605E480078012804D15B4840685C
:101E1000401C5A4948605B480078012804D1574863
:101E20008068401C5549886057480078012804D1D3
:101E30005248C068401C5149C86002214D4800F01A
:101E400022FA00B34C48007888B901204A4908704A
:101E500000204A4908600021464800F0ACFA002002
:101E60004A4908600221434800F075FA0BE000205F
:101E7000414908703F4800F0F9F9444908600021E1
:101E80003C4800F068FA04213A4800F0FCF900B33D
:101E90003B48007888B9012039490870002037494B
:101EA00048600021334800F086FA00203849086075
:101EB0000221304800F058FA0BE000203049087049
:101EC0002C4800F0D6F9324908600021294800F07A
:101ED0004BFA0821274800F0D6F900B329480078CA
:101EE00088B9012027490870002024498860002112
:101EF000204800F060FA00202649086002211D48B1
:101F000000F03FFA0BE000201E490870194800F06D
:101F1000B3F9204908600021164800F032FA102178
:101F2000144800F0B0F900B31748007888B90120D0
:101F30001549087000201149C86000210D4800F0C3
:101F40003AFA00201449086002210A4800F026FAF3
:101F50000BE000200C490870064800F090F90E498B
:101F600008600021034800F019FA1F21014800F021
:101F70007AF810BD0008004034000020A4000020C2
:101F800035000020360000203700002038000020F7
:101F90003C000020400000204400002000B587B035
:101FA00001210420FFF7F4F82C4800F06BF84FF6FD
:101FB000FE70ADF814004720ADF810000020ADF819
:101FC0001600ADF8120004A9244800F023FA0020FE
:101FD000ADF80400ADF80C00ADF80600ADF80A004D
:101FE0000120ADF8080001A91C4800F055F90420B3
:101FF000ADF8040001A9194800F04EF90820ADF829
:10200000040001A9154800F047F90C20ADF80400C0
:1020100001A9124800F040F94FF4A060FEF7E8FE75
:102020001E208DF8000002208DF8010000208DF8A0
:10203000020001208DF803006846FEF7A1FE1F2173
:10204000064800F00DF801221F21044800F07AF93B
:102050000121024800F00AF807B000BD0008004066
:10206000CA4302827047CA430282704721B1028884
:1020700042F00102028004E002884FF6FE731A402B
:102080000280704710B504466848844208D1012197
:10209000C014FFF7ADF80021E014FFF7A9F8C4E081
:1020A000B4F1804F08D101210846FFF781F80021E3
:1020B0000120FFF77DF8B8E05D48844208D1012196
:1020C0000220FFF775F800210220FFF771F8ACE05D
:1020D0005848844208D101210420FFF769F8002103
:1020E0000420FFF765F8A0E05348844208D101219D
:1020F0000820FFF75DF800210820FFF759F894E069
:102100004E48844208D101211020FFF751F80021E8
:102110001020FFF74DF888E04948844208D101219A
:102120002020FFF745F800212020FFF741F87CE050
:102130004448844208D101214014FFF759F8002196
:102140006014FFF755F870E03F48844209D101213F
:10215000C804FFF74DF800214FF40020FFF748F8BE
:1021600063E03A48844209D101210805FFF740F8AD
:1021700000214FF48010FFF73BF856E034488442CA
:1021800009D101214805FFF733F800214FF4001071
:10219000FFF72EF849E02F48844208D10121402062
:1021A000FFF706F800214020FFF702F83DE02A483B
:1021B000844208D101218020FEF7FAFF002180200F
:1021C000FEF7F6FF31E02548844208D10121801551
:1021D000FEF7EEFF0021A015FEF7EAFF25E02048FC
:1021E000844209D101210804FFF702F800214FF4CD
:1021F0008030FEF7FDFF18E01A48844209D1012122
:102200004804FEF7F5FF00214FF40030FEF7F0FF21
:102210000BE01548844208D101218804FEF7E8FF4D
:1022200000214FF48020FEF7E3FF10BD002C014099
:102230000004004000080040000C00400010004076
:102240000014004000340140004C014000500140A7
:102250000054014000180040001C004000200040D5
:102260000040014000440140004801400146888E82
:1022700070470146088F70470146888F70470146B6
:10228000B1F84000704702460020138A0B400BB1A2
:10229000012000E00020704770B505460C46244838
:1022A00085420ED0234885420BD0B5F1804F08D02F
:1022B0002148854205D02148854202D020488542E8
:1022C00000D100E000BF208850B92389A28861882E
:1022D0002846FFF7DBFBE188284600F06EF825E092
:1022E000208804280AD12389A28861882846FFF71C
:1022F0000DFCE188284600F069F817E020880828DE
:102300000AD12389A28861882846FFF74BFCE1881F
:10231000284600F068F809E02389A28861882846E9
:10232000FFF788FCE188284600F066F870BD0000E1
:10233000002C01400034014000040040000800402F
:10234000000C00401AB183890B43838102E083892A
:102350008B43838170470A460021018C4FF6FD7341
:1023600019401143018470470A460021018C4FF641
:10237000DF7319404FF6FF7303EA02131943018418
:1023800070470A460021018C4FF6FF5319404FF663
:10239000FF7303EA02231943018470470A460021B0
:1023A000018C4DF6FF7319404FF6FF7303EA0233B9
:1023B00019430184704781847047028B4FF6F37391
:1023C0001A400283028B0A4302837047028B4FF24A
:1023D000FF331A400283028B4FF6FF7303EA012397
:1023E0001A4302837047828B4FF6F3731A4082833D
:1023F000828B0A4382837047828B4FF2FF331A40ED
:102400008283828B4FF6FF7303EA01231A43828390
:1024100070470000002202881D4B98420ED01D4BD1
:1024200098420BD0B0F1804F08D01B4B984205D09A
:102430001A4B984202D01A4B984204D14FF68F7330
:102440001A404B881A43174B984207D0164B9842B4
:1024500004D04FF6FF431A40CB881A4302808B8882
:1024600083850B8803850A4B98420BD0094B984211
:1024700008D00E4B984205D00D4B984202D00D4B20
:10248000984201D10B7A03860123838270470000B2
:10249000002C0140003401400004004000080040CE
:1024A000000C0040001000400014004000400140BB
:1024B00000440140004801402DE9F84307460C461E
:1024C00015468DF80040280A40B28DF8010068B228
:1024D0008DF802009DF9010020449DF9021000EBE7
:1024E00001084FFA88F08DF80300002606E01DF978
:1024F0000610384600F095FA701C46B2042EF6DB42
:10250000BDE8F883F8B506460C46200E8DF80000AD
:10251000200C8DF80100200A8DF80200E0B28DF841
:102520000300002507E01DF8050041B2304600F029
:1025300078FA681CC5B2042DF5DBF8BD00B587B08C
:1025400001210420FEF744FE01218803FEF740FE2E
:1025500018208DF81B004FF40070ADF81800032010
:102560008DF81A0006A92148FDF7C8FF04208DF850
:102570001B000002ADF8180003208DF81A0006A910
:102580001A48FDF7BBFF4FF4165002900020ADF83B
:1025900014000C20ADF812000020ADF81000ADF8CA
:1025A0000E00ADF80C0002A9114800F0C3F94FF479
:1025B000A060FEF71DFC25208DF8040001208DF899
:1025C000070002208DF805008DF8060001A8FEF72F
:1025D000D7FB012240F22551054800F086F9012180
:1025E000034800F0DEF807B000BD0000000801401D
:1025F000003801402DE9F04104460D461646002002
:102600003F49087061213F4800F005FA002701E0CA
:10261000781CC7B20C2FFBDB3BA13F48FDF7D4FD74
:1026200030B901231A4610211846FEF759FD05E07E
:102630000123002210211846FEF752FD364840784B
:10264000302807DB34488078302803DB3248C078F4
:10265000302802DA0020207010E02F48407830380F
:10266000642148432C498978303901EB810100EB22
:1026700041012948C0783038084420702648407904
:10268000302807DB24488079302803DB2248C079D2
:10269000302802DA0020287010E01F4840793038D6
:1026A000642148431C498979303901EB810100EBF1
:1026B00041011948C0793038084428701648407ADA
:1026C000302807DB1448807A302803DB1248C07AB0
:1026D000302802DA0020307010E00F48407A30389D
:1026E000642148430C49897A303901EB810100EBC0
:1026F00041010948C07A303808443070BDE8F081A3
:102700001600002000380140313030303230303097
:1027100033303030000000009400002010B520213C
:10272000144800F0D5F801281ED1124800F06EF9C7
:102730001149088008460178104802780078401C4A
:102740000E4B18700E488154184600780D2804DD91
:102750000020194608700A49087300BF8021054807
:1027600000F0B6F80128F9D12021024800F00AF85B
:1027700010BD0000003801401400002016000020A9
:102780009400002010B50022002340F66A14A142F4
:1027900000D100BF0A1201249440A3B2DC4304809C
:1027A00010BD21B1828942F40052828104E0828905
:1027B0004DF6FF731A4082817047000000B58BB060
:1027C00001210420FEF704FD01214804FEF7E0FC8E
:1027D0000420ADF8280018208DF82B0003208DF878
:1027E0002A000AA93648FDF789FE0820ADF828001E
:1027F00004208DF82B000AA93148FDF77FFE4FF425
:10280000614006900020ADF81C00ADF81E00ADF848
:102810002000ADF824000C20ADF8220006A92948BC
:1028200000F088F8FEF798FA012240F22551254879
:1028300000F05BF801212348FFF7B3FF01210820D6
:10284000FEF7C6FC01218804FEF7A2FC4FF480606D
:10285000ADF8140018208DF8170003208DF816002D
:1028600005A91948FDF74AFE4FF40060ADF81400C1
:1028700004208DF8170005A91348FDF73FFE4FF41B
:10288000614001900020ADF80800ADF80A00ADF8F5
:102890000C00ADF810000C20ADF80E0001A90B489B
:1028A00000F048F8FEF758FA012240F22551074897
:1028B00000F01BF801210548FFF773FF0BB000BDC6
:1028C0000008014000440040000C01400048004066
:1028D00002460020B1F5007F00D100BF13880B40F5
:1028E0000BB1012000E000207047F0B50346002442
:1028F00000260025002040F66A17B94200D100BF2B
:102900001846C1F3421401F01F06012707FA06F525
:10291000012C01D10C3004E0022C01D1103000E078
:1029200014301AB107682F43076002E00768AF430D
:102930000760F0BD2DE9F04786B005460E4600243D
:10294000A24600BFA1460027B08900B100BF2F46B4
:102950002C8A4CF6FF700440F08804432C82AC892A
:102960004EF6F3100440B08831890843718908435A
:102970000443AC81AC8A4FF6FF400440B089044365
:10298000AC8201A8FEF744FC1F48874202D1DDF863
:1029900010A001E0DDF80CA0A88900F4004040B1CF
:1029A0000AEBCA0000EB0A1031684900B0FBF1F8ED
:1029B00007E00AEBCA0000EB0A1031688900B0FB9F
:1029C000F1F86420B8FBF0F004012009642101FB58
:1029D0001089A88900F4004040B1322000EBC90002
:1029E000B0FBF1F000F00700044308E0322000EBF8
:1029F00009106421B0FBF1F000F00F0004432C81BA
:102A000006B0BDE8F0870000003801400146888824
:102A1000C0F308007047C1F308028280704700BF0E
:102A2000FEE770B505460C46A1B22846FFF7F3FF56
:102A300001E0FDF7FFFF80212846FFF749FF00284E
:102A4000F7D070BD10B5FDF73FFEFDF7A3FC43487E
:102A50000088401C00B24149088001230846B0F9B3
:102A6000002010211846FEF73BFB0720FEF7DEF89A
:102A70003B4908700120FEF7D9F83A490870022056
:102A8000FEF7D4F8384908700A20FEF7CFF8374926
:102A900008701720FEF7CAF835490870FEF700F9EC
:102AA0003449087032480078112805D04FF48071FD
:102AB0003148FDF700FE04E04FF480712E48FDF729
:102AC000FCFD02232648027801210420FEF7DEFAED
:102AD00002232448027804210846FEF7D7FA02238D
:102AE0002148027807210420FEF7D0FA02231F486C
:102AF00002780A210420FEF7C9FA02231C48027852
:102B00000D210420FEF7C2FA0020FDF7E5FF48B1D1
:102B10000020FDF7E1FF044602232246012108467A
:102B2000FEF7B4FA1348007810B10020114908707C
:102B30000820FDF70CFC0020FDF7CEFF0120FDF77B
:102B4000CBFF0220FDF7C8FF0320FDF7C5FF0420DF
:102B5000FDF7C2FFFDF7B8FB10BD00005C000020D0
:102B60006A00002066000020670000206800002046
:102B7000690000205E0000200008014008B5FDF754
:102B800063FFFEF7D5F946A201210220FEF7CAFA3B
:102B900048A201210320FEF7C5FAFDF7A3FFFEF7C7
:102BA000A1FBFEF7CDFBFDF7F7FEFFF7E9F8FFF716
:102BB00005FEFFF7C3FCFDF733FFFEF72DFC0121F7
:102BC0000420FEF705FB01210820FEF701FB102081
:102BD0008DF803000220ADF8000003208DF80200FC
:102BE00069463948FDF78AFC4FF48070ADF8000063
:102BF00069463648FDF782FC51E0FFF723FF344871
:102C00000078012804D0022805D0032809D105E066
:102C1000FEF766FD05E0FEF779FE02E0FEF776FEC0
:102C200000BF00BF2B480078401C2A4908700846A6
:102C30000078142190FBF1F201FB12002549087085
:102C40000846007808B9FDF735FF2348B0F90000C1
:102C5000FEF716FD214991F90010214A92F9002052
:102C60005143484300B21C4908801E48B0F9000097
:102C7000FEF706FD1C4991F900101C4A92F900204C
:102C80005143484300B2174908800846B0F9001084
:102C90001148B0F90000FEF7E7FBFDF7C1FEACE715
:102CA000313A30302E302020323A30302E30636DC1
:102CB00000000000333A30302E302020343A3030DB
:102CC0002E30636D00000000000C01400008014040
:102CD000890000208800002080000020860000205D
:102CE0008400002082000020870000208500002052
:102CF00021F00042A2F16052B2F5801F01F00043C2
:102D000028BFD2F17F6C0BD95FEA001C43EAC202F4
:102D100042EB507018BF704728BF20F00100704789
:102D2000B2F5801FBCBF184670474FEA410C1CF536
:102D3000001F02D2084600F072BC70B500F052FAD3
:102D400000000089FFF7F6BF4FF00040A0F58000BB
:102D5000704700002DE9C04130B4DFF8A0C23CEA62
:102D6000111418BF3CEA131400F0EC8081EA03054B
:102D70001CEA111444EAD57418BF1CEA131500F0BC
:102D8000C780A4EB05044FF0004545EAC12145EAA0
:102D9000C32341EA505143EA525304F17F749942EC
:102DA00004F500344FEAC0204FEAC22208BF904227
:102DB00000F09C804FEA13650FF24016765D4FEAF3
:102DC000134506FB05F7C7F1807706FB07F74FEAC7
:102DD000D737A7FB03687642C8F58038A7FB06CE35
:102DE00038BFA8F1010807FB08E64FF0000EA6FB6C
:102DF000028CE6FB03CEDCF1000CCEF1004E38BFB6
:102E0000AEF1010EA6FB0C584FF000074FF0000585
:102E1000E6FB0E87A1FB08C6A0FB07CE16EB0E064D
:102E200045F10005E1FB076515F1E04E7EBFA4F515
:102E300080345FEA46066D4116F1800745F10005D2
:102E40004FEA17274FEA066647EA0567A6F1DE460E
:102E5000B6F1805F4FEA15251FD9384624F0010CE2
:102E600005EBC471BCF1FE6F01EB0C1102D8F0BC94
:102E7000BDE8008124425CBF01F5801E9EEAC47F4C
:102E800002D4F0BCBDE80081244238D4F0BCA1F1EA
:102E9000C041BDE8004100F0F3B94FEAD22242EA56
:102EA00043524FEAD323A7FB02864FEAD02040EAE1
:102EB000415007FB03661EEA0E0F4FEAD12105FBC6
:102EC000026658BFA6EB0056B6EB00564FEA520E0C
:102ED0004EEAC37E18EB0E0E56EB530EBDD518EB23
:102EE00002085E417F1C55F10005B6E74FF48015DE
:102EF0004FF000074FF000064FF00008ADE7F0BCC0
:102F00004FF0000001F1C04101F00041BDE8008137
:102F100011EA0C1F0CEA131500D00CE013EA0C1F89
:102F200000F025804FF00000F0BC81EA030101F0C1
:102F30000041BDE80081F0BCBDE8004181EA030129
:102F400000F09EB9F0BCBDE8004170B500F04AF950
:102F5000097EFC3E00F007B881EA03014FF0000053
:102F600001F00041704781EA030100F089B9F0BC2B
:102F7000BDE800414FF0000021497047FFFDFBF91B
:102F8000F7F5F4F2F0EEEDEBE9E8E6E4E3E1E0DE9C
:102F9000DDDBDAD8D7D5D4D3D1D0CFCDCCCBCAC80E
:102FA000C7C6C5C4C2C1C0BFBEBDBCBBBAB9B8B735
:102FB000B6B5B4B3B2B1B0AFAEADACABAAA9A8A828
:102FC000A7A6A5A4A3A3A2A1A09F9F9E9D9C9C9BF6
:102FD0009A999998979796959594939392919190A1
:102FE0008F8F8E8E8D8C8C8B8B8A89898888878732
:102FF0008685858484838382828181800000FF07A7
:103000000000F87F4FEA41034FEA5353A3F5806372
:10301000D3F11E03C8BFD3F1210C0CDD4FF00042E9
:1030200042EAC12242EA505232FA03FC8CEAE17CC5
:10303000ACEBE1707047102BC4BF0020704703F564
:10304000787CBCF1FF3F04D06FF0004282EA21009F
:10305000704770B500F0C6F8499224800020704790
:10306000F2E710F0004248BF4042B0FA80F310FA95
:1030700003F10AD0C3F11D0303F580634FEA415009
:1030800002EB035202EBD12170474FF00000704772
:10309000DFF848C170B51CEA111E1EBF1CEA1315EB
:1030A0009EEA0C0F95EA0C0F00F06F8081EA030492
:1030B00023EA4C134EEAD47E21EA4C1141F48011EC
:1030C00043F48013AE44A1FB024CA0FB0365AEF1B8
:1030D0007F7E361955EB0C05A1FB034C4CF1000328
:1030E000A0FB021C16EB0C06654153F100030942DC
:1030F00018BF46F0010613F4007F0BD14FEA0331ED
:103100004FEA0530340341EA155140EA16506FF09A
:1031100003020AE04FEAC3214FEAC520F40241EA64
:10312000555140EA56506FF0020202EB2E4201EB7D
:10313000025585EACE710AD05FEA440C18BF24F02C
:10314000004450F1000041F1000120EAD47040F247
:10315000FE7C624500D270BDA84214BF4FF080448F
:103160004FF04044002E08BF0024BEF1806FA8BF7E
:10317000A1F1C041BDE8704080F282804FF00000B4
:1031800001F1C04101F0004170479EEA0C0F0CEACA
:10319000131518BF95EA0C0F06D04FF0000081EA16
:1031A000030E0EF0004170BD00F01CF88900013ED6
:1031B00000F007B800F009B84FEA430C5FEA5C5C26
:1031C00008D081EA030100F05BB84FEA410C5FEAE6
:1031D0005C5CF6D14FF00000014970470000FF072A
:1031E0000000F87F0EF1020E2EF0030E5EF8046B65
:1031F000364205D4012A43EB030515F5001F12D80A
:10320000012841EB010C1CF5001F0CD80ED14FEA30
:10321000D17C15F5001F0CEB4C0C0CF1020C08BF17
:103220004CEBD37C04E04FF0080C01E04FEAD37C78
:103230000CEB4C0526FA05F606F00706B6F1040C71
:1032400006D20EEB860CBDE870404CF0010C6047D6
:10325000DFE80CF0090B02024FF000414FF00000D4
:10326000A1F5002170BD19461046012851EB01045B
:1032700018BFD4F5001484BF002001F0004170BDD8
:103280000808A0F500114FEA3101704743004FEAEA
:10329000D30C4FEA3C0C43401FBF40070CF1605178
:1032A00013F0FE4F70471CF0006F03D100200CF0AC
:1032B000004170470CF0004343EA507010B540EAFB
:1032C000CC0000F066F900BF000000924FEA000158
:1032D000FFF7D6BF4FF000414FF00000A1F50021ED
:1032E0007047000090EA010F48BF81F0004100F1F3
:1032F000A281421A3CBF801A89184FEAD0524FF07F
:103300007F4C1CEA410FA2EBD15318BF9CEA026F1D
:1033100000F03B804FF0004C4CEA00204CEA0121C9
:1033200021FA03FC10EB0C0C1ED202F1FF325FEA13
:103330001C2040EBC25038BF70471CF07F0F4FEA93
:10334000400C18BFBCF17F4F38BF7047C3F120035A
:10335000994008BF20F00100BCF17F4F38BF704793
:10336000A0F1C04000F05BB94FEA3C00000A40EB1E
:10337000C25028BF1CF0FF0F4FEA400CE6D018BF28
:10338000BCF17F4F38BF7047EAE79CEA026F05D077
:1033900010EA5C0F08BF00F00040704710B500F065
:1033A000F8F800BF64FBBE3E4FF47F0C1CEAD0125D
:1033B0001EBF1CEAD11392EA0C0F93EA0C0F00F027
:1033C000858090EA010F48BF42F4807240F4000CFF
:1033D00041F400002CF07F4120F07F4000B5814295
:1033E000A2EB03020FF2081CACEB504EC0F1000040
:1033F0009EF800E04FEA4E0E00FB0EFC38BF49007D
:103400004FEA2C1C02F5FA020CFB0EF34FEACE1E1B
:103410004FEA112C4FEAC1210EEB635E42EB2242D0
:103420000EFB0CFC4FEA1C5300FB03114FEA112C5E
:103430004FEA01310EFB0CFC4FEADC4C00FB0C1197
:10344000C14228BF09184CEB03335DF804EB10EBC5
:10345000410143EBC250B2F57C0F38BF704729D50C
:1034600012F0F00F1CBF00F1C04000F000407047A8
:10347000008182838485868788898B8C8D8E8F914D
:103480009293959697999A9C9D9FA0A2A3A5A7A871
:10349000AAACAEB0B2B3B5B7B9BCBEC0C2C5C7C99D
:1034A000CCCED1D4D7D9DCDFE2E6E9ECF0F3F7FA01
:1034B000FE0000004FEA400C0CF1807CBCF17E4F16
:1034C00028BF7047B0F1C04000F0A9B890EA010FE2
:1034D0000CEAD11348BF42F48072624538BF63459D
:1034E00007D213F47F0F16D080EA010000F00040ED
:1034F000704710B500F04DF8097EFC3E00F005B8AD
:1035000080EA010000F00040704780EA010000F00E
:10351000004000F084B812F47F0F04BF02487047E7
:1035200080EA010000F07BB80000C07FC10DD1F13E
:103530009E0206DB4FEA002343F0004323FA02F029
:103540007047004207D54FEA4001B1F1FE4F02D269
:103550004FF00000704710B500F01BF8499224802E
:10356000002070476FEA200070470000B0FA80F337
:1035700010FA03F2C3F19D030AD0D90501EB122022
:10358000530638BF704700F1010008BF20F001006A
:1035900070470EF1020E2EF0030E5EF8044B24422B
:1035A00004D44FEA4102B2F17F4F11D84FEA4003F1
:1035B000B3F17F4F0CD80ED14FEAD07CB2F17F4FE0
:1035C0000CEB4C0C0CF1020C08BF4CEBD17C04E072
:1035D0004FF0080C01E04FEAD17C0CEB4C0324FACD
:1035E00003F404F00704B4F1040C06D20EEB840CCF
:1035F000BDE810404CF0010C6047DFE80CF0070814
:1036000002024FF00040A0F5800010BD08464200C5
:1036100018BFD2F1807288BF00F0004010BDFF21BA
:1036200041EAD050C005704790EA010F48BF81F0D1
:1036300000413FF55EAE421A04D882F00042A0EB92
:10364000020011444FEAD0524FF07F4C1CEA410F68
:10365000A2EBD15318BF9CEA026F4AD04FF0004C46
:103660004CEA00204CEA012121FA03FCB0EB0C0CDF
:103670000FD412F0FE0F36D05FEA4C001DD50012B9
:1036800040EBC25038BF70471CF03F0F18BF704767
:103690000BE0A2F101025FEA1C2040EBC25038BFF0
:1036A00070471CF07F0F18BF7047C3F1200399408B
:1036B00014BF401E20F00100704780084FEA12231B
:1036C00008BF7047B0FA80FCA2EB0C02CCF1280CCA
:1036D00060FA0CF093EA122F04BF00EBC25070475F
:1036E0004FEAC3707047130A5FEADC1008BF7047E7
:1036F000F6E79CEA026F04D010EA5C0F08BF0020D6
:10370000704710B5FFF745FF40DFF63E81F00040FF
:1037100070470000000000000000000000000000F2
:103720000000000000F8000000000000003330003E
:10373000000000100C06100C060000000000000045
:10374000000040C07840C0784000043F04043F04BB
:103750000400007088FC08300000001820FF211EC3
:103760000000F008F000E018000000211C031E21FA
:103770001E0000F00888700000001E212324192775
:10378000211010160E0000000000000000000000D4
:103790000000000000E018040200000000071820EC
:1037A000400000020418E00000000040201807005C
:1037B0000000404080F0804040000202010F010202
:1037C0000200000000F0000000000101011F0101E3
:1037D0000100000000000000000080B07000000048
:1037E00000000000000000000000000101010101D4
:1037F0000101000000000000000000303000000067
:10380000000000000000806018040060180601003D
:10381000000000E010080810E000000F1020201049
:103820000F00001010F8000000000020203F2020B2
:103830000000007008080888700000302824222149
:1038400030000030088888483000001820202011FF
:103850000E000000C02010F8000000070424243FE0
:10386000240000F808888808080000192120201189
:103870000E0000E0108888180000000F11202011B1
:103880000E0000380808C83808000000003F00009B
:1038900000000070880808887000001C2221212286
:1038A0001C0000E010080810E00000003122221186
:1038B0000F00000000C0C000000000000030300019
:1038C0000000000000800000000000008060000098
:1038D00000000000804020100800000102040810D1
:1038E00020004040404040404000040404040404E0
:1038F000040000081020408000000020100804028E
:103900000100007048080808F0000000003036018F
:103910000000C030C828E810E0000718272423144E
:103920000B000000C038E0000000203C230202270A
:10393000382008F8888888700000203F2020201157
:103940000E00C03008080808380007182020201092
:10395000080008F808080810E000203F2020201088
:103960000F0008F88888E8081000203F2020232056
:10397000180008F88888E8081000203F200003009D
:103980000000C03008080838000007182020221E58
:10399000020008F808000008F808203F2101012172
:1039A0003F20000808F8080800000020203F2020E1
:1039B000000000000808F8080800C08080807F0030
:1039C000000008F888C028180800203F2001263889
:1039D000200008F8080000000000203F20202020E0
:1039E000300008F8F800F8F80800203F003F003FDA
:1039F000200008F830C00008F808203F2000071811
:103A00003F00E01008080810E0000F1020202010F0
:103A10000F0008F808080808F000203F2101010104
:103A20000000E01008080810E0000F1824243850A7
:103A30004F0008F8888888887000203F2000030C19
:103A40003020007088080808380000382021212222
:103A50001C00180808F8080818000000203F200083
:103A6000000008F808000008F808001F20202020A7
:103A70001F000878880000C83808000007380E01C9
:103A80000000F80800F80008F800033C0700073CB5
:103A90000300081868808068180820302C03032C65
:103AA00030200838C800C83808000000203F200037
:103AB000000010080808C8380800203826212020F7
:103AC0001800000000FE020202000000007F4040DB
:103AD0004000000C30C0000000000000000106386B
:103AE000C00000020202FE000000004040407F00D3
:103AF00000000000040202020400000000000000B8
:103B000000000000000000000000808080808080B5
:103B1000808000020204000000000000000000009D
:103B200000000000808080800000001924222222F2
:103B30003F2008F8008080000000003F1120201185
:103B40000E000000008080800000000E1120202068
:103B50001100000000808088F800000E1120201065
:103B60003F200000808080800000001F222222224F
:103B70001300008080F0888888180020203F2020D3
:103B800000000000808080808000006B94949493FB
:103B9000600008F8008080800000203F21000020A5
:103BA0003F2000809898000000000020203F202047
:103BB0000000000000809898000000C08080807F96
:103BC000000008F8000080808000203F24022D3093
:103BD0002000000808F8000000000020203F2020FE
:103BE00000008080808080808000203F20003F2077
:103BF000003F8080008080800000203F2100002066
:103C00003F200000808080800000001F20202020B6
:103C10001F00808000808000000080FFA120201114
:103C20000E000000008080808000000E112020A087
:103C3000FF80808080008080800020203F21200045
:103C40000100000080808080800000332424242430
:103C50001900008080E0808000000000001F20200C
:103C600000008080000000808000001F20202010C5
:103C70003F20808080000080808000010E30080698
:103C8000010080800080008080800F300C030C30A9
:103C90000F0000808000808080000020312E0E31D7
:103CA0002000808080000080808080818E701806D7
:103CB000010000808080808080000021302C222143
:103CC000300000000000807C020200000000003F85
:103CD000404000000000FF00000000000000FF0066
:103CE00000000002027C800000000040403F000015
:103CF00000000006010102020404000000000000B0
:103D000000000000243D0008000000209400000096
:103D100028010008B83D0008940000208C0600002F
:103D20004401000800000000010203040102030432
:103D300006070809020406080000000000344310CA
:103D40001001000000000000000000000000000062
:103D50000000000000A000000000000000000000C3
:103D60000000000000000000000000000000000053
:103D7000000000000000000000000000000014002F
:103D80000000000000000000000000000000000033
:103D90000000000000000000000000000000000023
:103DA000000000000000000001FF0101010100000F
:083DB00000000000000000000B
:04000005080000ED02
:00000001FF
