:020000040800F2
:100000004007002035020008912400088D1F0008D9
:1000100035230008431B0008FB44000800000000D3
:100020000000000000000000000000000531000892
:10003000CD1B0008000000008F2B0008E5340008ED
:100040004F0200084F0200084F0200084F0200084C
:100050004F0200084F0200084F0200084F0200083C
:100060004F0200084F0200084F0200084F0200082C
:100070004F0200084F0200084F0200084F0200081C
:100080004F0200084F0200084F0200084F0200080C
:100090004F0200084F0200084F0200084F020008FC
:1000A0004F0200084F0200084F0200084F020008EC
:1000B000893700084F020008F53800084F02000891
:1000C0004F0200084F0200084F0200084F020008CC
:1000D0004F020008F94100084F0200084F020008D3
:1000E0004F0200084F0200084F02000800F002F81B
:1000F00000F090F80AA090E8000C82448344AAF132
:100100000107DA4501D100F085F8AFF2090EBAE82F
:100110000F0013F0010F18BFFB1A43F0010318473B
:100120002857000048570000103A24BF78C878C10B
:10013000FAD8520724BF30C830C144BF04680C60ED
:10014000704700000023002400250026103A28BF35
:1001500078C1FBD8520728BF30C148BF0B60704739
:100160006E2900F06181702900F0A382662904F0F5
:10017000F087652904F0ED87672904F0EA87612993
:1001800004F0E98703681B0A28BF41F08001692950
:1001900000F00E81642900F00B81752900F00881C0
:1001A0006F2900F03082782900F06F82E92900F091
:1001B000CB81E42900F0C881F52900F0C581EF2941
:1001C00000F02D82F82900F06E820368DB0928BF59
:1001D00041F08001632900F07187732900F0768770
:1001E000E32900F08187F32900F08687002070471B
:1001F0001FB500F0D3FF04000020002104F0E6FA50
:10020000401C60600020002104F0CAFAE0601FBDBD
:1002100010B510BD00F094FF1146FFF7E9FF04F0A0
:100220002DFA01F071F803B4FFF7F2FF03BC01F0FF
:10023000B9F800000948804709480047FEE7FEE793
:10024000FEE7FEE7FEE7FEE7FEE7FEE7FEE7FEE786
:1002500004480549054A064B70470000E934000888
:10026000ED0000084001002040070020400300206E
:10027000400300201CB50C46064B7B4469460090A9
:10028000204600F0EAF804460020694600F0F8F83D
:1002900020461CBD030200004FF0000200B51346CB
:1002A00094469646203922BFA0E80C50A0E80C5096
:1002B000B1F12001BFF4F7AF090728BFA0E80C5047
:1002C00048BF0CC05DF804EB890028BF40F8042B40
:1002D00008BF704748BF20F8022B11F0804F18BFAD
:1002E00000F8012B704770477047704770B504469F
:1002F00085690068C10601D5302600E02026C007C8
:1003000007D070BDD4E9012130469047206A401CD7
:1003100020626D1EF6D570BD70B504468569007803
:10032000C00707D170BDD4E9012120209047206A81
:10033000401C20626D1EF6D570BD09684A0501D5C6
:1003400040B27047C905FCD500B2704709684A053C
:1003500001D5C0B27047C905FCD580B2704770B5F1
:100360000C460546012A05D02878800600D5EA69A2
:10037000002302E0012305E05B1C934202D2E05C13
:100380000028F9D1A869E618C01AA861286A18449B
:1003900028622846FFF7AAFF04E0D5E9012114F8F6
:1003A000010B9047B442F8D32846FFF7B5FF70BD64
:1003B0002DE9F0410646002410687529314616A53E
:1003C00010D0FFF7BAFF002802DA404213A507E079
:1003D00031688A0701D512A502E0490704D511A5A5
:1003E000012401E0FFF7B2FF00210A2206F12407F1
:1003F00009E0B0FBF2FCB0FBF2F302FB1C00303072
:1004000078541846491C0028F3D123462A46304622
:10041000BDE8F04100F061BA000000002D000000CE
:100420002B0000002000000011680268006A5305DC
:1004300001D508700AE0D30501D5088006E013064F
:1004400003D5C217C1E9000200E00860012070472F
:1004500001694A1C02610878704700B58FB0CDE988
:1004600001310021059105497944CDE90310114678
:10047000684600F029F90FB000BD0000E5FFFFFF5E
:100480000A6802F8010B0A60704700002DE9FF5F5F
:1004900015468A460446DFF8AC80F8440027D8E9C0
:1004A00000103E46CDE9001010E03AF816106A46FA
:1004B00002A800F025FE411C07D02178890603D54B
:1004C000E269391891420DD80744761C20788006DD
:1004D00002D5E069B84205DDAE42E6DB3AF8160027
:1004E0000028E2D1A069C01BA0612046FFF7FEFEF4
:1004F000D8E90010CDE90010002017E03AF81810F4
:100500006A4602A800F0FCFDB0F1FF3F81460BD027
:1005100000250DF1080B05E0D4E901211BF80500C9
:1005200090476D1C4D45F7D308F10100B04280465D
:10053000E4DB206A384420622046FFF7EDFEBDE888
:10054000FF9F0000AE5200002DE9F0418046D21D11
:1005500022F007020025D2E90002F52915A614D0E1
:10056000011E72F1000106DA0023D0EB030063EBF9
:10057000020211A608E0D8F800108B0701D50FA6DB
:1005800002E0490701D50EA601251146002408F115
:10059000240704E000F05CF930323A55641C50EA5C
:1005A0000102F7D12B46324621464046BDE8F041D4
:1005B00000F093B9000000002D0000002B000000A7
:1005C0002000000030B4002100F1240408E002F013
:1005D0000705D208303542EA4372DB086554491CEE
:1005E00052EA0305F3D10468002310A2250707D5BA
:1005F000A40600D421B1C46901230DA2641EC46104
:1006000030BC00F06AB910B5044621461068FFF707
:100610009DFE02462046BDE810400023D2E7D21DD1
:1006200022F00701D1E90023CCE700000000000020
:1006300030000000F0B40D460188090502D5214CB8
:100640007C4402E01F4C7C440E34002100F124065F
:1006500008E002F00F071209E75D42EA03721B0986
:100660007754491C52EA0307F3D10278002312079A
:1006700004D5702D06D009B1022311342246F0BCF6
:1006800000F02BB901231034F8E770B504460D468D
:1006900021461068FFF75AFE024629462046BDE86B
:1006A00070400023C6E7D21D22F00703D3E90023E0
:1006B000C0E70368126843F0200303600823C361A6
:1006C0000023B7E7105100002DE9F05F894604468A
:1006D0004FF0000ADFF874B1FB44C0F820A02046B8
:1006E000E1688847002874D0252806D0D4E9012184
:1006F0009047206A401C2062F1E700265F462046B2
:10070000E16888472028054607DB312D05D2781996
:1007100010F8200C08B10643F1E7B00701D526F028
:100720000406C4F81CA00027C4F818A02A2D09D07C
:10073000284603F09BFF38B304EB8708303DC8F828
:10074000185019E059F8041B204604EB8702916108
:10075000E1688847012F054618D1E069002820DAB2
:1007600026F020061DE0D8F8180000EB800005EB0D
:1007700040003038C8F818002046E1688847054630
:1007800003F074FF0028EED1012F0AD02E2D08D1DE
:100790002046E16888477F1C0546022F46F0200668
:1007A000C4DBA069002803DA404246F00106A061DC
:1007B000F00701D026F010066C2D0BD0682D09D063
:1007C0004C2D39D06A2D35D0742D35D07A2D33D0BB
:1007D00016E038E0E1682F4620468847B8420546D3
:1007E00009D16C2F26D04FF48060E1680643204683
:1007F0008847054604E06C2F1AD04FF480700643FA
:100800000DB3A5F14100192802D8203546F4006641
:100810004A462946204626604E46FFF7A1FC80B195
:1008200001280BD0F61D26F0070000F1080956E755
:100830004020E4E78020D8E70020D6E706F104094D
:100840004DE7284652E7206ABDE8F09FA05000001F
:1008500030B5B0F10A024FEA900E71F100034EEA92
:10086000817EB0EB0E0061EB91014FEA101E4EEA63
:10087000017E10EB0E0041EB11114FEA102E4EEAF3
:10088000016E10EB0E0041EB11214FEA104E4EEAC3
:10089000014E10EB0E0041EB1141401841F10001F7
:1008A0004FEAD00040EA41704FEAD10110EB8005D9
:1008B0004FEA810444EA907444EB01046D1944EB5F
:1008C0000404521BA3414FF0000348BF0A3200D575
:1008D00030BD401C41F1000130BD2DE9F0470D460F
:1008E00099469246044600F124080168880604D51A
:1008F000E06921F01001216000E00120A84201DD43
:10090000471B00E00027A1697A1902EB0900081AC9
:10091000A0612078C00602D42046FFF7E7FC00263D
:1009200008E0D4E901211AF806009047206A401C2B
:10093000761C20624E45F4DB2078C0060AD520469E
:10094000FFF7D4FC06E0D4E9012130209047206A6B
:10095000401C2062381EA7F10107F4DC07E0D4E94F
:10096000012118F805009047206A401C2062281ECB
:10097000A5F10105F3DC2046FFF7CEFC2078000648
:1009800002D50220BDE8F0870120FBE770472DE982
:10099000FF4F0C461E464FF0FF378BB0D2E90001E7
:1009A000DDF860800A908A46C1F30A5505B93D46D4
:1009B000002108464FF00000BAF1000F00F440009B
:1009C00005DA00EB80004FF4400101EA50004FEAE5
:1009D0009059B9F1010F00DDB9460A9850EA4A0072
:1009E0000ED044F61050A5F2FF3545432F14B8F150
:1009F000000F1ED07542291E1EDDC9F100021CE049
:100A0000B8F1010F4FF0000001D0302103E0F243B4
:100A100005E02154401CB042FBDB3046002200219F
:100A200021540B99C1F80880C1E900200FB0BDE83E
:100A3000F08FBD1B6D1CDEE74A4600DA694206A84E
:100A400000F0F0FB06AB93E8070003AB83E8070078
:100A500050460A9900F0ADFC8DE80700A0F5005063
:100A60001F3800900398002D0ADD42F21F014A460C
:100A70000844002303A90390684600F016FF09E02C
:100A8000A0F500504A461F38002303A9039068468A
:100A900000F020FF8DE807000004000C03D04FF0A9
:100AA000FF30410800E01046B8F1000F03D00022EB
:100AB000009215461EE0751E05D4FFF7C9FE3032C0
:100AC00062556D1EF9D5B3460122084302D00022BB
:100AD0007F1C04E02078302801D100227F1E002AEC
:100AE000099784D01DE0112D07DAFFF7B1FE3032EF
:100AF00062556D1C50EA0102F5D1084302D00098FE
:100B0000C8B10EE00021681E05E0235C625C6354FE
:100B10002254401E491C8142F7DBAB46A81B401EF5
:100B20000990002004F80B000B98099AC0F808807F
:100B3000C0E9002B7AE711264FF0000857E72DE9AE
:100B4000F04F88460446D21D22F0070191B0D1E94A
:100B50000001CDE90A0103F075FD02460B98C00FB4
:100B600001D02D2007E02068810701D52B2002E06D
:100B7000202101EAC000032A099001D0072A05DBE1
:100B800003464146204600F00DFB0BE1207880062D
:100B900001D5E06900E00620B8F1650F814606D076
:100BA000B8F1660F18D0B8F1670F70D131E00020AE
:100BB000B9F1110F009001DB112301E009F10103EC
:100BC0000AAA01A90CA8FFF7E2FEDDE90C700026D5
:100BD00009F10105834647E001204B4600904FF0A4
:100BE00000470AAA01A90CA8FFF7D1FEDDE90DB064
:100BF0000C995D46002610B909F101000D18B9EBFA
:100C0000050003D4C0F1FF3609F10105A5EB090089
:100C10002BE0B9F1010F01DA4FF001090020B9F121
:100C2000110F0090484601DD112300E003460AAA97
:100C300001A90CA8FFF7ABFEDDE90C704D460026BC
:100C40008346207800070AD4AB4500DA5D4601A848
:100C5000012D04DD411911F8011C302907D04F4541
:100C600002DA17F1040F04DA012082460FE06D1E4C
:100C7000EEE7002F02DCED1B3E4403E0781CA842A7
:100C800000DD7D1CB81B00F1010A4FF00047207801
:100C9000000703D4AA4501DB4FF0FF3A0021B7F16A
:100CA000004F0DF143088DF8431024D002202B2370
:100CB000002F01DA7F422D230A21021EA0F101003C
:100CC00000DC5FB197FBF1FC97FBF1F201FB1C7CB0
:100CD00017460CF1300C08F801CDEEE7A8F1010041
:100CE00003702188090501D5452100E06521A0F1A7
:100CF000010800F8011C09980FA9A1EB0807FF1DC6
:100D000000B10120411901EBEA70A1693844081AC9
:100D1000401EA0612078C00602D42046FFF7E6FA04
:100D2000099828B1D4E901219047206A401C20622B
:100D30002078C00622D52046FFF7D8FA1EE0002E04
:100D400004DBB34502DD01A8805D00E03020D4E97A
:100D500001219047206A401C2062761CAAF1010004
:100D60005FEA000A0AD100F019FAC0680168405C25
:100D7000D4E901219047206A401C2062281EA5F179
:100D80000105DCDC07E0D4E9012118F8010B9047EC
:100D9000206A401C2062381EA7F10107F3DC2046C0
:100DA000FFF7BAFA032011B041E600002DE9F04F39
:100DB00004460D46D21D22F0070089B0D0E9009705
:100DC0004846394603F03EFC0246F80F01D02D2379
:100DD00007E02068810701D52B2302E0202101EAEA
:100DE000C0038DF820300BB1012000E00020032A61
:100DF000824601D0072A04DB2946204600F0D2F9BA
:100E00003FE12078800601D40D2500E0E569C7F3B5
:100E10000A560D2D49DA00214FEA175B08464FF0BC
:100E20000000002F00F4400007DA00EB80004FF4D0
:100E3000400100EBD07001EA60008115012901DD5D
:100E40004FF0FF3100224FEA850CBCF1180F06D39A
:100E50001346ACF118004FF08052C24003E04FF44B
:100E6000801323FA0CF30CF10C0CBCF1200F04D30B
:100E7000ACF1200C09FA0CF001E007FA0CF00029A3
:100E80004FF0004801DD18B90FE00ED140450CD3FA
:100E900019EB02095F4121B9404502D19F4329EA7C
:100EA0000209BBEB175F00D0761C2088000502D535
:100EB0007B48784402E07A487844193808AA3023FD
:100EC00002F80A30037C0AF10101002E0AF1020A3D
:100ED00053546A4602DC4FF0300101E04FF031011B
:100EE0004FF001088DF8001002D0A6F2FF3603E0A3
:100EF00059EA470100D06B4E002D02DC217809072A
:100F000004D54FF002082E218DF80110C4460021AF
:100F10000BE0C7F303433F01C35C491C6D1E02F89D
:100F20000830052908F1010801DA002DF1DC002163
:100F30000CE000EB1973491C1B786D1E082902F8A0
:100F400008304FEA091908F1010801DA002DF0DC38
:100F500021688B0602D516E0A8F10108E04505DD01
:100F600002EB080313F8013C302BF5D0B8F1000F69
:100F700009DD02EB080313F8013C2E2B03D109070E
:100F800001D4A8F10108002D05DD3E2102F808106A
:100F90006D1E08F10108407C002E02F8080008F1DF
:100FA000010804DA2D20764202F8080002E02B2026
:100FB00002F808000A214FF47A70864208F101080D
:100FC0000BDB96FBF0F3303302F8083096FBF0F3BE
:100FD00008F1010800FB136601E0642E0CDB6420BD
:100FE00096FBF0F3303302F8083096FBF0F308F18B
:100FF000010800FB136601E00A2E06DB96FBF1F008
:10100000303002F8080008F1010896FBF1F001FB0E
:101010001060303002F80800A16908F1010808EBFF
:10102000050202EB0A00081AA0612078C00602D46B
:101030002046FFF75BF9216A08AE01EB0A00206247
:1010400004E0D4E9012116F8010B9047BAF1010A36
:10105000F7D22078C00602D52046FFF747F96E4642
:1010600009E016F8010B3E280FD0D4E90121904782
:10107000206A401C2062B8F10108F2D22046FFF736
:101080004BF909B00320BDE8F08F206A28442062A4
:1010900003E0D4E90121302090476D1EEBD3F8E73F
:1010A000EA48000002FCFFFF10B5436913B1AFF33B
:1010B000008001E0FFF753F9012010BD127800F124
:1010C00024010A7000224A700122EDE711684FF0F6
:1010D000FF32E9E710B5436913B1AFF3008001E0D7
:1010E000FFF7D4F9012010BD128800F12401828499
:1010F0000022C2840122EDE711684FF0FF32E9E7D8
:1011000070B516460C46054600F040F8036893F8A3
:101110000101012806D0FF2C0FD8185D68B101200D
:101120002C7070BDD3F807013246214603F2071335
:1011300003442846BDE8704018474FF0FF3070BDAB
:10114000754600F0EBF8AE4605006946534620F0C0
:101150000700854618B020B5FFF77AF8BDE82040B3
:101160004FF000064FF000074FF000084FF0000B63
:1011700021F00701AC46ACE8C009ACE8C009ACE816
:10118000C009ACE8C0098D467047000010B500F0FA
:1011900005F8001D10BD00BF35360000004870473F
:1011A000000100202DE9F0411F4604460326016896
:1011B000072A01F4006004DB08B116A505E016A5B6
:1011C00003E008B115A500E015A521F0100020608E
:1011D000A069C01EA0610FB1401EA0612046FFF7AC
:1011E00085F84FB1D4E9012138469047206A401C68
:1011F0002062C01C206206E0206AFAE7D4E90121DF
:1012000015F8010B9047761EF8D22046FFF784F8B8
:10121000BDE8F0814E414E006E616E00494E4600C1
:10122000696E66002DE9F047814616468AB035485A
:1012300078440DC88DE80D0032487844801C03AC1A
:101240000DC884E80D0041F69B300844372190FB1F
:10125000F1F290FBF1F5A5F1800501FB12041B3CB6
:1012600002D56442012000E00020DFF898A080460B
:101270000027FA44AAF1BE0A0EE0E0070AD032467F
:10128000684607EB470101230AEB810100F022FBCE
:101290008DE8070064107F1C002CEED1194F7F44AD
:1012A000AE3F19E0E80715D007EB04100DF1180A5E
:1012B00090E80E008AE80E00C068F04201D198194B
:1012C00008903246012306A903A800F003FB03ABF4
:1012D00083E807006D10641C002DE3D14FF001037B
:1012E00032466946B8F1000F03A802D000F0DDFADB
:1012F00001E000F0EFFAC9E90001C9F808200AB0DE
:10130000BDE8F087FC45000010B50446AFF300804F
:101310002046BDE81040FEF786BF00000048704739
:10132000E00000204FF0013C50F8042B51F8043B42
:101330009A4221D1A2EB0C03934313EACC1317D1A9
:1013400050F8042B51F8043B9A4215D1A2EB0C0340
:10135000934313EACC130BD150F8042B51F8043B00
:101360009A4209D1A2EB0C03934313EACC13DBD0CE
:101370004FF00000704700BFD01A01BAB1FA81F1F6
:1013800001F0180122FA01F0CB40C1F12001DBB2DB
:10139000C0B2C01A2CFA01F3D11A914311EAC31159
:1013A000E6D1704701491820ABBEFEE726000200D7
:1013B00070475FEA400C08BF91F0000F4FEA8C23A2
:1013C0004FEAC12243EA51514FEA1C5018BF00F5C1
:1013D000F0404FEA300018BF41F000415FEA6C5C1A
:1013E00000F02980BCF1FF3F08BF40F0804070470B
:1013F000130C06BF12044FF0100C4FF0000C130E2C
:1014000004BF12020CF1080C130F04BF12010CF1FF
:10141000040C930F04BF92000CF1020CD30F04BF15
:1014200052000CF1010C11464FF00002A0F11F0018
:10143000A0EB0C00704711F0004F08BF704731F06F
:1014400000413FF4D5AF0B0C06BF09044FF0100C60
:101450004FF0000C0B0E04BF09020CF1080C0B0F2F
:1014600004BF09010CF1040C8B0F04BF89000CF1BF
:10147000020CCB0F04BF49000CF1010CCCF120038E
:10148000A0EB0C0022FA03F302FA0CF241EA03018A
:1014900000F10100704720F07F4C80EA030023F048
:1014A0007F47ACEB070303F57C5300F0004003F1EA
:1014B000FF032DE980494FEA154B09B44FEA144365
:1014C00025EA0B4E24EA03480FF2042606EB132705
:1014D00049083E785FEA320203FB0667C7F500075A
:1014E00007FB06F64FEA54374FEAD64606F10206E6
:1014F00007FB066CCCF1005C4FEA1C472CEA074C5A
:1015000007FB06F40CFB06F504EB15464FEA9616AE
:1015100034BF00204FF000404FEAD13706FB07FCF4
:101520004FEA1C4C0CFB0BF7D21B03FB0CF761EBD7
:1015300007010CFB0EF7B0EB074072EB17420CFBF8
:1015400008F734BFA2EB0742B2EB074261EB174149
:101550004FEA0C444FEA910706FB07FC4FEA1C4C8C
:101560000CFB0BF7B0EBC74072EB573203FB0CF7E9
:1015700034BFA2EBC742B2EBC74261EB57310CFB61
:101580000EF7B0EBC70072EB57720CFB08F734BFD5
:10159000A2EBC702B2EBC70261EB5771039F4FEAA0
:1015A000816141EA921104EBCC044FEAD1374FEA52
:1015B000826206FB07FC42EA90124FEA80604FEA23
:1015C0001C4C0CFB0BF7D21B03FB0CF761EB070168
:1015D0000CFB0EF7B0EB074072EB17420CFB08F761
:1015E00034BFA2EB0742B2EB074261EB17414FEA6F
:1015F0008C554FEA910704EB9C2406FB07FC4FEA4D
:101600001C4C0CFB0BF7B0EBC74072EB573203FBE3
:101610000CF734BFA2EBC742B2EBC74261EB5731C4
:101620000CFB0EF7B0EBC70072EB57720CFB08F720
:1016300034BFA2EBC702B2EBC70261EB577115EBE7
:101640004C254FEA816141EA92114FEA82624FEAEA
:10165000D13742EA901206FB07FC44F100044FEA3E
:1016600080604FEA1C4C0CFB0BF7D21B03FB0CF702
:1016700061EB07010CFB0EF7B0EB074072EB174272
:101680000CFB08F734BFA2EB0742B2EB074261EB59
:10169000174115EB1C154FEA813141EA92414FEA9F
:1016A000823242EA90424FEA80304FEA0C7644F1AF
:1016B000000448EA03434EEA0B484FF0000EB2EB39
:1016C000080C71EB030724BF624639464EEB0E0E41
:1016D0004FF0000B0018524149414BEB0B0BB2EBA2
:1016E000080C71EB03077BF1000B24BF62463946FF
:1016F0004EEB0E0E4FF0000B0018524149414BEBE0
:101700000B0BB2EB080C71EB03077BF1000B24BF52
:10171000624639464EEB0E0E51EA020718BF46F0FC
:10172000010616EB0E7655F1000254F1000103D5C7
:10173000BDE88901BDE80088BDE88901BDE8004831
:10174000B619524141EB0101A3F1010370478080BA
:101750007F7E7D7C7B7A797877767675747372710B
:1017600071706F6E6E6D6C6C6B6A6A6968686766C3
:1017700066656464636362616160605F5F5E5E5D55
:101780005D5C5C5B5B5A5A595958585757565655C9
:1017900055555454535352525251515050504F4F2B
:1017A0004F4E4E4D4D4D4C4C4C4B4B4B4A4A4A497B
:1017B00049494848484747474746464645454544BE
:1017C0004444444343434342424242414141002B4B
:1017D0009C4630D477002BD01CB54FEA370703B4B2
:1017E0004FF010004FF01001BAF1000F06D0BCF11D
:1017F000000FDCBF40F0080040F008014FF000008F
:101800000FBCBDE810400BF1010BBBF1010F08BF8D
:101810005FEA170722BF12F1010211F101014FF037
:10182000004143F1000300F0004043EA000070472C
:10183000F9D35708D0E746EA064613F1400F4FEABE
:1018400016461FDD13F1200FDFBF16430A460021A5
:1018500020335B42BED0C3F1200746EA064602FAB7
:1018600007F74FEA164646EA0706C3F1200722FAB1
:1018700003F201FA07F721FA03F14FF0000342EAFD
:101880000702A7E746EA020646EA06464FEA164678
:1018900046EA0106BCBF46EA0646360C4FF0000396
:1018A0004FF000024FF0000194E72DE9804C9A467A
:1018B000934670B491E8380007C831EA400C48BF3D
:1018C00034EA430C03D5FFF7E6FDFFF780FFF0BCD9
:1018D000BDE8008C2DE9804C9A46934670B491E89F
:1018E000380007C810F0804F08BF13F0804F03D1B5
:1018F00000F005F8FFF76BFFF0BCBDE8008C20F0AE
:101900007F4780EA030023F07F4C07EB0C03A3F52D
:101910007C5300F00040A3F1FE0392F0000F00F0B2
:10192000B38095F0000F00F077802DE901494FEA70
:1019300011404FEA144621EA004800FB06FC24EA65
:10194000064708FB06F607FB08F800FB07F718EB4D
:1019500006484CEB164C4FEA124B18EB07484FEA7F
:1019600015464CEB174022EA0B4E0BFB06FC25EA12
:1019700006470EFB06F607FB0EFE0BFB07F71EEBFA
:10198000064E4CEB164C4FF000061EEB074E4CEB90
:10199000174B18EB0B0840F1000018EB0E0B58EB3F
:1019A000000840F100008F1A4FF000013CBFC9430E
:1019B000661B14BFB5EB040C00213CBFC943F61BEA
:1019C0004FEA17444EEA8E0E27EA04454FEA1C47B9
:1019D00004FB07622CEA074C05FB07F70CFB05F636
:1019E00004FB0CFC16EB074642EB174216EB0C46C9
:1019F00042EB1C421BEB060658EB0202414146EA51
:101A00009E0601D5BDE80189B619524141EB01019D
:101A1000A3F10103BDE801894FEA14454FEA1147DC
:101A200024EA054621EA074C05FB07F406FB07F705
:101A30000CFB06F105FB0CFC11EB074144EB1744D2
:101A40004FEA124711EB0C4144EB1C4422EA074CCD
:101A500005FB07F206FB07F70CFB06F605FB0CFC83
:101A600016EB074642EB174216EB0C4642EB1C45C1
:101A70006A1854F1000148BF7047B619524141EB52
:101A80000101A3F10103704795F0000F37D04FEA31
:101A900011424FEA144721EA024624EA074C02FBAE
:101AA00007F106FB07F70CFB06F402FB0CFC14EB3A
:101AB000074441EB17414FEA154714EB0C4441EB47
:101AC0001C4125EA074C02FB07F506FB07F70CFB58
:101AD00006F602FB0CFC16EB074645EB174516EB2A
:101AE0000C4645EB1C42121951F1000148BF7047EA
:101AF000B619524141EB0101A3F1010370474FEACE
:101B000014454FEA114724EA054621EA074C05FB34
:101B100007F106FB07F70CFB06F24FF0000605FB8A
:101B20000CFC12EB074241EB174112EB0C4251EB5C
:101B30001C4148BF7047921841EB0101A3F101031A
:101B4000704700BFFEE7000010B50446032000F018
:101B5000A1FC207017480078000917490870154843
:101B6000007800F00F0015490870154800781549F5
:101B70000870022000F08EFC1149087008460078B9
:101B800010490978884214D00D48007800F002000E
:101B900018B101200C4908700BE00948007800F0EA
:101BA000080018B102200849087002E00320064925
:101BB000087010BD7C0000207A0000207B0000200F
:101BC000AC000020AD0000208C000020704700B564
:101BD000034603E04FF47A7000F005F8181EA3F1F5
:101BE0000103F7D100BD00EBC001C9004FF0E022B6
:101BF0005161002191610521116100BF4FF0E02189
:101C0000096901F480310029F8D004214FF0E02265
:101C10001161704770B506460C46154600203060CD
:101C2000206028600021042001F0BAF870BD10B5D2
:101C300001F086F802F00AFA10BD2DE9F0410246E3
:101C400000250026002000230024002791F803C06F
:101C50000CF00F0591F803C00CF0100CBCF1000F54
:101C600003D091F802C04CEA050591F800C0BCF120
:101C7000000F31D0146800202BE04FF0010C0CFA5B
:101C800000F3B1F800C00CEA03069E4220D18300A5
:101C90004FF00F0C0CFA03F7BC4305FA03FC4CEAB7
:101CA000040491F803C0BCF1280F06D14FF0010CD9
:101CB0000CFA00FCC2F814C00AE091F803C0BCF1B1
:101CC000480F05D14FF0010C0CFA00FCC2F810C00F
:101CD000401C0828D1D31460B1F800C0BCF1FF0F3C
:101CE00034DD546800202EE000F1080C4FF00108AC
:101CF00008FA0CF3B1F800C00CEA03069E4221D1A9
:101D000083004FF00F0C0CFA03F7BC4305FA03FCF9
:101D10004CEA040491F803C0BCF1280F05D100F18E
:101D2000080C08FA0CF8C2F8148091F803C0BCF152
:101D3000480F07D100F1080C4FF0010808FA0CF821
:101D4000C2F81080401C0828CED35460BDE8F08152
:101D5000F0B50A46002300240021002500F00046CB
:101D6000B6F1004F02D11D4EF16901E01B4E7168C2
:101D7000C0F3034583B200F44016B6F5401F08D106
:101D800021F07061154E766826F07066134F7E6004
:101D900012E000F48016B6F5801F06D1032606FA7D
:101DA00005F4A14341F0706106E0460D360103FAE7
:101DB00006F6B14341F0706122B1460D360103FAD7
:101DC00006F6314300F00046B6F1004F02D1034E53
:101DD000F16101E0014E7160F0BD000000000140C2
:101DE00041617047016170470AB1016100E04161E2
:101DF0007047000010B50446206838B90E4A0F49F4
:101E00000F4802F07FF94FF4FA70206001230C486C
:101E100002780421184600F047FE012307480278A3
:101E20000621184600F040FE0123034802780821ED
:101E3000184600F039FE10BD5E0000205D00002055
:101E40005C00002010B50446207800F0080020B3A4
:101E5000207800F00700012806D0022809D00328C6
:101E60000CD0042814D10EE000F092F80B49086061
:101E70000EE000F0DDF80A49086009E000F026F9FC
:101E80000849086004E000F06FF90749086000BFE6
:101E900000BF207800F00700207010BD6000002017
:101EA00064000020680000206C00002010B5074B83
:101EB0001B784FF47A7463430360054B1B786343CC
:101EC0000B60044B1B786343136010BD5C00002063
:101ED0005D0000205E00002010B5002000F0DAFA5E
:101EE0002349087023480078234908702348007864
:101EF000204908702048007838B908460078012841
:101F000003D100201E49087009E01B480078012811
:101F100005D11848007810B90120194908701448F3
:101F2000007800F0800038B116480078012803D10D
:101F300000201249087019E00D48007800F0800078
:101F4000A0B910480078012810D10C490870002071
:101F50000C4908700C4988600548007840F0800002
:101F6000034A10700146002000F09AFB10BD0000EB
:101F7000AE000020B0000020AF000020780000205C
:101F80008900002079000020D400002000BFFEE777
:101F90002DE9F0411F48006868B90122D1031E48AD
:101FA000FFF722FF0F20FFF71EFE00224FF4004133
:101FB0001948FFF719FF1748006830B31748007831
:101FC00018BB17490988080402F0F0FF154908609A
:101FD0001048006802F0EAFF0446124801682046F3
:101FE00002F082FF0F4908600846006802F050FFC7
:101FF00006460D4A0D4B02F017FE044602F0FCFBAC
:102000000849086000200349086006480068BDE8E8
:10201000F08100003C000020000801403800002052
:10202000C40000204C000020C3F5285C8FC2C53FCF
:102030002DE9F0411E48006860B9012208211D48C1
:10204000FFF7D2FE0F20FFF7CEFD0022082119482E
:10205000FFF7CAFE1648006830B31748007818BB6F
:1020600016498988080402F0A1FF15490860104844
:10207000006802F09BFF044611480168204602F008
:1020800033FF0F4908600846006802F001FF06466A
:102090000C4A0D4B02F0C8FD044602F0ADFB0849A6
:1020A000086000200249086005480068BDE8F0812A
:1020B00040000020000C014039000020C400002036
:1020C00050000020C3F5285C8FC2C53F2DE9F041C8
:1020D0001E48006860B9012210211D48FFF784FEE8
:1020E0000F20FFF780FD002210211948FFF77CFE2A
:1020F0001648006830B31748007818BB164909899C
:10210000080402F053FF154908601048006802F007
:102110004DFF044611480168204602F0E5FE0F49D4
:1021200008600846006802F0B3FE06460C4A0D4BF4
:1021300002F07AFD044602F05FFB084908600020C7
:102140000249086005480068BDE8F08144000020AD
:10215000000C01403A000020C40000205400002080
:10216000C3F5285C8FC2C53F2DE9F0411E480068C9
:1021700060B9012220211D48FFF736FE0F20FFF72E
:1021800032FD002220211948FFF72EFE1648006874
:1021900030B31748007818BB16498989080402F043
:1021A00005FF154908601048006802F0FFFE04466C
:1021B00011480168204602F097FE0F490860084662
:1021C000006802F065FE06460C4A0D4B02F02CFD3D
:1021D000044602F011FB084908600020024908602B
:1021E00005480068BDE8F08148000020000C01406F
:1021F0003B000020C400002058000020C3F5285CEC
:102200008FC2C53F08B501210D2000F0E1FC01217E
:102210001B48FFF79DFD28208DF803004FF47070D8
:10222000ADF8000069461748FFF707FD10208DF84C
:1022300003003820ADF8000003208DF80200694645
:102240001048FFF7FAFC4FF40040ADF80000694673
:102250000D48FFF7F2FC01F029FC4FF4004109485A
:10226000FFF7BEFD08210748FFF7BAFD102105481A
:10227000FFF7B6FD20210348FFF7B2FD08BD0000BF
:1022800000023000000C01400008014010B500F0D1
:1022900033F800F031FB00F003F900F023FDFFF705
:1022A000B1FF01F0F5FA01F0F7FFFFF7C0FC00F015
:1022B000BFFD03A20121032000F04CFC10BD000073
:1022C000313A202020323A2020202020333A0000CA
:1022D00010B54FF400510248FFF784FD10BD000017
:1022E0000010014010B54FF400510248FFF778FD8F
:1022F00010BD00000010014008B50121102000F0C1
:1023000067FC4FF40050ADF8000010208DF803007A
:1023100003208DF8020069460548FFF78EFC4FF454
:1023200000510348FFF75CFDFFF7D2FF08BD000036
:102330000010014000BFFEE770B504462046FFF7DD
:1023400081FD4A48006802F0A3FD05464FF0663261
:10235000474B02F067FD05D246A20321084600F074
:10236000C5FB1FE04148006802F092FD0546424A65
:10237000424B02F057FD10D23C48006802F088FD45
:1023800005464FF066323A4B02F012FC05D83CA2EB
:102390000321084600F0AAFB04E03AA20321084604
:1023A00000F0A4FB3848006802F072FD05464FF0CB
:1023B00066322F4B02F036FD05D22EA208210320F3
:1023C00000F094FB1FE03048006802F061FD054614
:1023D000294A2A4B02F026FD10D22B48006802F051
:1023E00057FD05464FF06632214B02F0E1FB05D860
:1023F00023A20821032000F079FB04E021A2082198
:10240000032000F073FB2148006802F041FD0546FF
:102410004FF06632164B02F005FD05D215A20E21D3
:10242000032000F063FB1FE01848006802F030FD55
:102430000546114A114B02F0F5FC10D21348006812
:1024400002F026FD05464FF06632094B02F0B0FB64
:1024500005D80BA20E21032000F048FB04E009A2DE
:102460000E21032000F042FB70BD00006000002040
:10247000663665404C6F0000CDCCCCCCCC2C4F40A8
:102480004D690000467500006400002068000020CF
:102490007047000001460148405C70471E00002064
:1024A00000B587B00121080300F092FB0121D42080
:1024B00000F08EFB18208DF81B00E020ADF818000E
:1024C00003208DF81A0006A94448FFF7B6FB102038
:1024D0008DF81B001220ADF8180006A93F48FFF741
:1024E000ACFB48208DF81B000120ADF8180006A9B0
:1024F0003B48FFF7A2FB012210213848FFF774FC8C
:10250000002202213548FFF76FFC012211463448B2
:10251000FFF76AFC0020ADF804004FF48270ADF8BC
:1025200006000020ADF80800ADF80A00ADF80C0078
:102530004FF40070ADF80E000820ADF81000002038
:10254000ADF812000720ADF8140001A9254800F0ED
:1025500079FD0121234800F05BFD0821202000F0D7
:10256000A5F83F21212000F0A1F80321222000F04E
:102570009DF80321232000F099F80321242000F086
:1025800095F80221252000F091F80E21262000F078
:102590008DF80021272000F089F80021312000F07B
:1025A00085F80021322000F081F80021332000F06E
:1025B0007DF80021342000F079F80021352000F06A
:1025C00075F80021362000F071F8E22000F00CF8D8
:1025D000E12000F009F807B000BD0000000801404C
:1025E000000C01400030014070B50446002210216B
:1025F0000848FFF7F9FB204600F042FD002000F0FC
:102600003FFD0546012210210248FFF7EDFB284659
:1026100070BD0000000801402DE9F04107460D465D
:102620001646002210210C48FFF7DEFB384600F06A
:1026300027FD8046002405E0002000F021FD2855FC
:10264000601CC4B2B442F7DB012210210248FFF73C
:10265000CBFB4046BDE8F0810008014010B50720E3
:10266000FFF7C2FF0C4908700846007800F04000F0
:1026700030B1082209496120FFF7CEFF012400E0B4
:10268000002405480178272000F010F8E220FFF729
:10269000ABFF204610BD0000180000201E000020E7
:1026A000014A1154704700001E00002070B5054615
:1026B0000C46002210210848FFF796FB284600F040
:1026C000DFFC0646204600F0DBFC01221021024818
:1026D000FFF78AFB304670BD000801402DE9F0414C
:1026E00007460D461646002210210C48FFF77CFBDA
:1026F000384600F0C5FC8046002404E0285D00F068
:10270000BFFC601CC4B2B442F8DB012210210348B4
:10271000FFF76AFB4046BDE8F08100000008014079
:1027200008B54FF4A06000F047F826208DF80000AF
:1027300001208DF801008DF802008DF80300684635
:1027400000F002F808BD000070B5002100230F2240
:10275000C47804B3154C246804F4E064C4F5E06460
:10276000210AC1F10403CA40447804FA03F18478D1
:102770001440214309010E4C0678A155047804F059
:102780001F050124AC4005786D11AD0005F1E02571
:10279000C5F8004109E0047804F01F050124AC40AD
:1027A000044D0678761145F8264070BD0CED00E02A
:1027B00000E400E080E100E002490143024A1160C8
:1027C000704700000000FA050CED00E070B5002431
:1027D0000EE00021204600F0F0F8002504E0002083
:1027E00000F0A8F9681CC5B2802DF8DB601CC4B2EB
:1027F000082CEEDB70BD000008B50121042000F0BC
:10280000E7F914208DF8030003208DF802004FF43F
:102810000060ADF8000069460A48FFF70EFA4FF471
:102820008050ADF8000069460648FFF706FA01221D
:10283000D1020448FFF7D8FA012211030148FFF73B
:10284000D3FA08BD0008014070B50546002415E024
:102850008020204100EA05024FF480510E48FFF726
:10286000C3FA0122D1020C48FFF7BEFA00224FF44E
:1028700000610948FFF7B8FA601CC4B2082CE7DB16
:102880000122D1020448FFF7AFFA00224FF40061A1
:102890000148FFF7A9FA70BD0008014010B50122F8
:1028A00011030A48FFF7A0FA0122D1020748FFF7F7
:1028B0009BFA00224FF480510448FFF795FA00225A
:1028C0004FF400610148FFF78FFA10BD0008014086
:1028D00010B500224FF480510648FFF785FA012217
:1028E000D1020448FFF780FA012211030148FFF7E3
:1028F0007BFA10BD0008014070B5002406E00025F9
:1029000000E06D1CB5F57A7FFBD3641CB4F57A7FCB
:10291000F5D3FFF771FFAE2000F0FCF8D52000F0F2
:10292000F9F8802000F0F6F8A82000F0F3F83F2036
:1029300000F0F0F8D32000F0EDF8002000F0EAF805
:10294000402000F0E7F8A12000F0E4F8C82000F0F3
:10295000E1F8DA2000F0DEF8122000F0DBF8812048
:1029600000F0D8F8CF2000F0D5F8D92000F0D2F848
:10297000F12000F0CFF8DB2000F0CCF8302000F0A0
:10298000C9F8A42000F0C6F8A62000F0C3F88D20F6
:1029900000F0C0F8142000F0BDF8AF2000F0BAF845
:1029A000FFF714FF70BD10B50246012000E0504350
:1029B0000B1EA1F10101FAD110BD70B505460C4600
:1029C00045F0B00000F0A6F8102141EA141000F024
:1029D000A1F804F00F0141F0020000F09BF870BD77
:1029E0002DE9F04105460E461746721ED206110E1D
:1029F0006A1E5206100EFFF7E0FF002409E0A7F15F
:102A00002001134A02EB0111085D00F093F8601CED
:102A1000C4B2082CF3DB721ED206110E6A1E01230B
:102A200003EB4202D0B2FFF7C8FF00240BE0A7F18E
:102A30002001074A02EB011204F10801505C00F08A
:102A400079F8601CC4B2082CF1DBBDE8F08100000D
:102A50005A5100082DE9F04781460E4690461F4620
:102A600000241DE0381B411E1020FFF79CFFB8FB1F
:102A7000F0F000F00F050A2D08DA05F13000C2B2BF
:102A80003019C1B24846FFF7ABFF07E005F1370048
:102A9000C2B23019C1B24846FFF7A2FF601CC4B2EF
:102AA000BC42DFDBBDE8F0872DE9F04780460E46EB
:102AB00017461D46002415E0281B411E0A20FFF77B
:102AC00072FFB7FBF0F00A21B0FBF1F201FB12003C
:102AD00000F130093019C1B24A464046FFF780FF85
:102AE000601CC4B2AC42E7DBBDE8F0872DE9F041E1
:102AF00007460E461546002407E02A5D3019C1B28C
:102B00003846FFF76DFF601CC4B2285D0028F4D181
:102B1000BDE8F08110B50446FFF7C0FE7820FFF74E
:102B200093FE0020FFF790FE2046FFF78DFEFFF793
:102B3000CFFE10BD10B50446FFF7B0FE7820FFF7BA
:102B400083FE4020FFF780FE2046FFF77DFEFFF763
:102B5000BFFE10BD0FB470B588B004460D461C21F1
:102B600001A8FDF799FB0FA8009001A8009A0E9903
:102B7000FDF780FB06460020009001AA294620466A
:102B8000FFF7B4FF304608B070BC5DF814FB704727
:102B900029B1064AD2690243044BDA6104E0034AD0
:102BA000D2698243014BDA61704700000010024095
:102BB00029B1064A12690243044B1A6104E0034A30
:102BC00012698243014B1A617047000000100240F5
:102BD00029B1064A92690243044B9A6104E0034A10
:102BE00092698243014B9A617047000000100240D5
:102BF00029B1064AD2680243044BDA6004E0034A72
:102C0000D2688243014BDA60704700000010024036
:102C100030B500210022002400232D4D6D6805F001
:102C20000C0121B1042905D0082923D105E0294D43
:102C3000056022E0274D05601FE0254D6D6805F415
:102C40007012234D6D6805F48034022505EB924225
:102C50001CB9214D554305600BE01D4D6D6805F411
:102C600000351DB11C4D5543056002E0194D55431B
:102C7000056002E0174D056000BF00BF144D6D6890
:102C800005F0F0010909154D6B5C0568DD404560F4
:102C90000F4D6D6805F4E061090A104D6B5C4568E5
:102CA000DD4085600A4D6D6805F46051C90A0B4D21
:102CB0006B5C4568DD40C560054D6D6805F44041BD
:102CC000890B074D6B5CC568B5FBF3F5056130BD3D
:102CD0000010024000127A0000093D0000000020B0
:102CE0001000002010B5002202211348FFF77CF8E5
:102CF000052212492A20FFF7F1FC01212120FFF7CC
:102D0000D5FC01212220FFF7D1FC28212520FFF747
:102D1000CDFC08213120FFF7C9FC07212620FFF751
:102D2000C5FC0F212020FFF7C1FC0122022102482F
:102D3000FFF75AF810BD00000008014019000020FC
:102D400008B501210920FFF743FF01211248FEF7D2
:102D5000FFFF10208DF803004FF47040ADF8000025
:102D600003208DF8020069460C48FEF766FF4FF419
:102D700000510A48FFF734F84FF480510748FFF735
:102D80002FF84FF480410548FFF72AF84FF400412F
:102D90000248FFF725F808BD00023000000C014092
:102DA00070B504460D46042C0FD12A46C1021948BD
:102DB000FFF71AF82A46A1021648FFF715F82A4627
:102DC00021031448FFF710F823E0012C09D1052056
:102DD000FFF760FB28B12A4661030E48FFF704F8AD
:102DE00017E0022C09D10620FFF754FB28B12A4630
:102DF000E1020848FEF7F8FF0BE0032C09D1072099
:102E0000FFF748FB28B12A464FF480410148FEF7FE
:102E1000EBFF70BD000C01400148B0F900007047A5
:102E2000340000200148B0F900007047360000204F
:102E300010B500210E4801F0EDF800210D4801F019
:102E4000E9F80D490A4801F0E5F80B49094801F095
:102E5000E1F80A20FEF7BBFE0849054801F0DAF860
:102E60000649044801F0D6F80A20FEF7B0FE10BD6E
:102E700000480040004400402307001CC6C4000274
:102E800070B504460D4622460621044801F09CF820
:102E90002A460621024801F097F870BD004800401C
:102EA000004400402DE9F0470746884615461E4677
:102EB000089CB8F10A0F4BD2DFE808F04A09121B50
:102EC0002327313C4505002000F098F840E00A2017
:102ED00094FBF0F00FFA80F9484600F08FF837E0E5
:102EE000A146E11704EB9171891008B200F086F851
:102EF0002EE0A14604EBD971491008B200F07EF82B
:102F000026E0204600F07AF822E060420A2190FB99
:102F1000F1F00FFA80F9484600F070F818E0C4F1BB
:102F200000094FEAE97109EB9171891008B200F0CC
:102F300065F80DE0C4F1000909EBD971491008B238
:102F400000F05CF804E0604200B200F057F800BF07
:102F500000BF0120287030700A2F4CD2DFE807F044
:102F60004B0506111C2627323D4744E00A2094FBFE
:102F7000F0F00FFA80F9484600F040F8FF20287082
:102F800039E0A146E11704EB9171891008B200F015
:102F900035F8FF2028702EE0A14604EBD9714910C6
:102FA00008B200F02BF8FF20287024E023E00A206C
:102FB00094FBF0F00FFA80F9484600F01FF8FF206C
:102FC000307018E0A146E11704EB9171891008B246
:102FD00000F014F8FF2030700DE0A14604EBD97129
:102FE000491008B200F00AF8FF20307003E000201A
:102FF00000F004F800BF00BFBDE8F0870249088078
:10300000024908807047000034000020360000208C
:1030100021B1028842F04002028004E002884FF6AB
:10302000BF731A40028070470246002013890B408C
:103030000BB1012000E000207047014688897047ED
:103040008181704710B50022028802F441520B883A
:103050004C8823438C882343CC8823430C89234307
:103060004C8923438C892343CC8923431A43028010
:10307000838B4FF2FF74234083830B8A038210BD3E
:1030800010B504464FF48050174908600AE016490D
:103090000868411E144A116020B9002000F028F889
:1030A000C0B210BD02211148FFF7BEFF0028EED0CC
:1030B00021460E48FFF7C4FF0AE00B490868411E8D
:1030C000094A116020B9012000F012F8C0B2E8E707
:1030D00001210648FFF7A8FF0028EED00348FFF7BC
:1030E000ACFFC0B2DDE7000030000020003001403E
:1030F00010B504460123224619460220FFF7D4FCEE
:10310000002010BD704710B500F002F810BD00009F
:103110000CB50020019000903348006840F48030E6
:103120003149086000BF3048006800F4003000906A
:103130000198401C0190009818B90198B0F5A06F53
:10314000F1D12948006800F4003010B1012000904E
:1031500001E0002000900098012843D12348006836
:1031600040F01000214908600846006820F0030084
:1031700008600846006840F0020008601A4840688D
:10318000194948600846406848600846406840F46D
:10319000806048600846406820F47C10486008461B
:1031A000406840F4E81048600846006840F08070CD
:1031B000086000BF0C48006800F000700028F9D0DB
:1031C0000948406820F00300074948600846406805
:1031D00040F00200486000BF0348406800F00C0067
:1031E0000828F9D10CBD0000001002400020024068
:1031F0002DE9F04704460CB314F1640F1FDB642C77
:103200001DDCC4EB0410800000EB8000C40004EB64
:1032100084004000FA2190FBF1F9484601F0B1FC2E
:103220000746094A094B01F025FB054601F07AFCE7
:103230000446600340F6B83190FBF1F400E000244E
:1032400020B2BDE8F08700001F85EB51B81E094091
:1032500070B506460C46154626B101210846FFF713
:103260009FFD03E000210120FFF79AFD24B1012119
:103270000220FFF795FD03E000210220FFF790FDFB
:1032800025B101210320FFF78BFD03E0002103207E
:10329000FFF786FD70BD000008B50220FFF7FAF8C1
:1032A000052841D12148B0F90000214B214A009066
:1032B0002148017821480078FFF7F4FD0120FFF74D
:1032C000E9F8082826D006DC01280BD0022814D003
:1032D000042828D11AE010281DD0202821D0402809
:1032E00021D11FE040F20111154800F093FE40F299
:1032F0000111144800F08EFE15E00021104800F086
:1033000089FE00210F4800F085FE0CE00020FFF749
:1033100075FE08E007E00420FFF7BCF803490880C9
:1033200001E000E000BF00BF08BD00007200002007
:1033300087000020860000207B0000207A0000200B
:10334000004800400044004010B50220FFF7A2F8FA
:10335000042826D10120FFF79DF8082806D0102860
:103360000BD0202810D040281AD113E0FF203A4972
:10337000087001203949087012E0012036490870B0
:10338000FF20364908700BE00120334908703349AB
:10339000087005E0FF20304908703049087000BF10
:1033A00000BF0020FFF776F8012806D002280FD0D2
:1033B00003281ED0042825D112E02948007818B926
:1033C00000210420FFF7ECFC00202649087019E0DA
:1033D00001210420FFF7E4FC01202249087011E0DC
:1033E000214A22492248FEF761FD01201C4908704C
:1033F00008E01D4A1D491E48FEF70CFC0020184934
:10340000087000BF00BF0120FFF744F830B1012869
:1034100008D0022811D004281CD117E00020FFF7A3
:10342000EDFD17E040F20111124800F0F3FD40F20B
:103430000111114800F0EEFD0CE000210D4800F0F4
:10344000E9FD00210C4800F0E5FD03E00020FFF756
:10345000D5FD00BF00BF10BD840000208500002006
:103460007D0000207E000020A8000020A000002099
:1034700098000020004800400044004010B50120A2
:10348000FFF708F8082823D007DC68B101280FD01F
:10349000022818D004281FD116E0102819D020289F
:1034A00018D0402818D116E00020FFF7A7FD13E040
:1034B00040F20111094800F0ADFD40F20111084849
:1034C00000F0A8FD08E007E00020FFF797FD03E00B
:1034D00002E001E000E000BF00BF10BD0048004076
:1034E000004400407047000010B51348006840F0E9
:1034F00001001149086008464068104908400E491B
:103500004860084600680E4908400B4908600846B4
:10351000006820F4802008600846406820F4FE001F
:1035200048604FF41F008860FFF7EDFD4FF000602A
:103530000449086010BD0000001002400000FFF8C0
:10354000FFFFF6FE08ED00E0F0B50C461546002240
:103550000021068C4FF6FE773E400684028B018CDC
:103560004FF60C7632407E1C06EA03162E43324399
:10357000104EB0420ED0104EB0420BD0B0F1804F82
:1035800008D00E4EB04205D00D4EB04202D00D4EC6
:10359000B04206D14FF6FD76314044F0010631438A
:1035A00005E04FF6F576314044F0010631430283E1
:1035B0000184F0BD002C01400034014000040040B3
:1035C00000080040000C0040F0B50C4615460022F3
:1035D00000210026078C4FF6EF7C07EA0C070784D2
:1035E000028B018C4FF6FF7707EA041640F6FF477F
:1035F0003A404FF6FF7707EA03373A434FF6FF7733
:1036000007EA05273A43114FB8420ED0104FB8428F
:103610000BD0B0F1804F08D00E4FB84205D00E4FFE
:10362000B84202D00D4FB84206D14FF6DF7739408D
:1036300046F01007394305E04FF65F77394044F014
:103640001007394302830184F0BD0000002C0140C3
:10365000003401400004004000080040000C00401D
:10366000F0B50C461546002200210026078C4FF6C7
:10367000FF6C07EA0C070784828B018C4FF6FF77FB
:1036800007EA04264FF60C773A404FF6FF7707EA31
:1036900003172F433A43114FB8420ED0104FB84290
:1036A0000BD0B0F1804F08D00E4FB84205D00E4F6E
:1036B000B84202D00D4FB84206D14FF6FF573940FD
:1036C00046F48077394305E04FF2FF57394044F420
:1036D0008077394382830184F0BD0000002C0140D3
:1036E000003401400004004000080040000C00408D
:1036F000F0B50C461546002200210026078C4EF638
:10370000FF7C07EA0C070784828B018C4FF6FF775A
:1037100007EA043640F6FF473A404FF6FF7707EADC
:1037200005273A434FF6FF7707EA03373A43114F2D
:10373000B8420ED0104FB8420BD0B0F1804F08D035
:103740000E4FB84205D00E4FB84202D00D4FB842CE
:1037500006D14DF6FF77394046F48057394305E0EE
:1037600047F6FF57394044F4805739438283018438
:10377000F0BD0000002C0140003401400004004076
:1037800000080040000C004010B50121880700F03F
:1037900002FB012868D137488068401C35498860A1
:1037A00008468068B0F5FA7F03D3012032490870DB
:1037B00002E00020304908702E480068401C2D4966
:1037C000086008460068642816D3002008602B486B
:1037D000007800F00700042805DA28480078401C2B
:1037E0002649087002E00120244908702348007827
:1037F00040F00800214908702148006820B12048A5
:103800000068401E1E4908601E48006820B11D481F
:103810000068401E1B4908601B48006820B11A4818
:103820000068401E184908601848006820B1174811
:103830000068401E154908601248406820B11148D0
:103840004068401E0F4948600F48406820B10E484C
:103850004068401E0C4948600C48406820B10B4845
:103860004068401E094948600121880700F083F93B
:1038700010BD0000D4000020790000207700002057
:1038800090000020940000209C000020A400002054
:103890001FB501210846FFF77BF94FF47A70ADF8A8
:1038A00008004720ADF804000020ADF80A00ADF88C
:1038B000060001A94FF0804000F034FB1C208DF879
:1038C000000002208DF801008DF8020001208DF823
:1038D00003006846FEF738FF0121880700F048F929
:1038E00001221146900700F0B5FA0121880700F087
:1038F00045F91FBD10B50121624800F04CFA0128BE
:1039000023D161480078012804D160480068401C38
:103910005E4908605E480078012804D15B48406831
:10392000401C5A4948605B480078012804D1574838
:103930008068401C5549886057480078012804D1A8
:103940005248C068401C5149C86002214D4800F0EF
:1039500022FA00B34C48007888B901204A4908701F
:1039600000204A4908600021464800F0ACFA0020D7
:103970004A4908600221434800F075FA0BE0002034
:10398000414908703F4800F0F9F9444908600021B6
:103990003C4800F068FA04213A4800F0FCF900B312
:1039A0003B48007888B90120394908700020374920
:1039B00048600021334800F086FA0020384908604A
:1039C0000221304800F058FA0BE00020304908701E
:1039D0002C4800F0D6F9324908600021294800F04F
:1039E0004BFA0821274800F0D6F900B3294800789F
:1039F00088B90120274908700020244988600021E7
:103A0000204800F060FA00202649086002211D4885
:103A100000F03FFA0BE000201E490870194800F042
:103A2000B3F9204908600021164800F032FA10214D
:103A3000144800F0B0F900B31748007888B90120A5
:103A40001549087000201149C86000210D4800F098
:103A50003AFA00201449086002210A4800F026FAC8
:103A60000BE000200C490870064800F090F90E4960
:103A700008600021034800F019FA1F21014800F0F6
:103A80007AF810BD0008004038000020C400002073
:103A9000390000203A0000203B0000203C000020BC
:103AA00040000020440000204800002000B587B0FE
:103AB00001210420FFF76CF82C4800F06BF84FF65A
:103AC000FE70ADF814004720ADF810000020ADF8EE
:103AD0001600ADF8120004A9244800F023FA0020D3
:103AE000ADF80400ADF80C00ADF80600ADF80A0022
:103AF0000120ADF8080001A91C4800F055F9042088
:103B0000ADF8040001A9194800F04EF90820ADF8FD
:103B1000040001A9154800F047F90C20ADF8040095
:103B200001A9124800F040F94FF4A060FEF744FEEE
:103B30001E208DF8000002208DF8010000208DF875
:103B4000020001208DF803006846FEF7FDFD1F21ED
:103B5000064800F00DF801221F21044800F07AF910
:103B60000121024800F00AF807B000BD000800403B
:103B7000CA4302827047CA430282704721B1028859
:103B800042F00102028004E002884FF6FE731A4000
:103B90000280704710B504466848844208D101216C
:103BA000C014FFF725F80021E014FFF721F8C4E066
:103BB000B4F1804F08D101210846FEF7F9FF00213A
:103BC0000120FEF7F5FFB8E05D48844208D10121ED
:103BD0000220FEF7EDFF00210220FEF7E9FFACE036
:103BE0005848844208D101210420FEF7E1FF00215A
:103BF0000420FEF7DDFFA0E05348844208D10121F4
:103C00000820FEF7D5FF00210820FEF7D1FF94E041
:103C10004E48844208D101211020FEF7C9FF00213F
:103C20001020FEF7C5FF88E04948844208D10121F1
:103C30002020FEF7BDFF00212020FEF7B9FF7CE029
:103C40004448844208D101214014FEF7D1FF0021ED
:103C50006014FEF7CDFF70E03F48844209D1012196
:103C6000C804FEF7C5FF00214FF40020FEF7C0FF97
:103C700063E03A48844209D101210805FEF7B8FF04
:103C800000214FF48010FEF7B3FF56E03448844221
:103C900009D101214805FEF7ABFF00214FF40010C8
:103CA000FEF7A6FF49E02F48844208D101214020B9
:103CB000FEF77EFF00214020FEF77AFF3DE02A4814
:103CC000844208D101218020FEF772FF002180206C
:103CD000FEF76EFF31E02548844208D101218015AE
:103CE000FEF766FF0021A015FEF762FF25E02048E1
:103CF000844209D101210804FEF77AFF00214FF424
:103D00008030FEF775FF18E01A48844209D101217E
:103D10004804FEF76DFF00214FF40030FEF768FF06
:103D20000BE01548844208D101218804FEF760FFAA
:103D300000214FF48020FEF75BFF10BD002C0140F6
:103D40000004004000080040000C0040001000404B
:103D50000014004000340140004C0140005001407C
:103D60000054014000180040001C004000200040AA
:103D70000040014000440140004801400146888E57
:103D800070470146088F70470146888F704701468B
:103D9000B1F84000704702460020138A0B400BB177
:103DA000012000E00020704770B505460C4624480D
:103DB00085420ED0234885420BD0B5F1804F08D004
:103DC0002148854205D02148854202D020488542BD
:103DD00000D100E000BF208850B92389A288618803
:103DE0002846FFF7B1FBE188284600F06EF825E091
:103DF000208804280AD12389A28861882846FFF7F1
:103E0000E3FBE188284600F069F817E020880828DD
:103E10000AD12389A28861882846FFF721FCE1881E
:103E2000284600F068F809E02389A28861882846BE
:103E3000FFF75EFCE188284600F066F870BD0000E0
:103E4000002C014000340140000400400008004004
:103E5000000C00401AB183890B43838102E08389FF
:103E60008B43838170470A460021018C4FF6FD7316
:103E700019401143018470470A460021018C4FF616
:103E8000DF7319404FF6FF7303EA021319430184ED
:103E900070470A460021018C4FF6FF5319404FF638
:103EA000FF7303EA02231943018470470A46002185
:103EB000018C4DF6FF7319404FF6FF7303EA02338E
:103EC00019430184704781847047028B4FF6F37366
:103ED0001A400283028B0A4302837047028B4FF21F
:103EE000FF331A400283028B4FF6FF7303EA01236C
:103EF0001A4302837047828B4FF6F3731A40828312
:103F0000828B0A4382837047828B4FF2FF331A40C1
:103F10008283828B4FF6FF7303EA01231A43828365
:103F200070470000002202881D4B98420ED01D4BA6
:103F300098420BD0B0F1804F08D01B4B984205D06F
:103F40001A4B984202D01A4B984204D14FF68F7305
:103F50001A404B881A43174B984207D0164B984289
:103F600004D04FF6FF431A40CB881A4302808B8857
:103F700083850B8803850A4B98420BD0094B9842E6
:103F800008D00E4B984205D00D4B984202D00D4BF5
:103F9000984201D10B7A0386012383827047000087
:103FA000002C0140003401400004004000080040A3
:103FB000000C004000100040001400400040014090
:103FC00000440140004801402DE9F84307460C46F3
:103FD00015468DF80040280A40B28DF8010068B2FD
:103FE0008DF802009DF9010020449DF9021000EBBC
:103FF00001084FFA88F08DF80300002606E01DF94D
:104000000610384600F07BFA701C46B2042EF6DB30
:10401000BDE8F883F8B506460C46200E8DF8000082
:10402000200C8DF80100200A8DF80200E0B28DF816
:104030000300002507E01DF8050041B2304600F0FE
:104040005EFA681CC5B2042DF5DBF8BD00B587B07B
:1040500001210420FEF7BCFD01218803FEF7B8FD15
:1040600018208DF81B004FF40070ADF818000320E5
:104070008DF81A0006A92148FDF7DFFD04208DF810
:104080001B000002ADF8180003208DF81A0006A9E5
:104090001A48FDF7D2FD4FF4165002900020ADF8FB
:1040A00014000C20ADF812000020ADF81000ADF89F
:1040B0000E00ADF80C0002A9114800F0A9F94FF468
:1040C000A060FEF779FB25208DF8040001208DF813
:1040D000070002208DF805008DF8060001A8FEF704
:1040E00033FB012240F22551054800F06CF9012113
:1040F000034800F0C4F807B000BD0000000801400C
:10410000003801402DE9F04104460D4616460020D6
:10411000364908706121364800F0EBF9002701E0CC
:10412000781CC7B20C2FFBDB32484078302807DB05
:1041300030488078302803DB2E48C078302802DAF7
:104140000020207010E02B4840783038642148432C
:1041500028498978303901EB810100EB410125487C
:10416000C07830380844207022484079302807DB76
:1041700020488079302803DB1E48C079302802DAD5
:104180000020287010E01B484079303864214843F3
:1041900018498979303901EB810100EB410115485B
:1041A000C0793038084428701248407A302807DB3C
:1041B0001048807A302803DB0E48C07A302802DAB3
:1041C0000020307010E00B48407A303864214843BA
:1041D0000849897A303901EB810100EB410105483A
:1041E000C07A303808443070BDE8F08116000020F5
:1041F00000380140B400002010B52021144800F020
:10420000D5F801281ED1124800F06EF91149088036
:1042100008460178104802780078401C0E4B187050
:104220000E488154184600780D2804DD00201946F8
:1042300008700A49087300BF8021054800F0B6F8ED
:104240000128F9D12021024800F00AF810BD000031
:10425000003801401400002016000020B4000020A7
:1042600010B50022002340F66A14A14200D100BF1D
:104270000A1201249440A3B2DC43048010BD21B192
:10428000828942F40052828104E082894DF6FF73F4
:104290001A4082817047000000B58BB001210420D4
:1042A000FEF796FC01214804FEF772FC0420ADF8ED
:1042B000280018208DF82B0003208DF82A000AA969
:1042C0003648FDF7BAFC0820ADF8280004208DF828
:1042D0002B000AA93148FDF7B0FC4FF4614006906D
:1042E0000020ADF81C00ADF81E00ADF82000ADF8C0
:1042F00024000C20ADF8220006A9294800F088F817
:10430000FEF70EFA012240F22551254800F05BF835
:1043100001212348FFF7B3FF01210820FEF758FCD5
:1043200001218804FEF734FC4FF48060ADF81400DE
:1043300018208DF8170003208DF8160005A91948DC
:10434000FDF77BFC4FF40060ADF8140004208DF8FD
:10435000170005A91348FDF770FC4FF46140019068
:104360000020ADF80800ADF80A00ADF80C00ADF87B
:1043700010000C20ADF80E0001A90B4800F048F821
:10438000FEF7CEF9012240F22551074800F01BF854
:1043900001210548FFF773FF0BB000BD0008014085
:1043A00000440040000C014000480040024600204C
:1043B000B1F5007F00D100BF13880B400BB1012085
:1043C00000E000207047F0B50346002400260025D9
:1043D000002040F66A17B94200D100BF1846C1F369
:1043E000421401F01F06012707FA06F5012C01D13E
:1043F0000C3004E0022C01D1103000E014301AB16E
:1044000007682F43076002E00768AF430760F0BD0D
:104410002DE9F04786B005460E460024A24600BFAF
:10442000A1460027B08900B100BF2F462C8A4CF668
:10443000FF700440F08804432C82AC894EF6F310E0
:104440000440B08831890843718908430443AC8132
:10445000AC8A4FF6FF400440B0890443AC8201A807
:10446000FEF7D6FB1F48874202D1DDF810A001E01D
:10447000DDF80CA0A88900F4004040B10AEBCA00A6
:1044800000EB0A1031684900B0FBF1F807E00AEBD5
:10449000CA0000EB0A1031688900B0FBF1F8642013
:1044A000B8FBF0F004012009642101FB1089A88900
:1044B00000F4004040B1322000EBC900B0FBF1F045
:1044C00000F00700044308E0322000EB09106421EB
:1044D000B0FBF1F000F00F0004432C8106B0BDE802
:1044E000F08700000038014001468888C0F30800CA
:1044F0007047C1F308028280704700BFFEE770B5C5
:1045000005460C46A1B22846FFF7F3FF01E0FDF790
:10451000E9FE80212846FFF749FF0028F7D070BD4B
:1045200010B53F48FDF766FC3E48007858B93E4854
:10453000007840B93D4B1A683D4B19683D4B1868EF
:10454000FEF786FE0EE03748007801280AD136488B
:10455000007838B9354B5A68354B5968354B58682F
:10456000FEF776FE3348406840B93148406828B9C4
:104570002E48406810B900202A4908702E48FDF7DF
:10458000DBFEFEF76BF82D4908700720FEF72CF8CC
:1045900004460223224601210420FEF75BFA012093
:1045A000FEF722F804460223224604210846FEF7BD
:1045B00051FA0220FEF718F804460223224607218A
:1045C0000420FEF747FA0A20FEF70EF804460223FD
:1045D00022460A210420FEF73DFA1720FEF704F8D0
:1045E0000446022322460D210420FEF733FA002060
:1045F000FDF750FF48B10020FDF74CFF04460223B1
:10460000224601210846FEF725FA0C48007810B131
:1046100000200A4908700A48FDF796FA10BD00000C
:10462000900000207D0000207E000020A4000020DB
:104630009C000020940000207700002076000020DD
:104640007C000020490050EAC12018BF04204A0D18
:1046500018BF40F0010040F2FF72B2EB515F08BF9B
:1046600040F00200012808BF0520704730380A28B2
:1046700001D201207047002070470000FDF706FEC0
:1046800071E00223384802780F210120FEF7E2F999
:1046900036480423012142680220FEF705FA344817
:1046A0000423062142680220FEF7FEF93148042364
:1046B0000B2142680220FEF7F7F902232E48027808
:1046C0000A210120FEF7F0F902232C4802780C2180
:1046D0000120FEF7E9F9FFF723FF294800780128B8
:1046E00004D0022805D0032809D105E0FEF7C6FE54
:1046F00005E0FEF729FE02E0FEF7CEFD00BF00BF99
:10470000FDF7EAFB1F480078012802D10020FEF7E0
:1047100075FCFEF781FB0446FEF76AFD1A4991F924
:1047200000101A4A92F900205143484300B2184938
:104730000880FEF777FB0446FEF75AFD154991F90C
:104740000010154A92F900205143484300B2134922
:1047500008800846B0F900100D48B0F90000FEF7D7
:104760008FFBFDF7B5FD8CE77C0000209400002056
:104770009C000020A40000207D0000207E0000207E
:104780008C0000208900002086000020840000208A
:10479000820000208700002085000020800000208B
:1047A00010B500290AD00878002807D005487844B9
:1047B000FCF7B8FD002801D0002010BD0248784465
:1047C00010BD0000BA100000B210000010B50029A2
:1047D0000AD00878002807D005487844FCF7A2FDE5
:1047E000002801D0002010BD0248784410BD000010
:1047F000AA100000A210000021F00042A2F16052B5
:10480000B2F5801F01F0004328BFD2F17F6C0BD9B5
:104810005FEA001C43EAC20242EB507018BF7047C7
:1048200028BF20F001007047B2F5801FBCBF1846BA
:1048300070474FEA410C1CF5001F02D2084600F0F9
:104840000EBC70B500F09AFA00000089FFF7F6BFC1
:104850004FF00040A0F580007047491058BFC1F1EB
:1048600040415B1058BFC3F140438B42EFF30080DF
:10487000704700002DE9C04130B4DFF8A0C23CEA27
:10488000111418BF3CEA131400F0EC8081EA030510
:104890001CEA111444EAD57418BF1CEA131500F081
:1048A000C780A4EB05044FF0004545EAC12145EA65
:1048B000C32341EA505143EA525304F17F749942B1
:1048C00004F500344FEAC0204FEAC22208BF9042EC
:1048D00000F09C804FEA13650FF24016765D4FEAB8
:1048E000134506FB05F7C7F1807706FB07F74FEA8C
:1048F000D737A7FB03687642C8F58038A7FB06CEFA
:1049000038BFA8F1010807FB08E64FF0000EA6FB30
:10491000028CE6FB03CEDCF1000CCEF1004E38BF7A
:10492000AEF1010EA6FB0C584FF000074FF000054A
:10493000E6FB0E87A1FB08C6A0FB07CE16EB0E0612
:1049400045F10005E1FB076515F1E04E7EBFA4F5DA
:1049500080345FEA46066D4116F1800745F1000597
:104960004FEA17274FEA066647EA0567A6F1DE46D3
:10497000B6F1805F4FEA15251FD9384624F0010CA7
:1049800005EBC471BCF1FE6F01EB0C1102D8F0BC59
:10499000BDE8008124425CBF01F5801E9EEAC47F11
:1049A00002D4F0BCBDE80081244238D4F0BCA1F1AF
:1049B000C041BDE8004100F02FBA4FEAD22242EADE
:1049C00043524FEAD323A7FB02864FEAD02040EAA6
:1049D000415007FB03661EEA0E0F4FEAD12105FB8B
:1049E000026658BFA6EB0056B6EB00564FEA520ED1
:1049F0004EEAC37E18EB0E0E56EB530EBDD518EBE8
:104A000002085E417F1C55F10005B6E74FF48015A2
:104A10004FF000074FF000064FF00008ADE7F0BC84
:104A20004FF0000001F1C04101F00041BDE80081FC
:104A300011EA0C1F0CEA131500D00CE013EA0C1F4E
:104A400000F025804FF00000F0BC81EA030101F086
:104A50000041BDE80081F0BCBDE8004181EA0301EE
:104A600000F0DAB9F0BCBDE8004170B500F086F99D
:104A7000097EFC3E00F007B881EA03014FF0000018
:104A800001F00041704781EA030100F0C5B9F0BCB4
:104A9000BDE800414FF0000021497047FFFDFBF9E0
:104AA000F7F5F4F2F0EEEDEBE9E8E6E4E3E1E0DE61
:104AB000DDDBDAD8D7D5D4D3D1D0CFCDCCCBCAC8D3
:104AC000C7C6C5C4C2C1C0BFBEBDBCBBBAB9B8B7FA
:104AD000B6B5B4B3B2B1B0AFAEADACABAAA9A8A8ED
:104AE000A7A6A5A4A3A3A2A1A09F9F9E9D9C9C9BBB
:104AF0009A99999897979695959493939291919066
:104B00008F8F8E8E8D8C8C8B8B8A898988888787F6
:104B10008685858484838382828181800000FF076B
:104B20000000F87F4FEA41034FEA5353A3F5806337
:104B3000D3F11E03C8BFD3F1210C0CDD4FF00042AE
:104B400042EAC12242EA505232FA03FC8CEAE17C8A
:104B5000ACEBE1707047102BC4BF0020704703F529
:104B6000787CBCF1FF3F04D06FF0004282EA210064
:104B7000704770B500F002F9499224800020704718
:104B8000F2E710F0004248BF4042B0FA80F310FA5A
:104B900003F10AD0C3F11D0303F580634FEA4150CE
:104BA00002EB035202EBD12170474FF00000704737
:104BB00051EA030C17D41CF5801F58BFBCF5801FA9
:104BC00000F10680994218BF704708BF90427047B5
:104BD00007D711F5801F58BF13F5801F19D49942CC
:104BE0007047894270471CF5801F08D5BCF5801FAF
:104BF000F7D58B4218BF704708BF824270474FF409
:104C0000001C1CEB410F38BF1CEB430F01D28B4241
:104C1000704770B500F0B2F8922449004FF000518F
:104C20004FF08053FFF719BEDFF848C170B51CEA9A
:104C3000111E1EBF1CEA13159EEA0C0F95EA0C0FFD
:104C400000F06F8081EA030423EA4C134EEAD47E1D
:104C500021EA4C1141F4801143F48013AE44A1FBCE
:104C6000024CA0FB0365AEF17F7E361955EB0C05B7
:104C7000A1FB034C4CF10003A0FB021C16EB0C063D
:104C8000654153F10003094218BF46F0010613F4D1
:104C9000007F0BD14FEA03314FEA0530340341EA7C
:104CA000155140EA16506FF003020AE04FEAC321A3
:104CB0004FEAC520F40241EA555140EA56506FF0E0
:104CC000020202EB2E4201EB025585EACE710AD0B8
:104CD0005FEA440C18BF24F0004450F1000041F199
:104CE000000120EAD47040F2FE7C624500D270BD23
:104CF000A84214BF4FF080444FF04044002E08BF3C
:104D00000024BEF1806FA8BFA1F1C041BDE8704092
:104D100080F282804FF0000001F1C04101F00041BB
:104D200070479EEA0C0F0CEA131518BF95EA0C0F9A
:104D300006D04FF0000081EA030E0EF0004170BD76
:104D400000F01CF88900013E00F007B800F009B837
:104D50004FEA430C5FEA5C5C08D081EA030100F093
:104D60005BB84FEA410C5FEA5C5CF6D14FF00000A3
:104D7000014970470000FF070000F87F0EF1020EA6
:104D80002EF0030E5EF8046B364205D4012A43EB85
:104D9000030515F5001F12D8012841EB010C1CF585
:104DA000001F0CD80ED14FEAD17C15F5001F0CEB7B
:104DB0004C0C0CF1020C08BF4CEBD37C04E04FF020
:104DC000080C01E04FEAD37C0CEB4C0526FA05F603
:104DD00006F00706B6F1040C06D20EEB860CBDE811
:104DE00070404CF0010C6047DFE80CF0090B020248
:104DF0004FF000414FF00000A1F5002170BD1946B1
:104E00001046012851EB010418BFD4F5001484BFEB
:104E1000002001F0004170BD0808A0F500114FEA24
:104E20003101704753EA010C17D41CF5801F58BF9D
:104E3000BCF5801F00F106808B4218BF704708BF89
:104E40008242704707D713F5801F58BF11F5801FA6
:104E500019D48B4270479B4270471CF5801F08D5C0
:104E6000BCF5801FF7D5994218BF704708BF904224
:104E700070474FF4001C1CEB430F38BF1CEB410F75
:104E800001D2994270470FB40CBC03BCFFF7C1BEFE
:104E900043004FEAD30C4FEA3C0C43401FBF40078E
:104EA0000CF1605113F0FE4F70471CF0006F03D1FE
:104EB00000200CF0004170470CF0004343EA5070B2
:104EC00010B540EACC0000F084F800BF000000926A
:104ED0004FEA0001FFF7A0BF4FF000414FF0000084
:104EE000A1F500217047000090EA010F48BF81F052
:104EF000004100F1C080421A3CBF801A89184FEA75
:104F0000D0524FF07F4C1CEA410FA2EBD15318BF97
:104F10009CEA026F00F03B804FF0004C4CEA00200E
:104F20004CEA012121FA03FC10EB0C0C1ED202F119
:104F3000FF325FEA1C2040EBC25038BF70471CF0C4
:104F40007F0F4FEA400C18BFBCF17F4F38BF70474E
:104F5000C3F12003994008BF20F00100BCF17F4F4E
:104F600038BF7047A0F1C04000F079B84FEA3C006C
:104F7000000A40EBC25028BF1CF0FF0F4FEA400C64
:104F8000E6D018BFBCF17F4F38BF7047EAE79CEA14
:104F9000026F05D010EA5C0F08BF00F000407047B8
:104FA00010B500F016F800BF64FBBE3EB0FA80F307
:104FB00010FA03F2C3F19D030AD0D90501EB1220C8
:104FC000530638BF704700F1010008BF20F0010010
:104FD00070470EF1020E2EF0030E5EF8044B2442D1
:104FE00004D44FEA4102B2F17F4F11D84FEA400397
:104FF000B3F17F4F0CD80ED14FEAD07CB2F17F4F86
:105000000CEB4C0C0CF1020C08BF4CEBD17C04E017
:105010004FF0080C01E04FEAD17C0CEB4C0324FA72
:1050200003F404F00704B4F1040C06D20EEB840C74
:10503000BDE810404CF0010C6047DFE80CF00708B9
:1050400002024FF00040A0F5800010BD084642006B
:1050500018BFD2F1807288BF00F0004010BDFF2160
:1050600041EAD050C005704790EA010F48BF81F077
:1050700000413FF540AF421A04D882F00042A0EB55
:10508000020011444FEAD0524FF07F4C1CEA410F0E
:10509000A2EBD15318BF9CEA026F4AD04FF0004CEC
:1050A0004CEA00204CEA012121FA03FCB0EB0C0C85
:1050B0000FD412F0FE0F36D05FEA4C001DD500125F
:1050C00040EBC25038BF70471CF03F0F18BF70470D
:1050D0000BE0A2F101025FEA1C2040EBC25038BF96
:1050E00070471CF07F0F18BF7047C3F12003994031
:1050F00014BF401E20F00100704780084FEA1223C1
:1051000008BF7047B0FA80FCA2EB0C02CCF1280C6F
:1051100060FA0CF093EA122F04BF00EBC250704704
:105120004FEAC3707047130A5FEADC1008BF70478C
:10513000F6E79CEA026F04D010EA5C0F08BF00207B
:10514000704710B5FFF745FF40DFF63E81F00040A5
:105150007047FBF7F4BCFBF729BE0000000000001D
:1051600000000000000000000000000000F8000047
:105170000000000000333000000000100C06100C8E
:105180000600000000000000000040C07840C07829
:105190004000043F04043F040400007088FC083011
:1051A0000000001820FF211E0000F008F000E018A9
:1051B000000000211C031E211E0000F00888700062
:1051C00000001E2123241927211010160E000000B4
:1051D00000000000000000000000000000E01804D3
:1051E0000200000000071820400000020418E00040
:1051F00000000040201807000000404080F0804080
:1052000040000202010F01020200000000F0000055
:1052100000000101011F0101010000000000000069
:10522000000080B0700000000000000000000000DE
:105230000000000101010101010100000000000067
:10524000000000303000000000000000000080601E
:105250001804006018060100000000E010080810A3
:10526000E000000F102020100F00001010F80000C8
:1052700000000020203F202000000070080808885F
:10528000700000302824222130000030088888482F
:1052900030000018202020110E000000C02010F85F
:1052A000000000070424243F240000F80888880830
:1052B00008000019212020110E0000E01088881835
:1052C0000000000F112020110E0000380808C83817
:1052D00008000000003F00000000007088080888F7
:1052E0007000001C222121221C0000E01008081080
:1052F000E0000000312222110F00000000C0C000B9
:1053000000000000003030000000000000800000BD
:1053100000000000806000000000000080402010BD
:1053200008000001020408102000404040404040B6
:105330004000040404040404040000081020408019
:10534000000000201008040201000070480808084E
:10535000F0000000003036010000C030C828E8101E
:10536000E0000718272423140B000000C038E000D9
:105370000000203C23020227382008F88888887023
:105380000000203F202020110E00C030080808082F
:105390003800071820202010080008F80808081016
:1053A000E000203F202020100F0008F88888E8083F
:1053B0001000203F20202320180008F88888E808E3
:1053C0001000203F200003000000C030080808380B
:1053D000000007182020221E020008F8080000081C
:1053E000F808203F210101213F20000808F80808A3
:1053F00000000020203F2020000000000808F808DE
:105400000800C08080807F00000008F888C028184D
:105410000800203F20012638200008F8080000007E
:105420000000203F20202020300008F8F800F8F885
:105430000800203F003F003F200008F830C000086F
:10544000F808203F200007183F00E0100808081067
:10545000E0000F10202020100F0008F808080808AE
:10546000F000203F210101010000E01008080810B1
:10547000E0000F18242438504F0008F888888888E6
:105480007000203F2000030C3020007088080808BE
:1054900038000038202121221C00180808F80808CC
:1054A00018000000203F2000000008F80800000855
:1054B000F808001F202020201F000878880000C85E
:1054C0003808000007380E010000F80800F800084E
:1054D000F800033C0700073C030008186880806858
:1054E000180820302C03032C30200838C800C83896
:1054F00008000000203F2000000010080808C838FD
:1055000008002038262120201800000000FE02029A
:1055100002000000007F40404000000C30C000004E
:105520000000000000010638C00000020202FE0078
:105530000000004040407F00000000000402020222
:105540000400000000000000000000000000000057
:105550000000808080808080808000020204000043
:10556000000000000000000000000000808080803B
:1055700000000019242222223F2008F80080800029
:105580000000003F112020110E00000000808080EC
:105590000000000E112020201100000000808088F3
:1055A000F800000E112020103F2000008080808035
:1055B0000000001F222222221300008080F0888831
:1055C00088180020203F202000000000808080807C
:1055D0008000006B94949493600008F800808080B1
:1055E0000000203F210000203F200080989800000C
:1055F00000000020203F202000000000008098983C
:10560000000000C08080807F000008F800008080DB
:105610008000203F24022D302000000808F8000000
:1056200000000020203F20200000808080808080BB
:105630008000203F20003F20003F8080008080804D
:105640000000203F210000203F200000808080805B
:105650000000001F202020201F008080008080008C
:10566000000080FFA12020110E000000008080803B
:105670008000000E112020A0FF80808080008080AC
:10568000800020203F2120000100000080808080D9
:1056900080000033242424241900008080E08080CE
:1056A00000000000001F202000008080000000801B
:1056B0008000001F202020103F208080800000807C
:1056C000808000010E30080601008080008000808C
:1056D00080800F300C030C300F0000808000808031
:1056E00080000020312E0E3120008080800000805C
:1056F000808080818E70180601000080808080800C
:1057000080000021302C2221300000000000807C2D
:10571000020200000000003F404000000000FF00C7
:10572000000000000000FF0000000002027C80007A
:1057300000000040403F000000000006010102029E
:105740000404000000000000000000000000000051
:1057500000000000303132333435363738394142B9
:1057600043444546403058003031323334353637C3
:10577000383961626364656640307800040000086F
:105780000000000000000002000100001030313273
:105790003334353637383961626364656678700052
:1057A0003031323334353637383941424344454657
:1057B0005850000002400000000000A0000000005F
:1057C00005400000000000C8000000000C40000080
:1057D0000000409C00000000194000000020BCBEFA
:1057E0000000000034400000BFC91B8E0000000410
:1057F000B5400000504BCFD06607E2CF010000005B
:105800006C4100003E8251AADFEEA7340100000087
:10581000D9420000DCB5A0E23A301F97FFFFFFFF3E
:10582000B4450000FD25A0C8E9A3C14FFFFFFFFF5D
:10583000FF3F00000000008000000000FF3F00006C
:1058400000000080000000009459000800000020C3
:10585000B400000028010008485A0008B4000020E5
:105860008C060000440100081C00000043000000FA
:10587000F8FFFFFF0C0000000E0000000F0000000A
:105880002E0000001001000043000000F8FFFFFFA1
:105890000040404040404040404041414141414043
:1058A00040404040404040404040404040404040F8
:1058B0004005020202020202020202020202020287
:1058C000022020202020202020202002020202028C
:1058D00002029090909090901010101010101010E4
:1058E00010101010101010101010101002020202F0
:1058F0000202888888888888080808080808080834
:10590000080808080808080808080808020202022F
:105910004000000000000000000000000000000047
:105920000000000000000000000000000000000077
:105930000000000000000000000000000000000067
:105940000000000000000000000000000000000057
:105950000000000000000000000000000000000047
:105960000000000000000000000000000000000037
:105970000000000000000000000000000000000027
:105980000000000000000000000000000000000017
:1059900000000000000000000102030401020304F3
:1059A000060708090204060800000000003443103E
:1059B00010010000000000000000000000000000D6
:1059C0000000000000A00000000000000000000037
:1059D00000000000000000000000000000000000C7
:1059E00000000000000000000000000000000000B7
:1059F00000000000000000000000000000000000A7
:105A00000000000000001400000000000000000082
:105A1000000000000000000001FF01010100000083
:105A20000100000000000000000000000000000075
:105A30000000000000000000000000000000000066
:085A400000000000000000005E
:04000005080000ED02
:00000001FF
