:020000040800F2
:10000000500700203502000829280008292300088D
:10001000CD260008431B00085B4F000800000000CD
:10002000000000000000000000000000653900082A
:10003000CD1B000800000000272F0008553D0008D8
:100040004F0200084F0200084F0200084F0200084C
:100050004F0200084F0200084F0200084F0200083C
:100060004F0200084F0200084F0200084F0200082C
:100070004F0200084F0200084F0200084F0200081C
:100080004F0200084F0200084F0200084F0200080C
:100090004F0200084F0200084F0200084F020008FC
:1000A0004F0200084F0200084F0200084F020008EC
:1000B000F93F00084F020008794100084F0200088C
:1000C0004F0200084F0200084F0200084F020008CC
:1000D0004F020008594C00084F0200084F02000868
:1000E0004F0200084F0200084F02000800F002F81B
:1000F00000F090F80AA090E8000C82448344AAF132
:100100000107DA4501D100F085F8AFF2090EBAE82F
:100110000F0013F0010F18BFFB1A43F0010318473B
:100120003C6100005C610000103A24BF78C878C1CF
:10013000FAD8520724BF30C830C144BF04680C60ED
:10014000704700000023002400250026103A28BF35
:1001500078C1FBD8520728BF30C148BF0B60704739
:100160006E2900F06181702900F0A382662905F0F4
:10017000FA84652905F0F784672905F0F48461297C
:1001800005F0F38403681B0A28BF41F08001692948
:1001900000F00E81642900F00B81752900F00881C0
:1001A0006F2900F03082782900F06F82E92900F091
:1001B000CB81E42900F0C881F52900F0C581EF2941
:1001C00000F02D82F82900F06E820368DB0928BF59
:1001D00041F08001632900F07187732900F0768770
:1001E000E32900F08187F32900F08687002070471B
:1001F0001FB500F0D3FF04000020002104F0F0FF41
:10020000401C60600020002104F0D4FFE0601FBDAE
:1002100010B510BD00F094FF1146FFF7E9FF04F0A0
:100220003DFF01F071F803B4FFF7F2FF03BC01F0EA
:10023000B9F800000948804709480047FEE7FEE793
:10024000FEE7FEE7FEE7FEE7FEE7FEE7FEE7FEE786
:1002500004480549054A064B70470000593D00080F
:10026000ED0000085001002050070020500300203E
:10027000500300201CB50C46064B7B446946009099
:10028000204600F0EAF804460020694600F0F8F83D
:1002900020461CBD030200004FF0000200B51346CB
:1002A00094469646203922BFA0E80C50A0E80C5096
:1002B000B1F12001BFF4F7AF090728BFA0E80C5047
:1002C00048BF0CC05DF804EB890028BF40F8042B40
:1002D00008BF704748BF20F8022B11F0804F18BFAD
:1002E00000F8012B704770477047704770B504469F
:1002F00085690068C10601D5302600E02026C007C8
:1003000007D070BDD4E9012130469047206A401CD7
:1003100020626D1EF6D570BD70B504468569007803
:10032000C00707D170BDD4E9012120209047206A81
:10033000401C20626D1EF6D570BD09684A0501D5C6
:1003400040B27047C905FCD500B2704709684A053C
:1003500001D5C0B27047C905FCD580B2704770B5F1
:100360000C460546012A05D02878800600D5EA69A2
:10037000002302E0012305E05B1C934202D2E05C13
:100380000028F9D1A869E618C01AA861286A18449B
:1003900028622846FFF7AAFF04E0D5E9012114F8F6
:1003A000010B9047B442F8D32846FFF7B5FF70BD64
:1003B0002DE9F0410646002410687529314616A53E
:1003C00010D0FFF7BAFF002802DA404213A507E079
:1003D00031688A0701D512A502E0490704D511A5A5
:1003E000012401E0FFF7B2FF00210A2206F12407F1
:1003F00009E0B0FBF2FCB0FBF2F302FB1C00303072
:1004000078541846491C0028F3D123462A46304622
:10041000BDE8F04100F061BA000000002D000000CE
:100420002B0000002000000011680268006A5305DC
:1004300001D508700AE0D30501D5088006E013064F
:1004400003D5C217C1E9000200E00860012070472F
:1004500001694A1C02610878704700B58FB0CDE988
:1004600001310021059105497944CDE90310114678
:10047000684600F029F90FB000BD0000E5FFFFFF5E
:100480000A6802F8010B0A60704700002DE9FF5F5F
:1004900015468A460446DFF8AC80F8440027D8E9C0
:1004A00000103E46CDE9001010E03AF816106A46FA
:1004B00002A800F025FE411C07D02178890603D54B
:1004C000E269391891420DD80744761C20788006DD
:1004D00002D5E069B84205DDAE42E6DB3AF8160027
:1004E0000028E2D1A069C01BA0612046FFF7FEFEF4
:1004F000D8E90010CDE90010002017E03AF81810F4
:100500006A4602A800F0FCFDB0F1FF3F81460BD027
:1005100000250DF1080B05E0D4E901211BF80500C9
:1005200090476D1C4D45F7D308F10100B04280465D
:10053000E4DB206A384420622046FFF7EDFEBDE888
:10054000FF9F0000C25C00002DE9F0418046D21DF3
:1005500022F007020025D2E90002F52915A614D0E1
:10056000011E72F1000106DA0023D0EB030063EBF9
:10057000020211A608E0D8F800108B0701D50FA6DB
:1005800002E0490701D50EA601251146002408F115
:10059000240704E000F05CF930323A55641C50EA5C
:1005A0000102F7D12B46324621464046BDE8F041D4
:1005B00000F093B9000000002D0000002B000000A7
:1005C0002000000030B4002100F1240408E002F013
:1005D0000705D208303542EA4372DB086554491CEE
:1005E00052EA0305F3D10468002310A2250707D5BA
:1005F000A40600D421B1C46901230DA2641EC46104
:1006000030BC00F06AB910B5044621461068FFF707
:100610009DFE02462046BDE810400023D2E7D21DD1
:1006200022F00701D1E90023CCE700000000000020
:1006300030000000F0B40D460188090502D5214CB8
:100640007C4402E01F4C7C440E34002100F124065F
:1006500008E002F00F071209E75D42EA03721B0986
:100660007754491C52EA0307F3D10278002312079A
:1006700004D5702D06D009B1022311342246F0BCF6
:1006800000F02BB901231034F8E770B504460D468D
:1006900021461068FFF75AFE024629462046BDE86B
:1006A00070400023C6E7D21D22F00703D3E90023E0
:1006B000C0E70368126843F0200303600823C361A6
:1006C0000023B7E7245B00002DE9F05F894604466C
:1006D0004FF0000ADFF874B1FB44C0F820A02046B8
:1006E000E1688847002874D0252806D0D4E9012184
:1006F0009047206A401C2062F1E700265F462046B2
:10070000E16888472028054607DB312D05D2781996
:1007100010F8200C08B10643F1E7B00701D526F028
:100720000406C4F81CA00027C4F818A02A2D09D07C
:10073000284604F0ABFC38B304EB8708303DC8F81A
:10074000185019E059F8041B204604EB8702916108
:10075000E1688847012F054618D1E069002820DAB2
:1007600026F020061DE0D8F8180000EB800005EB0D
:1007700040003038C8F818002046E1688847054630
:1007800004F084FC0028EED1012F0AD02E2D08D1D0
:100790002046E16888477F1C0546022F46F0200668
:1007A000C4DBA069002803DA404246F00106A061DC
:1007B000F00701D026F010066C2D0BD0682D09D063
:1007C0004C2D39D06A2D35D0742D35D07A2D33D0BB
:1007D00016E038E0E1682F4620468847B8420546D3
:1007E00009D16C2F26D04FF48060E1680643204683
:1007F0008847054604E06C2F1AD04FF480700643FA
:100800000DB3A5F14100192802D8203546F4006641
:100810004A462946204626604E46FFF7A1FC80B195
:1008200001280BD0F61D26F0070000F1080956E755
:100830004020E4E78020D8E70020D6E706F104094D
:100840004DE7284652E7206ABDE8F09FB45A000001
:1008500030B5B0F10A024FEA900E71F100034EEA92
:10086000817EB0EB0E0061EB91014FEA101E4EEA63
:10087000017E10EB0E0041EB11114FEA102E4EEAF3
:10088000016E10EB0E0041EB11214FEA104E4EEAC3
:10089000014E10EB0E0041EB1141401841F10001F7
:1008A0004FEAD00040EA41704FEAD10110EB8005D9
:1008B0004FEA810444EA907444EB01046D1944EB5F
:1008C0000404521BA3414FF0000348BF0A3200D575
:1008D00030BD401C41F1000130BD2DE9F0470D460F
:1008E00099469246044600F124080168880604D51A
:1008F000E06921F01001216000E00120A84201DD43
:10090000471B00E00027A1697A1902EB0900081AC9
:10091000A0612078C00602D42046FFF7E7FC00263D
:1009200008E0D4E901211AF806009047206A401C2B
:10093000761C20624E45F4DB2078C0060AD520469E
:10094000FFF7D4FC06E0D4E9012130209047206A6B
:10095000401C2062381EA7F10107F4DC07E0D4E94F
:10096000012118F805009047206A401C2062281ECB
:10097000A5F10105F3DC2046FFF7CEFC2078000648
:1009800002D50220BDE8F0870120FBE770472DE982
:10099000FF4F0C461E464FF0FF378BB0D2E90001E7
:1009A000DDF860800A908A46C1F30A5505B93D46D4
:1009B000002108464FF00000BAF1000F00F440009B
:1009C00005DA00EB80004FF4400101EA50004FEAE5
:1009D0009059B9F1010F00DDB9460A9850EA4A0072
:1009E0000ED044F61050A5F2FF3545432F14B8F150
:1009F000000F1ED07542291E1EDDC9F100021CE049
:100A0000B8F1010F4FF0000001D0302103E0F243B4
:100A100005E02154401CB042FBDB3046002200219F
:100A200021540B99C1F80880C1E900200FB0BDE83E
:100A3000F08FBD1B6D1CDEE74A4600DA694206A84E
:100A400000F0F0FB06AB93E8070003AB83E8070078
:100A500050460A9900F0ADFC8DE80700A0F5005063
:100A60001F3800900398002D0ADD42F21F014A460C
:100A70000844002303A90390684600F016FF09E02C
:100A8000A0F500504A461F38002303A9039068468A
:100A900000F020FF8DE807000004000C03D04FF0A9
:100AA000FF30410800E01046B8F1000F03D00022EB
:100AB000009215461EE0751E05D4FFF7C9FE3032C0
:100AC00062556D1EF9D5B3460122084302D00022BB
:100AD0007F1C04E02078302801D100227F1E002AEC
:100AE000099784D01DE0112D07DAFFF7B1FE3032EF
:100AF00062556D1C50EA0102F5D1084302D00098FE
:100B0000C8B10EE00021681E05E0235C625C6354FE
:100B10002254401E491C8142F7DBAB46A81B401EF5
:100B20000990002004F80B000B98099AC0F808807F
:100B3000C0E9002B7AE711264FF0000857E72DE9AE
:100B4000F04F88460446D21D22F0070191B0D1E94A
:100B50000001CDE90A0104F085FA02460B98C00FA6
:100B600001D02D2007E02068810701D52B2002E06D
:100B7000202101EAC000032A099001D0072A05DBE1
:100B800003464146204600F00DFB0BE1207880062D
:100B900001D5E06900E00620B8F1650F814606D076
:100BA000B8F1660F18D0B8F1670F70D131E00020AE
:100BB000B9F1110F009001DB112301E009F10103EC
:100BC0000AAA01A90CA8FFF7E2FEDDE90C700026D5
:100BD00009F10105834647E001204B4600904FF0A4
:100BE00000470AAA01A90CA8FFF7D1FEDDE90DB064
:100BF0000C995D46002610B909F101000D18B9EBFA
:100C0000050003D4C0F1FF3609F10105A5EB090089
:100C10002BE0B9F1010F01DA4FF001090020B9F121
:100C2000110F0090484601DD112300E003460AAA97
:100C300001A90CA8FFF7ABFEDDE90C704D460026BC
:100C40008346207800070AD4AB4500DA5D4601A848
:100C5000012D04DD411911F8011C302907D04F4541
:100C600002DA17F1040F04DA012082460FE06D1E4C
:100C7000EEE7002F02DCED1B3E4403E0781CA842A7
:100C800000DD7D1CB81B00F1010A4FF00047207801
:100C9000000703D4AA4501DB4FF0FF3A0021B7F16A
:100CA000004F0DF143088DF8431024D002202B2370
:100CB000002F01DA7F422D230A21021EA0F101003C
:100CC00000DC5FB197FBF1FC97FBF1F201FB1C7CB0
:100CD00017460CF1300C08F801CDEEE7A8F1010041
:100CE00003702188090501D5452100E06521A0F1A7
:100CF000010800F8011C09980FA9A1EB0807FF1DC6
:100D000000B10120411901EBEA70A1693844081AC9
:100D1000401EA0612078C00602D42046FFF7E6FA04
:100D2000099828B1D4E901219047206A401C20622B
:100D30002078C00622D52046FFF7D8FA1EE0002E04
:100D400004DBB34502DD01A8805D00E03020D4E97A
:100D500001219047206A401C2062761CAAF1010004
:100D60005FEA000A0AD100F019FAC0680168405C25
:100D7000D4E901219047206A401C2062281EA5F179
:100D80000105DCDC07E0D4E9012118F8010B9047EC
:100D9000206A401C2062381EA7F10107F3DC2046C0
:100DA000FFF7BAFA032011B041E600002DE9F04F39
:100DB00004460D46D21D22F0070089B0D0E9009705
:100DC0004846394604F04EF90246F80F01D02D236B
:100DD00007E02068810701D52B2302E0202101EAEA
:100DE000C0038DF820300BB1012000E00020032A61
:100DF000824601D0072A04DB2946204600F0D2F9BA
:100E00003FE12078800601D40D2500E0E569C7F3B5
:100E10000A560D2D49DA00214FEA175B08464FF0BC
:100E20000000002F00F4400007DA00EB80004FF4D0
:100E3000400100EBD07001EA60008115012901DD5D
:100E40004FF0FF3100224FEA850CBCF1180F06D39A
:100E50001346ACF118004FF08052C24003E04FF44B
:100E6000801323FA0CF30CF10C0CBCF1200F04D30B
:100E7000ACF1200C09FA0CF001E007FA0CF00029A3
:100E80004FF0004801DD18B90FE00ED140450CD3FA
:100E900019EB02095F4121B9404502D19F4329EA7C
:100EA0000209BBEB175F00D0761C2088000502D535
:100EB0007B48784402E07A487844193808AA3023FD
:100EC00002F80A30037C0AF10101002E0AF1020A3D
:100ED00053546A4602DC4FF0300101E04FF031011B
:100EE0004FF001088DF8001002D0A6F2FF3603E0A3
:100EF00059EA470100D06B4E002D02DC217809072A
:100F000004D54FF002082E218DF80110C4460021AF
:100F10000BE0C7F303433F01C35C491C6D1E02F89D
:100F20000830052908F1010801DA002DF1DC002163
:100F30000CE000EB1973491C1B786D1E082902F8A0
:100F400008304FEA091908F1010801DA002DF0DC38
:100F500021688B0602D516E0A8F10108E04505DD01
:100F600002EB080313F8013C302BF5D0B8F1000F69
:100F700009DD02EB080313F8013C2E2B03D109070E
:100F800001D4A8F10108002D05DD3E2102F808106A
:100F90006D1E08F10108407C002E02F8080008F1DF
:100FA000010804DA2D20764202F8080002E02B2026
:100FB00002F808000A214FF47A70864208F101080D
:100FC0000BDB96FBF0F3303302F8083096FBF0F3BE
:100FD00008F1010800FB136601E0642E0CDB6420BD
:100FE00096FBF0F3303302F8083096FBF0F308F18B
:100FF000010800FB136601E00A2E06DB96FBF1F008
:10100000303002F8080008F1010896FBF1F001FB0E
:101010001060303002F80800A16908F1010808EBFF
:10102000050202EB0A00081AA0612078C00602D46B
:101030002046FFF75BF9216A08AE01EB0A00206247
:1010400004E0D4E9012116F8010B9047BAF1010A36
:10105000F7D22078C00602D52046FFF747F96E4642
:1010600009E016F8010B3E280FD0D4E90121904782
:10107000206A401C2062B8F10108F2D22046FFF736
:101080004BF909B00320BDE8F08F206A28442062A4
:1010900003E0D4E90121302090476D1EEBD3F8E73F
:1010A000FE52000002FCFFFF10B5436913B1AFF31D
:1010B000008001E0FFF753F9012010BD127800F124
:1010C00024010A7000224A700122EDE711684FF0F6
:1010D000FF32E9E710B5436913B1AFF3008001E0D7
:1010E000FFF7D4F9012010BD128800F12401828499
:1010F0000022C2840122EDE711684FF0FF32E9E7D8
:1011000070B516460C46054600F040F8036893F8A3
:101110000101012806D0FF2C0FD8185D68B101200D
:101120002C7070BDD3F807013246214603F2071335
:1011300003442846BDE8704018474FF0FF3070BDAB
:10114000754600F0EBF8AE4605006946534620F0C0
:101150000700854618B020B5FFF77AF8BDE82040B3
:101160004FF000064FF000074FF000084FF0000B63
:1011700021F00701AC46ACE8C009ACE8C009ACE816
:10118000C009ACE8C0098D467047000010B500F0FA
:1011900005F8001D10BD00BF494000000048704721
:1011A000100100202DE9F0411F4604460326016886
:1011B000072A01F4006004DB08B116A505E016A5B6
:1011C00003E008B115A500E015A521F0100020608E
:1011D000A069C01EA0610FB1401EA0612046FFF7AC
:1011E00085F84FB1D4E9012138469047206A401C68
:1011F0002062C01C206206E0206AFAE7D4E90121DF
:1012000015F8010B9047761EF8D22046FFF784F8B8
:10121000BDE8F0814E414E006E616E00494E4600C1
:10122000696E66002DE9F047814616468AB035485A
:1012300078440DC88DE80D0032487844801C03AC1A
:101240000DC884E80D0041F69B300844372190FB1F
:10125000F1F290FBF1F5A5F1800501FB12041B3CB6
:1012600002D56442012000E00020DFF898A080460B
:101270000027FA44AAF1BE0A0EE0E0070AD032467F
:10128000684607EB470101230AEB810100F022FBCE
:101290008DE8070064107F1C002CEED1194F7F44AD
:1012A000AE3F19E0E80715D007EB04100DF1180A5E
:1012B00090E80E008AE80E00C068F04201D198194B
:1012C00008903246012306A903A800F003FB03ABF4
:1012D00083E807006D10641C002DE3D14FF001037B
:1012E00032466946B8F1000F03A802D000F0DDFADB
:1012F00001E000F0EFFAC9E90001C9F808200AB0DE
:10130000BDE8F0871050000010B50446AFF3008030
:101310002046BDE81040FEF786BF00000048704739
:10132000F00000204FF0013C50F8042B51F8043B32
:101330009A4221D1A2EB0C03934313EACC1317D1A9
:1013400050F8042B51F8043B9A4215D1A2EB0C0340
:10135000934313EACC130BD150F8042B51F8043B00
:101360009A4209D1A2EB0C03934313EACC13DBD0CE
:101370004FF00000704700BFD01A01BAB1FA81F1F6
:1013800001F0180122FA01F0CB40C1F12001DBB2DB
:10139000C0B2C01A2CFA01F3D11A914311EAC31159
:1013A000E6D1704701491820ABBEFEE726000200D7
:1013B00070475FEA400C08BF91F0000F4FEA8C23A2
:1013C0004FEAC12243EA51514FEA1C5018BF00F5C1
:1013D000F0404FEA300018BF41F000415FEA6C5C1A
:1013E00000F02980BCF1FF3F08BF40F0804070470B
:1013F000130C06BF12044FF0100C4FF0000C130E2C
:1014000004BF12020CF1080C130F04BF12010CF1FF
:10141000040C930F04BF92000CF1020CD30F04BF15
:1014200052000CF1010C11464FF00002A0F11F0018
:10143000A0EB0C00704711F0004F08BF704731F06F
:1014400000413FF4D5AF0B0C06BF09044FF0100C60
:101450004FF0000C0B0E04BF09020CF1080C0B0F2F
:1014600004BF09010CF1040C8B0F04BF89000CF1BF
:10147000020CCB0F04BF49000CF1010CCCF120038E
:10148000A0EB0C0022FA03F302FA0CF241EA03018A
:1014900000F10100704720F07F4C80EA030023F048
:1014A0007F47ACEB070303F57C5300F0004003F1EA
:1014B000FF032DE980494FEA154B09B44FEA144365
:1014C00025EA0B4E24EA03480FF2042606EB132705
:1014D00049083E785FEA320203FB0667C7F500075A
:1014E00007FB06F64FEA54374FEAD64606F10206E6
:1014F00007FB066CCCF1005C4FEA1C472CEA074C5A
:1015000007FB06F40CFB06F504EB15464FEA9616AE
:1015100034BF00204FF000404FEAD13706FB07FCF4
:101520004FEA1C4C0CFB0BF7D21B03FB0CF761EBD7
:1015300007010CFB0EF7B0EB074072EB17420CFBF8
:1015400008F734BFA2EB0742B2EB074261EB174149
:101550004FEA0C444FEA910706FB07FC4FEA1C4C8C
:101560000CFB0BF7B0EBC74072EB573203FB0CF7E9
:1015700034BFA2EBC742B2EBC74261EB57310CFB61
:101580000EF7B0EBC70072EB57720CFB08F734BFD5
:10159000A2EBC702B2EBC70261EB5771039F4FEAA0
:1015A000816141EA921104EBCC044FEAD1374FEA52
:1015B000826206FB07FC42EA90124FEA80604FEA23
:1015C0001C4C0CFB0BF7D21B03FB0CF761EB070168
:1015D0000CFB0EF7B0EB074072EB17420CFB08F761
:1015E00034BFA2EB0742B2EB074261EB17414FEA6F
:1015F0008C554FEA910704EB9C2406FB07FC4FEA4D
:101600001C4C0CFB0BF7B0EBC74072EB573203FBE3
:101610000CF734BFA2EBC742B2EBC74261EB5731C4
:101620000CFB0EF7B0EBC70072EB57720CFB08F720
:1016300034BFA2EBC702B2EBC70261EB577115EBE7
:101640004C254FEA816141EA92114FEA82624FEAEA
:10165000D13742EA901206FB07FC44F100044FEA3E
:1016600080604FEA1C4C0CFB0BF7D21B03FB0CF702
:1016700061EB07010CFB0EF7B0EB074072EB174272
:101680000CFB08F734BFA2EB0742B2EB074261EB59
:10169000174115EB1C154FEA813141EA92414FEA9F
:1016A000823242EA90424FEA80304FEA0C7644F1AF
:1016B000000448EA03434EEA0B484FF0000EB2EB39
:1016C000080C71EB030724BF624639464EEB0E0E41
:1016D0004FF0000B0018524149414BEB0B0BB2EBA2
:1016E000080C71EB03077BF1000B24BF62463946FF
:1016F0004EEB0E0E4FF0000B0018524149414BEBE0
:101700000B0BB2EB080C71EB03077BF1000B24BF52
:10171000624639464EEB0E0E51EA020718BF46F0FC
:10172000010616EB0E7655F1000254F1000103D5C7
:10173000BDE88901BDE80088BDE88901BDE8004831
:10174000B619524141EB0101A3F1010370478080BA
:101750007F7E7D7C7B7A797877767675747372710B
:1017600071706F6E6E6D6C6C6B6A6A6968686766C3
:1017700066656464636362616160605F5F5E5E5D55
:101780005D5C5C5B5B5A5A595958585757565655C9
:1017900055555454535352525251515050504F4F2B
:1017A0004F4E4E4D4D4D4C4C4C4B4B4B4A4A4A497B
:1017B00049494848484747474746464645454544BE
:1017C0004444444343434342424242414141002B4B
:1017D0009C4630D477002BD01CB54FEA370703B4B2
:1017E0004FF010004FF01001BAF1000F06D0BCF11D
:1017F000000FDCBF40F0080040F008014FF000008F
:101800000FBCBDE810400BF1010BBBF1010F08BF8D
:101810005FEA170722BF12F1010211F101014FF037
:10182000004143F1000300F0004043EA000070472C
:10183000F9D35708D0E746EA064613F1400F4FEABE
:1018400016461FDD13F1200FDFBF16430A460021A5
:1018500020335B42BED0C3F1200746EA064602FAB7
:1018600007F74FEA164646EA0706C3F1200722FAB1
:1018700003F201FA07F721FA03F14FF0000342EAFD
:101880000702A7E746EA020646EA06464FEA164678
:1018900046EA0106BCBF46EA0646360C4FF0000396
:1018A0004FF000024FF0000194E72DE9804C9A467A
:1018B000934670B491E8380007C831EA400C48BF3D
:1018C00034EA430C03D5FFF7E6FDFFF780FFF0BCD9
:1018D000BDE8008C2DE9804C9A46934670B491E89F
:1018E000380007C810F0804F08BF13F0804F03D1B5
:1018F00000F005F8FFF76BFFF0BCBDE8008C20F0AE
:101900007F4780EA030023F07F4C07EB0C03A3F52D
:101910007C5300F00040A3F1FE0392F0000F00F0B2
:10192000B38095F0000F00F077802DE901494FEA70
:1019300011404FEA144621EA004800FB06FC24EA65
:10194000064708FB06F607FB08F800FB07F718EB4D
:1019500006484CEB164C4FEA124B18EB07484FEA7F
:1019600015464CEB174022EA0B4E0BFB06FC25EA12
:1019700006470EFB06F607FB0EFE0BFB07F71EEBFA
:10198000064E4CEB164C4FF000061EEB074E4CEB90
:10199000174B18EB0B0840F1000018EB0E0B58EB3F
:1019A000000840F100008F1A4FF000013CBFC9430E
:1019B000661B14BFB5EB040C00213CBFC943F61BEA
:1019C0004FEA17444EEA8E0E27EA04454FEA1C47B9
:1019D00004FB07622CEA074C05FB07F70CFB05F636
:1019E00004FB0CFC16EB074642EB174216EB0C46C9
:1019F00042EB1C421BEB060658EB0202414146EA51
:101A00009E0601D5BDE80189B619524141EB01019D
:101A1000A3F10103BDE801894FEA14454FEA1147DC
:101A200024EA054621EA074C05FB07F406FB07F705
:101A30000CFB06F105FB0CFC11EB074144EB1744D2
:101A40004FEA124711EB0C4144EB1C4422EA074CCD
:101A500005FB07F206FB07F70CFB06F605FB0CFC83
:101A600016EB074642EB174216EB0C4642EB1C45C1
:101A70006A1854F1000148BF7047B619524141EB52
:101A80000101A3F10103704795F0000F37D04FEA31
:101A900011424FEA144721EA024624EA074C02FBAE
:101AA00007F106FB07F70CFB06F402FB0CFC14EB3A
:101AB000074441EB17414FEA154714EB0C4441EB47
:101AC0001C4125EA074C02FB07F506FB07F70CFB58
:101AD00006F602FB0CFC16EB074645EB174516EB2A
:101AE0000C4645EB1C42121951F1000148BF7047EA
:101AF000B619524141EB0101A3F1010370474FEACE
:101B000014454FEA114724EA054621EA074C05FB34
:101B100007F106FB07F70CFB06F24FF0000605FB8A
:101B20000CFC12EB074241EB174112EB0C4251EB5C
:101B30001C4148BF7047921841EB0101A3F101031A
:101B4000704700BFFEE7000010B50446032000F018
:101B50006DFE207017480078000917490870154875
:101B6000007800F00F0015490870154800781549F5
:101B70000870022000F05AFE1149087008460078EB
:101B800010490978884214D00D48007800F002000E
:101B900018B101200C4908700BE00948007800F0EA
:101BA000080018B102200849087002E00320064925
:101BB000087010BD710000206F0000207000002030
:101BC000880000208900002080000020704700B5B8
:101BD000034603E04FF47A7000F005F8181EA3F1F5
:101BE0000103F7D100BD00EBC001C9004FF0E022B6
:101BF0005161002191610521116100BF4FF0E02189
:101C0000096901F480310029F8D004214FF0E02265
:101C1000116170472DE9F04105460E4617461C46F6
:101C20004FF47A7001F004FE10B10120BDE8F0819C
:101C300023783A463146284600F0DEFA09E002F001
:101C4000C9FE08B10120F1E7BA68B168A86801F0DF
:101C50003BFFA86820B1B06810B1B8680028EED189
:101C600000F060F92078401C20704FF4FA7001F009
:101C7000DFFD08B10120D9E740F2DC5001F084FD1E
:101C800008B10120D2E70020D0E710B504464FF498
:101C9000005002F0EBFE30B94FF4807002F0E6FE27
:101CA00008B9012010BD4FF4005002F0DFFE0128FA
:101CB00006D1000202F0DAFE012801D00220F1E78D
:101CC0004FF4005002F0D2FE012807D04FF480708C
:101CD00002F0CCFE012801D10320E3E74FF40050CD
:101CE00002F0C4FE012808D1000202F0BFFE012864
:101CF00003D1022C01DC0420D4E74FF4005002F0A1
:101D0000B5FE012808D1000202F0B0FE012803D17F
:101D1000022C01DD0520C5E70020C3E710B501F066
:101D200065FD4FF4804002F0A1FE01280BD1C003F5
:101D300002F09CFE38B9012002F098FE18B900208C
:101D400000F0B1F859E04FF4804002F08FFE012816
:101D50000BD1C00302F08AFE012806D102F086FEF4
:101D600018B9002000F09FF847E04FF4804002F0DF
:101D70007DFE60B94FF4004002F078FE38B90120D2
:101D800002F074FE012802D100F08DF835E04FF426
:101D9000804002F06BFE60B94FF4004002F066FE36
:101DA000012806D102F062FE012802D100F07BF882
:101DB00023E04FF4804002F059FE58B94FF4004040
:101DC00002F054FE012805D102F050FE10B901F0D6
:101DD00063FC12E04FF4804002F048FE58B94FF423
:101DE000004002F043FE30B9012002F03FFE10B97E
:101DF00001F052FC01E001F04FFC002010BD10B5D5
:101E0000044601F0F3FC40F2DC5001F0BDFC08B1E7
:101E1000012010BD4FF4FA7001F00AFD08B1012055
:101E2000F7E714B1012C34D119E007E002F0D2FD3C
:101E300008B10120EDE7002001F0F0F94FF48040F7
:101E400002F014FE0028F1D14FF4004002F00EFE23
:101E50000128EBD102F00AFE0028E7D119E007E0E3
:101E600002F0B8FD08B10120D3E7012001F0D6F956
:101E70004FF4804002F0FAFD0028F1D14FF4004009
:101E800002F0F4FD0128EBD102F0F0FD0028E7D1CB
:101E900000BF00BF4FF4FA7001F0CAFC08B1012086
:101EA000B7E70020B5E710B5044601F09FFC14B178
:101EB000012C34D119E007E002F08CFD08B10120BB
:101EC00010BD002001F0AAF94FF4804002F0CEFDD1
:101ED0000028F1D14FF4004002F0C8FD0128EBD1F9
:101EE00002F0C4FD0028E7D119E007E002F072FD1E
:101EF00008B10120E4E7012001F090F94FF480409F
:101F000002F0B4FD0028F1D14FF4004002F0AEFD24
:101F10000128EBD102F0AAFD0028E7D100BF00BFE5
:101F20000020CDE710B50021042001F005F910BD17
:101F300001480078704700005300002010B501F000
:101F4000CBF802F0B3FD10BD70B506460C46154641
:101F50000020706060606860B060A060A8600021D0
:101F6000042001F0E9F870BD014A107070470000CC
:101F7000530000202DE9F0410246002500260020F4
:101F800000230024002791F803C00CF00F0591F8FE
:101F900003C00CF0100CBCF1000F03D091F802C08C
:101FA0004CEA050591F800C0BCF1000F31D014686F
:101FB00000202BE04FF0010C0CFA00F3B1F800C048
:101FC0000CEA03069E4220D183004FF00F0C0CFA5E
:101FD00003F7BC4305FA03FC4CEA040491F803C080
:101FE000BCF1280F06D14FF0010C0CFA00FCC2F82E
:101FF00014C00AE091F803C0BCF1480F05D14FF0BE
:10200000010C0CFA00FCC2F810C0401C0828D1D307
:102010001460B1F800C0BCF1FF0F34DD546800203B
:102020002EE000F1080C4FF0010808FA0CF3B1F8AB
:1020300000C00CEA03069E4221D183004FF00F0C32
:102040000CFA03F7BC4305FA03FC4CEA040491F8CC
:1020500003C0BCF1280F05D100F1080C08FA0CF8F8
:10206000C2F8148091F803C0BCF1480F07D100F109
:10207000080C4FF0010808FA0CF8C2F81080401C58
:102080000828CED35460BDE8F0810000F0B50A46C0
:10209000002300240021002500F00046B6F1004F87
:1020A00002D11D4EF16901E01B4E7168C0F303457A
:1020B00083B200F44016B6F5401F08D121F07061DC
:1020C000154E766826F07066134F7E6012E000F4BD
:1020D0008016B6F5801F06D1032606FA05F4A14343
:1020E00041F0706106E0460D360103FA06F6B14391
:1020F00041F0706122B1460D360103FA06F6314314
:1021000000F00046B6F1004F02D1034EF16101E04C
:10211000014E7160F0BD0000000001400246002049
:1021200093680B400BB1012000E000207047416133
:102130007047016170470AB1016100E04161704779
:1021400010B50446206838B90E4A0F490F4802F00E
:1021500009FD4FF4FA70206001230C480278042135
:10216000184600F06DFE0123074802780621184644
:1021700000F066FE0123034802780821184600F0AB
:102180005FFE10BD520000205100002050000020D2
:1021900010B50446207800F0080020B3207800F045
:1021A0000700012806D0022809D003280CD00428F3
:1021B00014D10EE000F0BAF80B4908600EE000F010
:1021C00005F90A49086009E000F04EF9084908607D
:1021D00004E000F097F90749086000BF00BF2078CD
:1021E00000F00700207010BD5400002058000020AF
:1021F0005C0000206000002030B593B900248460AA
:102200008C609460114C24784FF47A756C43446070
:102210000F4C24786C434C600E4C24786C43546013
:1022200013E0446884604C688C6054689460074C88
:1022300024784FF47A756C434460054C24786C43E1
:102240004C60044C24786C43546030BD5000002036
:102250005100002052000020014890F90000704712
:102260002700002002480078404240B2704700003A
:102270002600002010B5002000F0D8FA234908708D
:1022800023480078234908702348007820490870C3
:102290002048007838B908460078012803D100208A
:1022A0001E49087009E01B480078012805D118482C
:1022B000007810B90120194908701448007800F01E
:1022C000800038B116480078012803D10020124957
:1022D000087019E00D48007800F08000A0B910489F
:1022E0000078012810D10C49087000200C490870B2
:1022F0000C4988600548007840F08000034A10705F
:102300000146002000F098FB10BD00008A0000206C
:102310008C0000208B0000206C0000207D0000203D
:102320006D000020C000002000BFFEE72DE9F04155
:102330001F48006868B90122D1031E48FFF7FBFE61
:102340000F20FFF750FC00224FF400411948FFF71F
:10235000F2FE1748006830B31748007818BB1749D9
:102360000988080403F02CFB154908601048006830
:1023700003F026FB044612480168204603F0BEFA2B
:102380000F4908600846006803F08CFA06460D4ABB
:102390000D4B03F053F9044602F038FF084908607A
:1023A00000200349086006480068BDE8F08100008D
:1023B00030000020000801402C000020B000002068
:1023C00040000020C3F5285C8FC2C53F2DE9F041D5
:1023D0001E48006860B9012208211D48FFF7ABFEC6
:1023E0000F20FFF700FC002208211948FFF7A3FE89
:1023F0001648006830B31748007818BB164989881A
:10240000080403F0DDFA154908601048006803F07D
:10241000D7FA044611480168204603F06FFA0F49C5
:1024200008600846006803F03DFA06460C4A0D4B6A
:1024300003F004F9044602F0E9FE084908600020B0
:102440000249086005480068BDE8F08134000020BA
:10245000000C01402D000020B000002044000020AE
:10246000C3F5285C8FC2C53F2DE9F0411E480068C6
:1024700060B9012210211D48FFF75DFE0F20FFF714
:10248000B2FB002210211948FFF755FE16480068DC
:1024900030B31748007818BB16490989080403F0BF
:1024A0008FFA154908601048006803F089FA04465D
:1024B00011480168204603F021FA0F4908600846D8
:1024C000006803F0EFF906460C4A0D4B03F0B6F82E
:1024D000044602F09BFE084908600020024908609B
:1024E00005480068BDE8F08138000020000C01407C
:1024F0002E000020B000002048000020C3F5285C1A
:102500008FC2C53F2DE9F0411E48006860B9012225
:1025100020211D48FFF70FFE0F20FFF764FB00226C
:1025200020211948FFF707FE1648006830B3174806
:10253000007818BB16498989080403F041FA154947
:1025400008601048006803F03BFA0446114801682F
:10255000204603F0D3F90F4908600846006803F0ED
:10256000A1F906460C4A0D4B03F068F8044602F048
:102570004DFE0849086000200249086005480068CF
:10258000BDE8F0813C000020000C01402F0000203D
:10259000B00000204C000020C3F5285C8FC2C53F6E
:1025A00008B501210D2000F0DFFC01211B48FFF7D9
:1025B0006DFD28208DF803004FF47070ADF8000019
:1025C00069461748FFF7D6FC10208DF80300382025
:1025D000ADF8000003208DF8020069461048FFF7AF
:1025E000C9FC4FF40040ADF8000069460D48FFF704
:1025F000C1FC01F09DFE4FF400410948FFF797FD33
:1026000008210748FFF793FD10210548FFF78FFDCC
:1026100020210348FFF78BFD08BD000000023000B9
:10262000000C01400008014010B502F0FFF900F075
:102630002FF800F02DFB00F0FFF800F01FFDFFF772
:10264000AFFF01F067FD02F057FBFFF777FC01F0E9
:1026500057F803A20121032000F048FC10BD000040
:10266000313A202020323A202020333A0000000066
:1026700010B502210148FFF75CFD10BD000C0140C0
:1026800010B502210148FFF752FD10BD000C0140BA
:1026900008B50121082000F067FC0220ADF8000019
:1026A00010208DF8030003208DF8020069460548CC
:1026B000FFF760FC02210448FFF739FDFFF7D8FF60
:1026C00008BD000000100140000C014000BFFEE703
:1026D00070B504462046FFF75BFD4A48006803F0EA
:1026E000E1F805464FF06632474B03F0A5F805D2F6
:1026F00046A20321084600F0C5FB1FE041480068E0
:1027000003F0D0F80546424A424B03F095F810D248
:102710003C48006803F0C6F805464FF066323A4B75
:1027200002F050FF05D83CA20321084600F0AAFBA6
:1027300004E03AA20321084600F0A4FB38480068F0
:1027400003F0B0F805464FF066322F4B03F074F8F3
:1027500005D22EA20821032000F094FB1FE0304890
:10276000006803F09FF80546294A2A4B03F064F8F5
:1027700010D22B48006803F095F805464FF06632FA
:10278000214B02F01FFF05D823A20821032000F0EF
:1027900079FB04E021A20821032000F073FB21480B
:1027A000006803F07FF805464FF06632164B03F0E1
:1027B00043F805D215A20D21032000F063FB1FE0B2
:1027C0001848006803F06EF80546114A114B03F0F3
:1027D00033F810D21348006803F064F805464FF050
:1027E0006632094B02F0EEFE05D80BA20D21032044
:1027F00000F048FB04E009A20D21032000F042FB99
:1028000070BD000054000020663665404C6F00002B
:10281000CDCCCCCCCC2C4F404D690000467500008F
:10282000580000205C00002070470000014601486D
:10283000405C70479D00002000B587B0012108036F
:1028400000F092FB0121D42000F08EFB18208DF8BF
:102850001B00E020ADF8180003208DF81A0006A92F
:102860004448FFF787FB10208DF81B001220ADF8BD
:10287000180006A93F48FFF77DFB48208DF81B0094
:102880000120ADF8180006A93B48FFF773FB0122B1
:1028900010213848FFF74FFC002202213548FFF78E
:1028A0004AFC012211463448FFF745FC0020ADF8F0
:1028B00004004FF48270ADF806000020ADF8080067
:1028C000ADF80A00ADF80C004FF40070ADF80E0042
:1028D0000820ADF810000020ADF812000720ADF878
:1028E000140001A9254800F0DDFF0121234800F074
:1028F000BFFF0821202000F0A5F83F21212000F093
:10290000A1F80321222000F09DF80321232000F0EC
:1029100099F80321242000F095F80221252000F0E9
:1029200091F80E21262000F08DF80021272000F0DC
:1029300089F80021312000F085F80021322000F0D4
:1029400081F80021332000F07DF80021342000F0D0
:1029500079F80021352000F075F80021362000F0CC
:1029600071F8E22000F00CF8E12000F009F807B05F
:1029700000BD000000080140000C01400030014093
:1029800070B50446002210210848FFF7D4FB20460A
:1029900000F0A6FF002000F0A3FF05460122102151
:1029A0000248FFF7C8FB284670BD00000008014040
:1029B0002DE9F04107460D461646002210210C482D
:1029C000FFF7B9FB384600F08BFF8046002405E096
:1029D000002000F085FF2855601CC4B2B442F7DB2C
:1029E000012210210248FFF7A6FB4046BDE8F08116
:1029F0000008014010B50720FFF7C2FF0C4908701E
:102A00000846007800F0400030B1092209496120F1
:102A1000FFF7CEFF012400E00024054801782720BD
:102A200000F010F8E220FFF7ABFF204610BD0000D9
:102A3000180000209D000020014A1154704700003A
:102A40009D00002070B505460C4600221021084864
:102A5000FFF771FB284600F043FF0646204600F0D2
:102A60003FFF012210210248FFF765FB304670BD91
:102A7000000801402DE9F04107460D4616460022A8
:102A800010210C48FFF757FB384600F029FF80461D
:102A9000002404E0285D00F023FF601CC4B2B442AF
:102AA000F8DB012210210348FFF745FB4046BDE853
:102AB000F08100000008014008B54FF4A06000F06C
:102AC00047F826208DF8000001208DF801008DF8D0
:102AD00002008DF80300684600F002F808BD00000F
:102AE00070B5002100230F22C47804B3154C24686C
:102AF00004F4E064C4F5E064210AC1F10403CA40AF
:102B0000447804FA03F184781440214309010E4CFF
:102B10000678A155047804F01F050124AC4005781F
:102B20006D11AD0005F1E025C5F8004109E004781C
:102B300004F01F050124AC40044D0678761145F8D9
:102B4000264070BD0CED00E000E400E080E100E014
:102B500002490143024A1160704700000000FA0573
:102B60000CED00E070B500240EE00021204600F0DE
:102B7000F0F8002504E0002000F0A8F9681CC5B2B8
:102B8000802DF8DB601CC4B2082CEEDB70BD0000A9
:102B900008B50121042000F0E7F914208DF80300A6
:102BA00003208DF802004FF40060ADF80000694684
:102BB0000A48FFF7DFF94FF48050ADF8000069468E
:102BC0000648FFF7D7F90122D1020448FFF7B3FA0C
:102BD000012211030148FFF7AEFA08BD00080140C9
:102BE00070B50546002415E08020204100EA05026A
:102BF0004FF480510E48FFF79EFA0122D1020C4893
:102C0000FFF799FA00224FF400610948FFF793FAA1
:102C1000601CC4B2082CE7DB0122D1020448FFF794
:102C20008AFA00224FF400610148FFF784FA70BD70
:102C30000008014010B5012211030A48FFF77BFA92
:102C40000122D1020748FFF776FA00224FF48051A3
:102C50000448FFF770FA00224FF400610148FFF7C3
:102C60006AFA10BD0008014010B500224FF48051EF
:102C70000648FFF760FA0122D1020448FFF75BFA29
:102C8000012211030148FFF756FA10BD0008014068
:102C900070B5002406E0002500E06D1CB5F57A7FD4
:102CA000FBD3641CB4F57A7FF5D3FFF771FFAE2038
:102CB00000F0FCF8D52000F0F9F8802000F0F6F8DC
:102CC000A82000F0F3F83F2000F0F0F8D32000F047
:102CD000EDF8002000F0EAF8402000F0E7F8A1202D
:102CE00000F0E4F8C82000F0E1F8DA2000F0DEF8A7
:102CF000122000F0DBF8812000F0D8F8CF2000F09F
:102D0000D5F8D92000F0D2F8F12000F0CFF8DB2080
:102D100000F0CCF8302000F0C9F8A42000F0C6F88C
:102D2000A62000F0C3F88D2000F0C0F8142000F0B9
:102D3000BDF8AF2000F0BAF8FFF714FF70BD10B572
:102D40000246012000E050430B1EA1F10101FAD11F
:102D500010BD70B505460C4645F0B00000F0A6F871
:102D6000102141EA141000F0A1F804F00F0141F025
:102D7000020000F09BF870BD2DE9F04105460E46BB
:102D80001746721ED206110E6A1E5206100EFFF76B
:102D9000E0FF002409E0A7F12001134A02EB011132
:102DA000085D00F093F8601CC4B2082CF3DB721EBF
:102DB000D206110E6A1E012303EB4202D0B2FFF7C6
:102DC000C8FF00240BE0A7F12001074A02EB011223
:102DD00004F10801505C00F079F8601CC4B2082CC2
:102DE000F1DBBDE8F08100006E5B00082DE9F047E3
:102DF00081460E4690461F4600241DE0381B411EAA
:102E00001020FFF79CFFB8FBF0F000F00F050A2D33
:102E100008DA05F13000C2B23019C1B24846FFF7F6
:102E2000ABFF07E005F13700C2B23019C1B2484626
:102E3000FFF7A2FF601CC4B2BC42DFDBBDE8F08735
:102E40002DE9F04780460E4617461D46002415E042
:102E5000281B411E0A20FFF772FFB7FBF0F00A2182
:102E6000B0FBF1F201FB120000F130093019C1B2E0
:102E70004A464046FFF780FF601CC4B2AC42E7DB25
:102E8000BDE8F0872DE9F04107460E4615460024BF
:102E900007E02A5D3019C1B23846FFF76DFF601CAC
:102EA000C4B2285D0028F4D1BDE8F08110B5044615
:102EB000FFF7C0FE7820FFF793FE0020FFF790FE9B
:102EC0002046FFF78DFEFFF7CFFE10BD10B504467C
:102ED000FFF7B0FE7820FFF783FE4020FFF780FE6B
:102EE0002046FFF77DFEFFF7BFFE10BD0FB470B5A3
:102EF00088B004460D461C2101A8FDF7CDF90FA8A6
:102F0000009001A8009A0E99FDF7B4F9064600203A
:102F1000009001AA29462046FFF7B4FF304608B0CA
:102F200070BC5DF814FB704729B1064AD2690243B0
:102F3000044BDA6104E0034AD2698243014BDA614F
:102F4000704700000010024029B1064A126902438E
:102F5000044B1A6104E0034A12698243014B1A616F
:102F6000704700000010024029B1064A92690243EE
:102F7000044B9A6104E0034A92698243014B9A61CF
:102F8000704700000010024029B1064AD26802438F
:102F9000044BDA6004E0034AD2688243014BDA60F2
:102FA000704700000010024030B5002100220024CC
:102FB00000232D4D6D6805F00C0121B1042905D0C9
:102FC000082923D105E0294D056022E0274D056041
:102FD0001FE0254D6D6805F47012234D6D6805F4F2
:102FE0008034022505EB92421CB9214D5543056002
:102FF0000BE01D4D6D6805F400351DB11C4D5543AA
:10300000056002E0194D5543056002E0174D05606B
:1030100000BF00BF144D6D6805F0F0010909154DA2
:103020006B5C0568DD4045600F4D6D6805F4E0613F
:10303000090A104D6B5C4568DD4085600A4D6D687E
:1030400005F46051C90A0B4D6B5C4568DD40C560F5
:10305000054D6D6805F44041890B074D6B5CC568F3
:10306000B5FBF3F5056130BD0010024000127A0097
:1030700000093D00000000201000002010B50022D3
:1030800002211348FFF757F8052212492A20FFF7BB
:10309000F1FC01212120FFF7D5FC01212220FFF7BF
:1030A000D1FC28212520FFF7CDFC09213120FFF795
:1030B000C9FC07212620FFF7C5FC0F212020FFF7C0
:1030C000C1FC012202210248FFF735F810BD0000C3
:1030D000000801401900002008B501210920FFF770
:1030E00043FF01211248FEF7D1FF10208DF80300A5
:1030F0004FF47040ADF8000003208DF802006946DF
:103100000C48FEF737FF4FF400510A48FFF70FF85D
:103110004FF480510748FFF70AF84FF48041054803
:10312000FFF705F84FF400410248FFF700F808BD2B
:1031300000023000000C014070B504460D46042C1E
:103140000FD12A46C1021948FEF7F5FF2A46A1020F
:103150001648FEF7F0FF2A4621031448FEF7EBFF5E
:1031600023E0012C09D10520FFF760FB28B12A4696
:1031700061030E48FEF7DFFF17E0022C09D106209D
:10318000FFF754FB28B12A46E1020848FEF7D3FFB7
:103190000BE0032C09D10720FFF748FB28B12A4692
:1031A0004FF480410148FEF7C6FF70BD000C01409E
:1031B00010B51548007858B91448007840B9144B38
:1031C0001A68144B1968144B186800F07DFC0EE067
:1031D0000D48007801280AD10C48007838B90C4B0A
:1031E0009A680C4B99680C4B986800F06DFC0A4883
:1031F000806840B90748806828B90548806810B9D8
:1032000000200149087010BD7200002073000020EA
:10321000E4000020D8000020CC0000202DE9F0417F
:10322000044600F0E3FA012C06D101201849087089
:10323000FF201849087006E02CB9FF2014490870D7
:10324000012014490870042000F0C4FA042000F0A2
:10325000C7FAFFF707F8804600F04CFA074600F07F
:1032600003FC08FB00F80FFA88F5FEF7F5FF80462F
:1032700000F03AFA074600F0F7FB08FB00F80FFAF7
:1032800088F62946304600F06DFABDE8F08100006E
:103290002700002026000020014800887047000019
:1032A000240000200149088070470000240000200D
:1032B0002DE9F04707468846144600250026B8F158
:1032C0000A0F26D2DFE808F02505264D769DBEE7D9
:1032D000FCFB0A2094FBF0F90420FFF7A7FA00EBAF
:1032E0004000400060430A2190FBF1F0484428442C
:1032F00005B20A2094FBF0F90420FFF797FA00EBDF
:103300004000400060430A2190FBF1F04844304403
:1033100006B21BE1012000F09BFB012000F09EFBA8
:103320000A2094FBF0F90420FFF780FA00EB40003C
:10333000400060430A2190FBF1F04844284405B264
:103340000A2094FBF0F90420FFF770FA00EB40002C
:10335000400060430A2190FBF1F04844304406B23B
:10336000F4E0012000F074FB012000F077FB042062
:10337000FFF75CFA00EB4000400060430A2190FB3D
:10338000F1F0E11704EB917100EBA100284405B2C4
:103390000420FFF74BFA00EB4000400060430A2195
:1033A00090FBF1F0E11704EB917100EBA1003044C8
:1033B00006B2CBE0012000F04BFB012000F04EFBF9
:1033C0000420FFF733FA00EB4000400060430A217D
:1033D00090FBF1F004EBD47100EB6100284405B2DE
:1033E0000420FFF723FA00EB4000400060430A216D
:1033F00090FBF1F004EBD47100EB6100304406B2B5
:10340000A4E00A2094FBF0F90420FFF70FFA00EB88
:103410004000400060430A2190FBF1F048442844FA
:1034200005B20A2094FBF0F90420FFF7FFF900EB46
:103430004000400060430A2190FBF1F048443044D2
:1034400006B283E04FF0FF3000F002FB4FF0FF3098
:1034500000F004FB0A2094FBF0F90420FFF7E6F9E2
:1034600000EB4000400060430A2190FBF1F048442B
:10347000284405B20A2094FBF0F90420FFF7D6F99E
:1034800000EB4000400060430A2190FBF1F048440B
:10349000304406B25AE04FF0FF3000F0D9FA4FF056
:1034A000FF3000F0DBFA0420FFF7C0F900EB40002A
:1034B000400060430A2190FBF1F0E11701E041E098
:1034C00017E004EB917100EBA100284405B2042041
:1034D000FFF7ACF900EB4000400060430A2190FB8D
:1034E000F1F0E11704EB917100EBA100304406B25A
:1034F0002CE04FF0FF3000F0ABFA4FF0FF3000F05F
:10350000ADFA0420FFF792F900EB40004000604361
:103510000A2190FBF1F004EBD47100EB6100284428
:1035200005B20420FFF782F900EB40004000604341
:103530000A2190FBF1F004EBD47100EB6100304400
:1035400006B203E0002000F03BF900BF00BF0A2FE5
:1035500015D2DFE807F088051523334554627284DD
:103560000A2094FBF0F08000032190FBF1F0284446
:1035700005B20A2094FBF0F006EB800006B272E080
:10358000052094FBF0F0032190FBF1F0284405B2F4
:10359000052094FBF0F0304406B264E0052094FB73
:1035A000F0F04000032190FBF1F0284405B2052023
:1035B00094FBF0F006EB400006B254E0052094FBCB
:1035C000F0F000EB4000032190FBF1F0284405B23D
:1035D000052094FBF0F000EB4000304406B242E0DE
:1035E000052094FBF0F0284405B20A2094FBF0F08B
:1035F0008000032190FBF1F0304406B233E0052057
:1036000094FBF0F0284405B2052094FBF0F0032170
:1036100090FBF1F0304406B225E0052094FBF0F079
:1036200005EB400005B2052094FBF0F040000321BB
:1036300090FBF1F0304406B215E0052094FBF0F069
:1036400000EB4000284405B2052094FBF0F000EBAD
:103650004000032190FBF1F0304406B203E000206B
:1036600000F0AEF800BF00BF092F08D1B8F1090F74
:1036700005D1012000F0ECF9012000F0EFF9B8F1DC
:10368000090F01D1092F05D0284600F0A3F83046D4
:1036900000F0A6F8BDE8F0872DE9F041012000F028
:1036A000D7F9012000F0DAF9042000F093F80420A3
:1036B00000F096F8FEF7D6FD074600F01BF8064628
:1036C00000F0D2F947433CB2FEF7C6FD074600F0D2
:1036D0000BF8064600F0C8F947433DB2214628469C
:1036E00000F040F8BDE8F0810148B0F900007047F3
:1036F000280000200148B0F9000070472A0000208F
:1037000010B51449144801F0CAF81249134801F0E1
:10371000C6F80A20FEF75BFA11490F4801F0BFF81E
:103720000F490E4801F0BBF814220A210A4801F0A3
:103730008DF814220A21094801F088F80021064872
:1037400001F0ADF80021054801F0A9F80A20FEF7C4
:103750003EFA10BD2307001C004800400044004012
:10376000C6C4000270B504460D4622460621044830
:1037700001F06CF82A460621024801F067F870BD96
:10378000004800400044004010B504462046FFF7C2
:1037900089FD00F02BF80CE001F01CF908B10120C4
:1037A00010BDFFF779FF01231A4610210220FFF711
:1037B00047FBFFF771FD0028EED100BFF0E70000E6
:1037C0000249088002490880704700002800002054
:1037D0002A000020014908807047000028000020CE
:1037E00001490880704700002A00002010B540F20F
:1037F0000111044801F053F840F20111024801F0B0
:103800004EF810BD004800400044004010B50020B4
:10381000FFF7D6FF0021044801F041F800210348DA
:1038200001F03DF810BD0000004800400044004099
:1038300010B504462046FFF735FD0EE000220621B4
:10384000094801F003F800220621084800F0FEFFB5
:1038500001F0C0F808B1012010BDFFF71DFD0028E0
:10386000ECD100BFF8E700000048004000440040F1
:1038700021B1028842F04002028004E002884FF643
:10388000BF731A40028070470246002013890B4024
:103890000BB1012000E00020704701468889704785
:1038A0008181704710B50022028802F441520B88D2
:1038B0004C8823438C882343CC8823430C8923439F
:1038C0004C8923438C892343CC8923431A430280A8
:1038D000838B4FF2FF74234083830B8A038210BDD6
:1038E00010B504464FF48050174908600AE01649A5
:1038F0000868411E144A116020B9002000F028F821
:10390000C0B210BD02211148FFF7BEFF0028EED063
:1039100021460E48FFF7C4FF0AE00B490868411E24
:10392000094A116020B9012000F012F8C0B2E8E79E
:1039300001210648FFF7A8FF0028EED00348FFF753
:10394000ACFFC0B2DDE700002000002000300140E5
:1039500010B504460123224619460220FFF770FAEB
:10396000002010BD704710B500F002F810BD000037
:103970000CB50020019000903348006840F480307E
:103980003149086000BF3048006800F40030009002
:103990000198401C0190009818B90198B0F5A06FEB
:1039A000F1D12948006800F4003010B101200090E6
:1039B00001E0002000900098012843D123480068CE
:1039C00040F01000214908600846006820F003001C
:1039D00008600846006840F0020008601A48406825
:1039E000194948600846406848600846406840F405
:1039F000806048600846406820F47C1048600846B3
:103A0000406840F4E81048600846006840F0807064
:103A1000086000BF0C48006800F000700028F9D072
:103A20000948406820F0030007494860084640689C
:103A300040F00200486000BF0348406800F00C00FE
:103A40000828F9D10CBD00000010024000200240FF
:103A500001490870704700002700002001490870E4
:103A600070470000260000202DE9F04704460CB303
:103A700014F1640F1FDB642C1DDCC4EB0410800008
:103A800000EB8000C40004EB84004000FA2190FBAE
:103A9000F1F9484601F07FFD0746094A094B01F05C
:103AA000F3FB054601F048FD0446600340F6B831DB
:103AB00090FBF1F400E0002420B2BDE8F0870000A4
:103AC0001F85EB51B81E094070B506460C461546D9
:103AD00026B101210846FFF72FFB03E0002101205A
:103AE000FFF72AFB24B101210220FFF725FB03E0A9
:103AF00000210220FFF720FB25B101210320FFF761
:103B00001BFB03E000210320FFF716FB70BD000044
:103B100010B50220FEF78AFE05282FD11848B0F90B
:103B200000201848017818480078FFF7C1FB0120F1
:103B3000FEF77CFE082817D006DC01280BD00228EF
:103B40000CD0042819D10CE010280ED0202812D057
:103B5000402812D110E0FFF749FE0EE0FFF756FEB5
:103B60000BE0FFF753FE08E007E00420FEF75EFEDF
:103B70000349088001E000E000BF00BF10BD000065
:103B800066000020700000206F00002010B50220A9
:103B9000FEF74CFE042826D10120FEF747FE082838
:103BA00006D010280BD0202810D040281AD113E0BE
:103BB000FF204549087001204449087012E00120A7
:103BC00041490870FF20414908700BE001203E493F
:103BD00008703E49087005E0FF203B4908703B49EA
:103BE000087000BF00BF0020FEF720FE012806D0AD
:103BF00002280FD0032829D0042832D112E03448FB
:103C0000007818B900210420FFF796FA0020314906
:103C1000087026E001210420FFF78EFA01202D49CB
:103C200008701EE0FEF784F9C4B223462A4A2B49E5
:103C30002B48FEF7E1FA012025490870FEF778F9D4
:103C4000401C84B22046FEF78FF90AE0224A23493D
:103C50002348FEF779F900201D490870FEF784F922
:103C600000BF00BF0820FEF7E1FD052805D00628AB
:103C700007D101201B49087003E000201949087092
:103C800000BF00BF0120FEF7D1FD30B1012807D0F1
:103C9000022810D0042814D110E0FFF7B7FD10E07F
:103CA00040F20111104800F0FAFD40F201110F48F6
:103CB00000F0F5FD05E0FFF7A9FD02E0FFF7A6FD26
:103CC00000BF00BF10BD00007A0000207B00002074
:103CD0007200002073000020E4000020D8000020C3
:103CE000CC00002074000020004800400044004048
:103CF00010B50120FEF79AFD082821D007DC68B135
:103D000001280ED0022817D004281DD115E0102854
:103D100017D0202816D0402816D114E0FFF776FDE2
:103D200012E040F20111094800F0B9FD40F2011122
:103D3000074800F0B4FD07E006E0FFF767FD03E089
:103D400002E001E000E000BF00BF10BD00480040FD
:103D5000004400407047000010B51348006840F070
:103D600001001149086008464068104908400E49A2
:103D70004860084600680E4908400B49086008463C
:103D8000006820F4802008600846406820F4FE00A7
:103D900048604FF41F008860FFF7E5FD4FF00060BA
:103DA0000449086010BD0000001002400000FFF848
:103DB000FFFFF6FE08ED00E0F0B50C4615460022C8
:103DC0000021068C4FF6FE773E400684028B018C64
:103DD0004FF60C7632407E1C06EA03162E43324321
:103DE000104EB0420ED0104EB0420BD0B0F1804F0A
:103DF00008D00E4EB04205D00D4EB04202D00D4E4E
:103E0000B04206D14FF6FD76314044F00106314311
:103E100005E04FF6F576314044F001063143028368
:103E20000184F0BD002C014000340140000400403A
:103E300000080040000C0040F0B50C46154600227A
:103E400000210026078C4FF6EF7C07EA0C07078459
:103E5000028B018C4FF6FF7707EA041640F6FF4706
:103E60003A404FF6FF7707EA03373A434FF6FF77BA
:103E700007EA05273A43114FB8420ED0104FB84217
:103E80000BD0B0F1804F08D00E4FB84205D00E4F86
:103E9000B84202D00D4FB84206D14FF6DF77394015
:103EA00046F01007394305E04FF65F77394044F09C
:103EB0001007394302830184F0BD0000002C01404B
:103EC000003401400004004000080040000C0040A5
:103ED000F0B50C461546002200210026078C4FF64F
:103EE000FF6C07EA0C070784828B018C4FF6FF7783
:103EF00007EA04264FF60C773A404FF6FF7707EAB9
:103F000003172F433A43114FB8420ED0104FB84217
:103F10000BD0B0F1804F08D00E4FB84205D00E4FF5
:103F2000B84202D00D4FB84206D14FF6FF57394084
:103F300046F48077394305E04FF2FF57394044F4A7
:103F40008077394382830184F0BD0000002C01405A
:103F5000003401400004004000080040000C004014
:103F6000F0B50C461546002200210026078C4EF6BF
:103F7000FF7C07EA0C070784828B018C4FF6FF77E2
:103F800007EA043640F6FF473A404FF6FF7707EA64
:103F900005273A434FF6FF7707EA03373A43114FB5
:103FA000B8420ED0104FB8420BD0B0F1804F08D0BD
:103FB0000E4FB84205D00E4FB84202D00D4FB84256
:103FC00006D14DF6FF77394046F48057394305E076
:103FD00047F6FF57394044F48057394382830184C0
:103FE000F0BD0000002C01400034014000040040FE
:103FF00000080040000C004010B50121880700F0C7
:104000000CFB012872D13C488068401C3A4988600A
:1040100008468068B0F5FA7F03D30120374908705D
:1040200002E000203549087033480068401C3249DE
:10403000086008460068642816D3002008603048ED
:10404000007800F00700042805DA2D480078401CAD
:104050002B49087002E0012029490870284800789F
:1040600040F00800264908702648006820B125481D
:104070000068401E234908602348006820B1224898
:104080000068401E204908602048006820B11F4891
:104090000068401E1D4908601D48006820B11C488A
:1040A0000068401E1A4908601748806820B1164809
:1040B0008068401E144988601448806820B1134805
:1040C0008068401E114988601148806820B11048FE
:1040D0008068401E0E498860FFF7DEF830B1FFF7B8
:1040E000DBF8401E84B22046FFF7DCF80121880788
:1040F00000F083F910BD0000C00000206D0000201A
:104100006B00002084000020CC000020D80000209C
:10411000E40000201FB501210846FEF705FF4FF41B
:104120007A70ADF808004720ADF804000020ADF823
:104130000A00ADF8060001A94FF0804000F034FB02
:104140001C208DF8000002208DF801008DF802007F
:1041500001208DF803006846FEF7C2FC01218807A4
:1041600000F048F901221146900700F0B5FA01214C
:10417000880700F045F91FBD10B50121624800F025
:104180004CFA012823D161480078012804D1604805
:104190000068401C5E4908605E480078012804D130
:1041A0005B484068401C5A4948605B4800780128D9
:1041B00004D157488068401C5549886057480078AA
:1041C000012804D15248C068401C5149C8600221EE
:1041D0004D4800F022FA00B34C48007888B901201D
:1041E0004A49087000204A4908600021464800F00A
:1041F000ACFA00204A4908600221434800F075FAF1
:104200000BE00020414908703F4800F0F9F94449AB
:10421000086000213C4800F068FA04213A4800F0A8
:10422000FCF900B33B48007888B90120394908708F
:104230000020374948600021334800F086FA00200A
:10424000384908600221304800F058FA0BE000209D
:10425000304908702C4800F0D6F932490860002136
:10426000294800F04BFA0821274800F0D6F900B39E
:104270002948007888B9012027490870002024497E
:1042800088600021204800F060FA0020264908607C
:1042900002211D4800F03FFA0BE000201E49087083
:1042A000194800F0B3F9204908600021164800F0D1
:1042B00032FA1021144800F0B0F900B31748007822
:1042C00088B901201549087000201149C8600021F3
:1042D0000D4800F03AFA00201449086002210A480B
:1042E00000F026FA0BE000200C490870064800F0A8
:1042F00090F90E4908600021034800F019FA1F21C7
:10430000014800F07AF810BD000800402C000020A1
:10431000B00000202D0000202E0000202F000020E3
:104320003000002034000020380000203C00002035
:1043300000B587B001210420FEF7F6FD2C4800F0FF
:104340006BF84FF6FE70ADF814004720ADF8100082
:104350000020ADF81600ADF8120004A9244800F0C2
:1043600023FA0020ADF80400ADF80C00ADF806000B
:10437000ADF80A000120ADF8080001A91C4800F0C2
:1043800055F90420ADF8040001A9194800F04EF9D0
:104390000820ADF8040001A9154800F047F90C20E9
:1043A000ADF8040001A9124800F040F94FF4A060F4
:1043B000FEF7CEFB1E208DF8000002208DF80100D4
:1043C00000208DF8020001208DF803006846FEF7FA
:1043D00087FB1F21064800F00DF801221F21044829
:1043E00000F07AF90121024800F00AF807B000BD98
:1043F00000080040CA4302827047CA4302827047E5
:1044000021B1028842F00102028004E002884FF6E6
:10441000FE731A400280704710B504466848844213
:1044200008D10121C014FEF7AFFD0021E014FEF712
:10443000ABFDC4E0B4F1804F08D101210846FEF77E
:1044400083FD00210120FEF77FFDB8E05D48844236
:1044500008D101210220FEF777FD00210220FEF79E
:1044600073FDACE05848844208D101210420FEF7D6
:104470006BFD00210420FEF767FDA0E05348844255
:1044800008D101210820FEF75FFD00210820FEF77A
:104490005BFD94E04E48844208D101211020FEF7D4
:1044A00053FD00211020FEF74FFD88E0494884426B
:1044B00008D101212020FEF747FD00212020FEF732
:1044C00043FD7CE04448844208D101214014FEF7BA
:1044D0005BFD00216014FEF757FD70E03F48844209
:1044E00009D10121C804FEF74FFD00214FF400203F
:1044F000FEF74AFD63E03A48844209D101210805EC
:10450000FEF742FD00214FF48010FEF73DFD56E01E
:104510003448844209D101214805FEF735FD0021C8
:104520004FF40010FEF730FD49E02F48844208D1D7
:1045300001214020FEF708FD00214020FEF704FD88
:104540003DE02A48844208D101218020FEF7FCFC8E
:1045500000218020FEF7F8FC31E02548844208D194
:1045600001218015FEF7F0FC0021A015FEF7ECFC00
:1045700025E02048844209D101210804FEF704FD0A
:1045800000214FF48030FEF7FFFC18E01A48844207
:1045900009D101214804FEF7F7FC00214FF4003057
:1045A000FEF7F2FC0BE01548844208D10121880493
:1045B000FEF7EAFC00214FF48020FEF7E5FC10BD79
:1045C000002C01400004004000080040000C0040A6
:1045D000001000400014004000340140004C014035
:1045E000005001400054014000180040001C0040F1
:1045F00000200040004001400044014000480140CC
:104600000146888E70470146088F70470146888FA3
:1046100070470146B1F84000704702460020138AF7
:104620000B400BB1012000E00020704770B505463B
:104630000C46244885420ED0234885420BD0B5F164
:10464000804F08D02148854205D02148854202D0BC
:104650002048854200D100E000BF208850B923895E
:10466000A28861882846FFF7A7FBE188284600F06A
:104670006EF825E0208804280AD12389A288618861
:104680002846FFF7D9FBE188284600F069F817E0D3
:10469000208808280AD12389A28861882846FFF744
:1046A00017FCE188284600F068F809E02389A28811
:1046B00061882846FFF754FCE188284600F066F838
:1046C00070BD0000002C0140003401400004004097
:1046D00000080040000C00401AB183890B4383811D
:1046E00002E083898B43838170470A460021018C55
:1046F0004FF6FD7319401143018470470A460021AB
:10470000018C4FF6DF7319404FF6FF7303EA021373
:104710001943018470470A460021018C4FF6FF536C
:1047200019404FF6FF7303EA0223194301847047CF
:104730000A460021018C4DF6FF7319404FF6FF73B6
:1047400003EA023319430184704781847047028B66
:104750004FF6F3731A400283028B0A4302837047B9
:10476000028B4FF2FF331A400283028B4FF6FF7326
:1047700003EA01231A4302837047828B4FF6F373D7
:104780001A408283828B0A4382837047828B4FF266
:10479000FF331A408283828B4FF6FF7303EA0123B3
:1047A0001A43828370470000002202881D4B984202
:1047B0000ED01D4B98420BD0B0F1804F08D01B4B50
:1047C000984205D01A4B984202D01A4B984204D115
:1047D0004FF68F731A404B881A43174B984207D0F5
:1047E000164B984204D04FF6FF431A40CB881A4329
:1047F00002808B8883850B8803850A4B98420BD0F7
:10480000094B984208D00E4B984205D00D4B984268
:1048100002D00D4B984201D10B7A0386012383828B
:1048200070470000002C01400034014000040040AB
:1048300000080040000C0040001000400014004040
:104840000040014000440140004801402DE9F84388
:1048500007460C4615468DF80040280A40B28DF8F0
:10486000010068B28DF802009DF9010020449DF915
:10487000021000EB01084FFA88F08DF803000026C3
:1048800009E01DF90610384600F069FB0220FDF72B
:104890009EF9701C46B2042EF3DBBDE8F883F8B530
:1048A00006460C46200E8DF80000200C8DF8010005
:1048B000200A8DF80200E0B28DF8030000250AE01E
:1048C0001DF8050041B2304600F049FB0220FDF71B
:1048D0007EF9681CC5B2042DF2DBF8BD2DE9F0416C
:1048E00005460E46174601231A4607210420FEF707
:1048F000A7FA4FF4005000F0B9F880460123424671
:104900000A210420FEF79CFA4FF4804000F0AEF834
:104910008046012342460B210420FEF791FA4FF412
:10492000004000F0A3F88046012342460C210420F9
:10493000FEF786FA012000F099F8804601234246EE
:104940000D210420FEF77CFA4FF4807000F08EF801
:104950008046012342460E210420FEF771FA01230E
:104960001B4802780A211846FEF76AFA00F032F86E
:1049700008B1052404E016480078FDF786F90446DE
:104980000123224610210420FEF75AFA062C1BD2DE
:10499000DFE804F01A03070B0F16FDF7BFF9BDE8B7
:1049A000F0810020FDF72BFAF9E70120FDF727FA47
:1049B000F5E7074B3A4631462846FDF72BF9EEE777
:1049C000FEF724FF0120EAE7FEF720FF0120E6E7DB
:1049D0008D00002010B5FEF70DF81720FDF7D0FF71
:1049E000102806D10123002203210420FEF728FA13
:1049F00011E01720FDF7C4FF112806D101231A4644
:104A000003210420FEF71CFA05E001230222032102
:104A10000420FEF715FA0820FDF708FF052803D14A
:104A2000FEF7F4FE012010BD0020FCE708B50121CF
:104A30000C20FEF799FA48208DF803004FF46040EF
:104A4000ADF8000003208DF8020069460548FDF727
:104A500091FA40F20110ADF8000069460248FDF7F6
:104A600089FA08BD001001400008014010B5044655
:104A7000B4F5005F05D0B4F5804F02D0B4F5004F17
:104A800004D121460748FDF749FB10BD012C02D097
:104A9000B4F5807F04D121460348FDF73FFBF4E7DE
:104AA0000220F2E7001001400008014000B587B085
:104AB00001210420FEF758FA01218803FEF754FA79
:104AC00018208DF81B004FF40070ADF8180003207B
:104AD0008DF81A0006A92148FDF74CFA04208DF83C
:104AE0001B000002ADF8180003208DF81A0006A97B
:104AF0001A48FDF73FFA4FF4165002900020ADF827
:104B000014000C20ADF812000020ADF81000ADF834
:104B10000E00ADF80C0002A9114800F0A9F94FF4FD
:104B2000A060FEF715F825208DF8040001208DF80F
:104B3000070002208DF805008DF8060001A8FDF79A
:104B4000CFFF012240F22551054800F06CF9012108
:104B5000034800F0C4F807B000BD000000080140A1
:104B6000003801402DE9F04104460D46164600206C
:104B7000364908706121364800F0EBF9002701E062
:104B8000781CC7B20C2FFBDB32484078302807DB9B
:104B900030488078302803DB2E48C078302802DA8D
:104BA0000020207010E02B484078303864214843C2
:104BB00028498978303901EB810100EB4101254812
:104BC000C07830380844207022484079302807DB0C
:104BD00020488079302803DB1E48C079302802DA6B
:104BE0000020287010E01B48407930386421484389
:104BF00018498979303901EB810100EB41011548F1
:104C0000C0793038084428701248407A302807DBD1
:104C10001048807A302803DB0E48C07A302802DA48
:104C20000020307010E00B48407A3038642148434F
:104C30000849897A303901EB810100EB41010548CF
:104C4000C07A303808443070BDE8F081160000208A
:104C5000003801409000002010B52021144800F0D9
:104C6000D5F801281ED1124800F06EF911490880CC
:104C700008460178104802780078401C0E4B1870E6
:104C80000E488154184600780D2804DD002019468E
:104C900008700A49087300BF8021054800F0B6F883
:104CA0000128F9D12021024800F00AF810BD0000C7
:104CB0000038014014000020160000209000002061
:104CC00010B50022002340F66A14A14200D100BFB3
:104CD0000A1201249440A3B2DC43048010BD21B128
:104CE000828942F40052828104E082894DF6FF738A
:104CF0001A4082817047000000B58BB0012104206A
:104D0000FEF732F901214804FEF70EF90420ADF850
:104D1000280018208DF82B0003208DF82A000AA9FE
:104D20003648FDF727F90820ADF8280004208DF853
:104D30002B000AA93148FDF71DF94FF46140069098
:104D40000020ADF81C00ADF81E00ADF82000ADF855
:104D500024000C20ADF8220006A9294800F088F8AC
:104D6000FDF7AAFE012240F22551254800F05BF82C
:104D700001212348FFF7B3FF01210820FEF7F4F8D3
:104D800001218804FEF7D0F84FF48060ADF81400DC
:104D900018208DF8170003208DF8160005A9194872
:104DA000FDF7E8F84FF40060ADF8140004208DF82A
:104DB000170005A91348FDF7DDF84FF46140019095
:104DC0000020ADF80800ADF80A00ADF80C00ADF811
:104DD00010000C20ADF80E0001A90B4800F048F8B7
:104DE000FDF76AFE012240F22551074800F01BF84A
:104DF00001210548FFF773FF0BB000BD000801401B
:104E000000440040000C01400048004002460020E1
:104E1000B1F5007F00D100BF13880B400BB101201A
:104E200000E000207047F0B503460024002600256E
:104E3000002040F66A17B94200D100BF1846C1F3FE
:104E4000421401F01F06012707FA06F5012C01D1D3
:104E50000C3004E0022C01D1103000E014301AB103
:104E600007682F43076002E00768AF430760F0BDA3
:104E70002DE9F04786B005460E460024A24600BF45
:104E8000A1460027B08900B100BF2F462C8A4CF6FE
:104E9000FF700440F08804432C82AC894EF6F31076
:104EA0000440B08831890843718908430443AC81C8
:104EB000AC8A4FF6FF400440B0890443AC8201A89D
:104EC000FEF772F81F48874202D1DDF810A001E01A
:104ED000DDF80CA0A88900F4004040B10AEBCA003C
:104EE00000EB0A1031684900B0FBF1F807E00AEB6B
:104EF000CA0000EB0A1031688900B0FBF1F86420A9
:104F0000B8FBF0F004012009642101FB1089A88995
:104F100000F4004040B1322000EBC900B0FBF1F0DA
:104F200000F00700044308E0322000EB0910642180
:104F3000B0FBF1F000F00F0004432C8106B0BDE897
:104F4000F08700000038014001468888C0F308005F
:104F50007047C1F308028280704700BFFEE770B55A
:104F600005460C46A1B22846FFF7F3FF01E0FDF726
:104F700087FB80212846FFF749FF0028F7D070BD46
:104F800010B502232F4802780F210120FDF72EFFD4
:104F90002D480423012182680220FDF751FF2B4890
:104FA0000423062182680220FDF74AFF28480423D3
:104FB0000B2182680220FDF743FF2648FDF7C0F869
:104FC0002548FDF785FBFDF715FD2449087024A24F
:104FD00001210420FDF756FF1720FDF7D1FC102812
:104FE00006D10123002203210420FDF729FF11E04F
:104FF0001720FDF7C5FC112806D101231A4603210D
:105000000420FDF71DFF05E00123022203210420F7
:10501000FDF716FF0020FDF709FC48B10020FDF761
:1050200005FC04460223224601210846FDF7DEFE68
:105030000A48007810B10020084908700148FCF7C0
:1050400083FD10BD71000020CC000020D80000209E
:10505000E4000020840000206B0000206A00002093
:10506000523A0000490050EAC12018BF04204A0DFE
:1050700018BF40F0010040F2FF72B2EB515F08BF71
:1050800040F00200012808BF0520704730380A2888
:1050900001D201207047002070470000FDF7C4FADC
:1050A0006EE0FFF76DFF37A205210420FDF7EAFE51
:1050B0000123002207210420FDF7C2FE32480078B8
:1050C00001280BD1314A32493248FFF707FC08B9B1
:1050D000012000E000202C49087047E0FEF768F846
:1050E0002D480078012804D0022805D0032809D1D2
:1050F00005E0FEF7FDFD05E0FEF748FD02E0FEF7E6
:1051000007FD00BF00BFFDF7A7F8244991F9001083
:1051100000FB01F5FEF7E8FA0446FEF7A5FC45435F
:1051200028B21F490880FDF79DF81E4991F900102B
:1051300000FB01F5FEF7DEFA0446FEF795FC454359
:1051400028B21949088019480078012803D0184866
:105150000078012802D1FEF759FB07E01248B0F9A8
:1051600000100F48B0F90000FEF7FCFAFDF782F8D6
:105170000E480078012801D1FEF748FBFDF778FAC8
:105180008FE70000543A000074000020E400002083
:10519000D8000020CC000020800000207A000020F1
:1051A000780000207B000020760000207D00002099
:1051B0006E00002010B500290AD00878002807D01A
:1051C00005487844FCF7AEF8002801D0002010BD57
:1051D0000248784410BD0000BA100000B210000070
:1051E00010B500290AD00878002807D0054878446F
:1051F000FCF798F8002801D0002010BD0248784440
:1052000010BD0000AA100000A210000021F0004212
:10521000A2F16052B2F5801F01F0004328BFD2F125
:105220007F6C0BD95FEA001C43EAC20242EB50706C
:1052300018BF704728BF20F001007047B2F5801FEB
:10524000BCBF184670474FEA410C1CF5001F02D244
:10525000084600F00EBC70B500F09AFA0000008914
:10526000FFF7F6BF4FF00040A0F5800070474910EF
:1052700058BFC1F140415B1058BFC3F140438B425E
:10528000EFF30080704700002DE9C04130B4DFF833
:10529000A0C23CEA111418BF3CEA131400F0EC80E1
:1052A00081EA03051CEA111444EAD57418BF1CEA0C
:1052B000131500F0C780A4EB05044FF0004545EA44
:1052C000C12145EAC32341EA505143EA525304F154
:1052D0007F74994204F500344FEAC0204FEAC2229D
:1052E00008BF904200F09C804FEA13650FF2401611
:1052F000765D4FEA134506FB05F7C7F1807706FB9D
:1053000007F74FEAD737A7FB03687642C8F580381E
:10531000A7FB06CE38BFA8F1010807FB08E64FF04F
:10532000000EA6FB028CE6FB03CEDCF1000CCEF1F6
:10533000004E38BFAEF1010EA6FB0C584FF000072F
:105340004FF00005E6FB0E87A1FB08C6A0FB07CEC9
:1053500016EB0E0645F10005E1FB076515F1E04E81
:105360007EBFA4F580345FEA46066D4116F18007E2
:1053700045F100054FEA17274FEA066647EA056739
:10538000A6F1DE46B6F1805F4FEA15251FD93846F3
:1053900024F0010C05EBC471BCF1FE6F01EB0C11A4
:1053A00002D8F0BCBDE8008124425CBF01F5801E3C
:1053B0009EEAC47F02D4F0BCBDE80081244238D408
:1053C000F0BCA1F1C041BDE8004100F02FBA4FEAA6
:1053D000D22242EA43524FEAD323A7FB02864FEA86
:1053E000D02040EA415007FB03661EEA0E0F4FEA49
:1053F000D12105FB026658BFA6EB0056B6EB00565E
:105400004FEA520E4EEAC37E18EB0E0E56EB530EC9
:10541000BDD518EB02085E417F1C55F10005B6E7CB
:105420004FF480154FF000074FF000064FF00008D2
:10543000ADE7F0BC4FF0000001F1C04101F00041C8
:10544000BDE8008111EA0C1F0CEA131500D00CE036
:1054500013EA0C1F00F025804FF00000F0BC81EA39
:10546000030101F00041BDE80081F0BCBDE800414E
:1054700081EA030100F0DAB9F0BCBDE8004170B583
:1054800000F086F9097EFC3E00F007B881EA0301CE
:105490004FF0000001F00041704781EA030100F085
:1054A000C5B9F0BCBDE800414FF00000214970478C
:1054B000FFFDFBF9F7F5F4F2F0EEEDEBE9E8E6E4D9
:1054C000E3E1E0DEDDDBDAD8D7D5D4D3D1D0CFCD60
:1054D000CCCBCAC8C7C6C5C4C2C1C0BFBEBDBCBB99
:1054E000BAB9B8B7B6B5B4B3B2B1B0AFAEADACAB94
:1054F000AAA9A8A8A7A6A5A4A3A3A2A1A09F9F9E6E
:105500009D9C9C9B9A99999897979695959493931F
:10551000929191908F8F8E8E8D8C8C8B8B8A8989B6
:105520008888878786858584848383828281818039
:105530000000FF070000F87F4FEA41034FEA535392
:10554000A3F58063D3F11E03C8BFD3F1210C0CDD9A
:105550004FF0004242EAC12242EA505232FA03FCC2
:105560008CEAE17CACEBE1707047102BC4BF0020EB
:10557000704703F5787CBCF1FF3F04D06FF0004228
:1055800082EA2100704770B500F002F94992248048
:1055900000207047F2E710F0004248BF4042B0FAE6
:1055A00080F310FA03F10AD0C3F11D0303F5806301
:1055B0004FEA415002EB035202EBD12170474FF00A
:1055C0000000704751EA030C17D41CF5801F58BF28
:1055D000BCF5801F00F10680994218BF704708BFD4
:1055E0009042704707D711F5801F58BF13F5801FF1
:1055F00019D499427047894270471CF5801F08D51D
:10560000BCF5801FF7D58B4218BF704708BF824298
:1056100070474FF4001C1CEB410F38BF1CEB430FCD
:1056200001D28B42704770B500F0B2F89224490065
:105630004FF000514FF08053FFF719BEDFF848C11B
:1056400070B51CEA111E1EBF1CEA13159EEA0C0F52
:1056500095EA0C0F00F06F8081EA030423EA4C13F3
:105660004EEAD47E21EA4C1141F4801143F48013B8
:10567000AE44A1FB024CA0FB0365AEF17F7E361960
:1056800055EB0C05A1FB034C4CF10003A0FB021CE5
:1056900016EB0C06654153F10003094218BF46F0B2
:1056A000010613F4007F0BD14FEA03314FEA0530B6
:1056B000340341EA155140EA16506FF003020AE044
:1056C0004FEAC3214FEAC520F40241EA555140EAAE
:1056D00056506FF0020202EB2E4201EB025585EAB2
:1056E000CE710AD05FEA440C18BF24F0004450F198
:1056F000000041F1000120EAD47040F2FE7C6245D6
:1057000000D270BDA84214BF4FF080444FF0404417
:10571000002E08BF0024BEF1806FA8BFA1F1C041D8
:10572000BDE8704080F282804FF0000001F1C0417E
:1057300001F0004170479EEA0C0F0CEA131518BFE8
:1057400095EA0C0F06D04FF0000081EA030E0EF030
:10575000004170BD00F01CF88900013E00F007B860
:1057600000F009B84FEA430C5FEA5C5C08D081EABC
:10577000030100F05BB84FEA410C5FEA5C5CF6D1D4
:105780004FF00000014970470000FF070000F87F5C
:105790000EF1020E2EF0030E5EF8046B364205D4B5
:1057A000012A43EB030515F5001F12D8012841EB30
:1057B000010C1CF5001F0CD80ED14FEAD17C15F559
:1057C000001F0CEB4C0C0CF1020C08BF4CEBD37C13
:1057D00004E04FF0080C01E04FEAD37C0CEB4C05E1
:1057E00026FA05F606F00706B6F1040C06D20EEB13
:1057F000860CBDE870404CF0010C6047DFE80CF00F
:10580000090B02024FF000414FF00000A1F500210A
:1058100070BD19461046012851EB010418BFD4F59C
:10582000001484BF002001F0004170BD0808A0F5FD
:1058300000114FEA3101704753EA010C17D41CF5EF
:10584000801F58BFBCF5801F00F106808B4218BF37
:10585000704708BF8242704707D713F5801F58BFB3
:1058600011F5801F19D48B4270479B4270471CF57D
:10587000801F08D5BCF5801FF7D5994218BF704727
:1058800008BF904270474FF4001C1CEB430F38BF19
:105890001CEB410F01D2994270470FB40CBC03BC02
:1058A000FFF7C1BE43004FEAD30C4FEA3C0C434024
:1058B0001FBF40070CF1605113F0FE4F70471CF002
:1058C000006F03D100200CF0004170470CF0004342
:1058D00043EA507010B540EACC0000F084F800BFF5
:1058E000000000924FEA0001FFF7A0BF4FF0004117
:1058F0004FF00000A1F500217047000090EA010F71
:1059000048BF81F0004100F1C080421A3CBF801ABC
:1059100089184FEAD0524FF07F4C1CEA410FA2EB9E
:10592000D15318BF9CEA026F00F03B804FF0004C4F
:105930004CEA00204CEA012121FA03FC10EB0C0C8C
:105940001ED202F1FF325FEA1C2040EBC25038BF8A
:1059500070471CF07F0F4FEA400C18BFBCF17F4F1F
:1059600038BF7047C3F12003994008BF20F0010001
:10597000BCF17F4F38BF7047A0F1C04000F079B84C
:105980004FEA3C00000A40EBC25028BF1CF0FF0F5A
:105990004FEA400CE6D018BFBCF17F4F38BF7047CC
:1059A000EAE79CEA026F05D010EA5C0F08BF00F03E
:1059B0000040704710B500F016F800BF64FBBE3E13
:1059C000B0FA80F310FA03F2C3F19D030AD0D905AF
:1059D00001EB1220530638BF704700F1010008BFE9
:1059E00020F0010070470EF1020E2EF0030E5EF85B
:1059F000044B244204D44FEA4102B2F17F4F11D844
:105A00004FEA4003B3F17F4F0CD80ED14FEAD07C60
:105A1000B2F17F4F0CEB4C0C0CF1020C08BF4CEBBD
:105A2000D17C04E04FF0080C01E04FEAD17C0CEB94
:105A30004C0324FA03F404F00704B4F1040C06D276
:105A40000EEB840CBDE810404CF0010C6047DFE821
:105A50000CF0070802024FF00040A0F5800010BDD6
:105A60000846420018BFD2F1807288BF00F00040A3
:105A700010BDFF2141EAD050C005704790EA010FE8
:105A800048BF81F000413FF540AF421A04D882F090
:105A90000042A0EB020011444FEAD0524FF07F4C7D
:105AA0001CEA410FA2EBD15318BF9CEA026F4AD007
:105AB0004FF0004C4CEA00204CEA012121FA03FC93
:105AC000B0EB0C0C0FD412F0FE0F36D05FEA4C0096
:105AD0001DD5001240EBC25038BF70471CF03F0F7D
