:020000040800F2
:1000000040070020890100085D0B00087506000804
:10001000010A000843020008D32B0008000000007A
:10002000000000000000000000000000151600089D
:10003000CD0200080000000021120008851B000806
:10004000A3010008A3010008A3010008A301000800
:10005000A3010008A3010008A3010008A3010008F0
:10006000A3010008A3010008A3010008A3010008E0
:10007000A3010008A3010008A3010008A3010008D0
:10008000A3010008A3010008A3010008A3010008C0
:10009000A3010008A3010008A3010008A3010008B0
:1000A000A3010008A3010008A3010008A3010008A0
:1000B000291E0008A3010008CD1F0008A3010008A5
:1000C000A3010008A3010008A3010008A301000880
:1000D000A3010008D1280008A3010008A30100081B
:1000E000A3010008A3010008A301000800F002F822
:1000F00000F03AF80AA090E8000C82448344AAF188
:100100000107DA4501D100F02FF8AFF2090EBAE885
:100110000F0013F0010F18BFFB1A43F0010318473B
:100120009C3C0000BC3C0000103A24BF78C878C159
:10013000FAD8520724BF30C830C144BF04680C60ED
:10014000704700000023002400250026103A28BF35
:1001500078C1FBD8520728BF30C148BF0B60704739
:100160001FB51FBD10B510BD00F031F81146FFF7E7
:10017000F7FF02F0E1FD00F04FF803B4FFF7F2FFE4
:1001800003BC00F057F800000948804709480047C1
:10019000FEE7FEE7FEE7FEE7FEE7FEE7FEE7FEE737
:1001A000FEE7FEE704480549054A064B7047000094
:1001B000891B0008ED0000084001002040070020D6
:1001C0004003002040030020704770477047754689
:1001D00000F02CF8AE4605006946534620F00700B3
:1001E000854618B020B5FFF7DDFFBDE820404FF091
:1001F00000064FF000074FF000084FF0000B21F011
:100200000701AC46ACE8C009ACE8C009ACE8C009DD
:10021000ACE8C0098D46704710B50446AFF30080C6
:100220002046BDE81040FFF7A8BF00000048704717
:10023000E000002001491820ABBEFEE726000200C6
:10024000704700BFFEE7000010B50446032000F031
:1002500087FC207017480078000917490870154876
:10026000007800F00F00154908701548007815490E
:100270000870022000F074FC1149087008460078EC
:1002800010490978884214D00D48007800F0020027
:1002900018B101200C4908700BE00948007800F003
:1002A000080018B102200849087002E0032006493E
:1002B000087010BD7D0000207B0000207C00002025
:1002C000AC000020AD0000208E000020704700B57B
:1002D000034603E04FF47A7000F005F8181EA3F10E
:1002E0000103F7D100BD00EBC001C9004FF0E022CF
:1002F0005161002191610521116100BF4FF0E021A2
:10030000096901F480310029F8D004214FF0E0227E
:100310001161704710B501F05DF802F003FA10BDED
:100320002DE9F0410246002500260020002300248C
:10033000002791F803C00CF00F0591F803C00CF0F2
:10034000100CBCF1000F03D091F802C04CEA050577
:1003500091F800C0BCF1000F31D0146800202BE0F0
:100360004FF0010C0CFA00F3B1F800C00CEA0306E0
:100370009E4220D183004FF00F0C0CFA03F7BC43D0
:1003800005FA03FC4CEA040491F803C0BCF1280F01
:1003900006D14FF0010C0CFA00FCC2F814C00AE0C0
:1003A00091F803C0BCF1480F05D14FF0010C0CFAD5
:1003B00000FCC2F810C0401C0828D1D31460B1F86A
:1003C00000C0BCF1FF0F34DD546800202EE000F1C6
:1003D000080C4FF0010808FA0CF3B1F800C00CEA61
:1003E00003069E4221D183004FF00F0C0CFA03F755
:1003F000BC4305FA03FC4CEA040491F803C0BCF1C9
:10040000280F05D100F1080C08FA0CF8C2F8148086
:1004100091F803C0BCF1480F07D100F1080C4FF070
:10042000010808FA0CF8C2F81080401C0828CED346
:100430005460BDE8F0810000F0B50A4600230024B6
:100440000021002500F00046B6F1004F02D11D4EFC
:10045000F16901E01B4E7168C0F3034583B200F4FB
:100460004016B6F5401F08D121F07061154E766830
:1004700026F07066134F7E6012E000F48016B6F529
:10048000801F06D1032606FA05F4A14341F07061EE
:1004900006E0460D360103FA06F6B14341F07061FD
:1004A00022B1460D360103FA06F6314300F000464C
:1004B000B6F1004F02D1034EF16101E0014E7160CF
:1004C000F0BD0000000001404161704701617047CC
:1004D0000AB1016100E041617047000010B50446B7
:1004E000206838B90E4A0F490F4802F077F94FF4E7
:1004F000FA70206001230C4802780421184600F0AD
:1005000039FE0123074802780621184600F032FE22
:100510000123034802780821184600F02BFE10BD85
:100520005A000020590000205800002010B5044651
:10053000207800F0080020B3207800F007000128A0
:1005400006D0022809D003280CD0042814D10EE0CC
:1005500000F092F80B4908600EE000F0DDF80A495F
:10056000086009E000F026F90849086004E000F09E
:100570006FF90749086000BF00BF207800F007004E
:10058000207010BD5C00002060000020640000208E
:100590006800002010B5074B1B784FF47A74634352
:1005A0000360054B1B7863430B60044B1B7863436C
:1005B000136010BD58000020590000205A00002090
:1005C00010B5002000F0CCFA2349087023480078C9
:1005D0002349087023480078204908702048007893
:1005E00038B908460078012803D100201E49087058
:1005F00009E01B480078012805D11848007810B997
:100600000120194908701448007800F0800038B1C2
:1006100016480078012803D100201249087019E01B
:100620000D48007800F08000A0B91048007801283B
:1006300010D10C49087000200C4908700C498860E2
:100640000548007840F08000034A10700146002001
:1006500000F08CFB10BD0000AE000020B0000020B8
:10066000AF000020740000208B00002075000020E7
:10067000D400002000BFFEE72DE9F0411F480068CC
:1006800068B90122D1031E48FFF722FF0F20FFF7B0
:100690002AFE00224FF400411948FFF719FF1748BE
:1006A000006830B31748007818BB17490988080458
:1006B00002F0B8FF154908601048006802F0B2FF68
:1006C000044612480168204602F04AFF0F490860BC
:1006D0000846006802F018FF06460D4A0D4B02F06E
:1006E000DFFD044602F0C4FB08490860002003490E
:1006F000086006480068BDE8F0810000380000206E
:100700000008014034000020C40000204800002000
:10071000C3F5285C8FC2C53F2DE9F0411E48006833
:1007200060B9012208211D48FFF7D2FE0F20FFF714
:10073000DAFD002208211948FFF7CAFE16480068B2
:1007400030B31748007818BB16498988080402F0AE
:1007500069FF154908601048006802F063FF04460D
:1007600011480168204602F0FBFE0F490860084668
:10077000006802F0C9FE06460C4A0D4B02F090FDDF
:10078000044602F075FB0849086000200249086031
:1007900005480068BDE8F0813C000020000C0140E5
:1007A00035000020C40000204C000020C3F5285C68
:1007B0008FC2C53F2DE9F0411E48006860B9012293
:1007C00010211D48FFF784FE0F20FFF78CFD00224B
:1007D00010211948FFF77CFE1648006830B317480F
:1007E000007818BB16490989080402F01BFF154957
:1007F00008601048006802F015FF044611480168BF
:10080000204602F0ADFE0F4908600846006802F07D
:100810007BFE06460C4A0D4B02F042FD044602F0F8
:1008200027FB084908600020024908600548006865
:10083000BDE8F08140000020000C0140360000209F
:10084000C400002050000020C3F5285C8FC2C53FC3
:100850002DE9F0411E48006860B9012220211D48A1
:10086000FFF736FE0F20FFF73EFD0022202119483A
:10087000FFF72EFE1648006830B31748007818BB03
:1008800016498989080402F0CDFE15490860104810
:10089000006802F0C7FE044611480168204602F0D5
:1008A0005FFE0F4908600846006802F02DFE06460C
:1008B0000C4A0D4B02F0F4FC044602F0D9FA084948
:1008C000086000200249086005480068BDE8F08122
:1008D00044000020000C014037000020C40000202C
:1008E00054000020C3F5285C8FC2C53F08B5012124
:1008F0000D2000F0B7FC01211B48FFF79DFD2820CB
:100900008DF803004FF47070ADF800006946174889
:10091000FFF706FD10208DF803003820ADF8000029
:1009200003208DF8020069461048FFF7F9FC4FF4E8
:100930000040ADF8000069460D48FFF7F1FC01F0FA
:1009400021FC4FF400410948FFF7BEFD082107488C
:10095000FFF7BAFD10210548FFF7B6FD2021034837
:10096000FFF7B2FD08BD000000023000000C01409E
:100970000008014010B500F025F800F023FB00F05E
:10098000F5F800F0F9FCFFF7B1FF01F0EDFA01F026
:10099000EFFFFFF7BFFC00F089FD10BD10B54FF46D
:1009A00000510248FFF792FD10BD00000010014009
:1009B00010B54FF400510248FFF786FD10BD00004E
:1009C0000010014008B50121102000F04BFC4FF44D
:1009D0000050ADF8000010208DF8030003208DF8C2
:1009E000020069460548FFF79BFC4FF4005103489D
:1009F000FFF76AFDFFF7D2FF08BD000000100140BD
:100A000000BFFEE770B504462046FFF78FFD4A4859
:100A1000006802F079FD05464FF06632474B02F060
:100A20003DFD05D246A20321084600F0C5FB1FE0AC
:100A30004148006802F068FD0546424A424B02F018
:100A40002DFD10D23C48006802F05EFD05464FF0D7
:100A500066323A4B02F0E8FB05D83CA20321084677
:100A600000F0AAFB04E03AA20321084600F0A4FB30
:100A70003848006802F048FD05464FF066322F4BBB
:100A800002F00CFD05D22EA20821032000F094FBF9
:100A90001FE03048006802F037FD0546294A2A4B1E
:100AA00002F0FCFC10D22B48006802F02DFD054638
:100AB0004FF06632214B02F0B7FB05D823A2082184
:100AC000032000F079FB04E021A20821032000F0BC
:100AD00073FB2148006802F017FD05464FF06632AF
:100AE000164B02F0DBFC05D215A20E21032000F00C
:100AF00063FB1FE01848006802F006FD0546114A36
:100B0000114B02F0CBFC10D21348006802F0FCFC41
:100B100005464FF06632094B02F086FB05D80BA262
:100B20000E21032000F048FB04E009A20E2103205F
:100B300000F042FB70BD00005C000020663665409E
:100B40004C6F0000CDCCCCCCCC2C4F404D6900007C
:100B5000467500006000002064000020704700001F
:100B600001460148405C70471E00002000B587B078
:100B70000121080300F076FB0121D42000F072FB74
:100B800018208DF81B00E020ADF8180003208DF828
:100B90001A0006A94448FFF7C3FB10208DF81B007C
:100BA0001220ADF8180006A93F48FFF7B9FB48200E
:100BB0008DF81B000120ADF8180006A93B48FFF78F
:100BC000AFFB012210213848FFF782FC00220221EE
:100BD0003548FFF77DFC012211463448FFF778FCC9
:100BE0000020ADF804004FF48270ADF8060000203C
:100BF000ADF80800ADF80A00ADF80C004FF4007035
:100C0000ADF80E000820ADF810000020ADF812007D
:100C10000720ADF8140001A9254800F09BFC012134
:100C2000234800F07DFC0821202000F0A5F83F219A
:100C3000212000F0A1F80321222000F09DF80321DB
:100C4000232000F099F80321242000F095F80221D8
:100C5000252000F091F80E21262000F08DF80021CB
:100C6000272000F089F80021312000F085F80021CC
:100C7000322000F081F80021332000F07DF80021BF
:100C8000342000F079F80021352000F075F80021BB
:100C9000362000F071F8E22000F00CF8E12000F0BE
:100CA00009F807B000BD000000080140000C014039
:100CB0000030014070B50446002210210848FFF7BB
:100CC00007FC204600F064FC002000F061FC0546B3
:100CD000012210210248FFF7FBFB284670BD0000EF
:100CE000000801402DE9F04107460D461646002256
:100CF00010210C48FFF7ECFB384600F049FC804619
:100D0000002405E0002000F043FC2855601CC4B21C
:100D1000B442F7DB012210210248FFF7D9FB40461D
:100D2000BDE8F0810008014010B50720FFF7C2FFC1
:100D30000C4908700846007800F0400030B10822E5
:100D400009496120FFF7CEFF012400E00024054897
:100D50000178272000F010F8E220FFF7ABFF2046D3
:100D600010BD0000180000201E000020014A115490
:100D7000704700001E00002070B505460C4600229A
:100D800010210848FFF7A4FB284600F001FC0646A6
:100D9000204600F0FDFB012210210248FFF798FBDE
:100DA000304670BD000801402DE9F04107460D4670
:100DB0001646002210210C48FFF78AFB384600F047
:100DC000E7FB8046002404E0285D00F0E1FB601CA6
:100DD000C4B2B442F8DB012210210348FFF778FBCC
:100DE0004046BDE8F08100000008014008B54FF41E
:100DF000A06000F047F826208DF8000001208DF853
:100E000001008DF802008DF80300684600F002F83A
:100E100008BD000070B5002100230F22C47804B380
:100E2000154C246804F4E064C4F5E064210AC1F1BF
:100E30000403CA40447804FA03F18478144021433F
:100E400009010E4C0678A155047804F01F05012411
:100E5000AC4005786D11AD0005F1E025C5F8004105
:100E600009E0047804F01F050124AC40044D067825
:100E7000761145F8264070BD0CED00E000E400E07E
:100E800080E100E002490143024A1160704700001E
:100E90000000FA050CED00E070B500240EE0002122
:100EA000204600F0F0F8002504E0002000F0A8F94A
:100EB000681CC5B2802DF8DB601CC4B2082CEEDBC8
:100EC00070BD000008B50121082000F0CBF9142006
:100ED0008DF8030003208DF802004FF40060ADF898
:100EE000000069460A48FFF71BFA4FF48050ADF83E
:100EF000000069460648FFF713FA0122D1020448B0
:100F0000FFF7E6FA012211030148FFF7E1FA08BDF5
:100F10000008014070B50546002415E080202041FE
:100F200000EA05024FF480510E48FFF7D1FA012282
:100F3000D1020C48FFF7CCFA00224FF400610948B7
:100F4000FFF7C6FA601CC4B2082CE7DB0122D1020D
:100F50000448FFF7BDFA00224FF400610148FFF793
:100F6000B7FA70BD0008014010B5012211030A480C
:100F7000FFF7AEFA0122D1020748FFF7A9FA0022D3
:100F80004FF480510448FFF7A3FA00224FF40061A8
:100F90000148FFF79DFA10BD0008014010B500227E
:100FA0004FF480510648FFF793FA0122D10204481A
:100FB000FFF78EFA012211030148FFF789FA10BDED
:100FC0000008014070B5002406E0002500E06D1C1B
:100FD000B5F57A7FFBD3641CB4F57A7FF5D3FFF7C0
:100FE00071FFAE2000F0FCF8D52000F0F9F8802069
:100FF00000F0F6F8A82000F0F3F83F2000F0F0F839
:10100000D02000F0EDF8002000F0EAF8402000F0D9
:10101000E7F8A12000F0E4F8C82000F0E1F8DA20B9
:1010200000F0DEF8122000F0DBF8812000F0D8F8A4
:10103000CF2000F0D5F8D92000F0D2F8F12000F050
:10104000CFF8DB2000F0CCF8302000F0C9F8A42065
:1010500000F0C6F8A62000F0C3F88D2000F0C0F81C
:10106000142000F0BDF8AF2000F0BAF8FFF714FF2D
:1010700070BD10B50246012000E050430B1EA1F1E7
:101080000101FAD110BD70B505460C4645F0B0001F
:1010900000F0A6F8102141EA141000F0A1F804F0C5
:1010A0000F0141F0020000F09BF870BD2DE9F04106
:1010B00005460E461746721ED206110E6A1E5206CD
:1010C000100EFFF7E0FF002409E0A7F12001134A0A
:1010D00002EB0111085D00F093F8601CC4B2082C0B
:1010E000F3DB721ED206110E6A1E012303EB4202CD
:1010F000D0B2FFF7C8FF00240BE0A7F12001074A98
:1011000002EB011204F10801505C00F079F8601C58
:10111000C4B2082CF1DBBDE8F0810000CA3700083A
:101120002DE9F04781460E4690461F4600241DE0FB
:10113000381B411E1020FFF79CFFB8FBF0F000F0B9
:101140000F050A2D08DA05F13000C2B23019C1B21C
:101150004846FFF7ABFF07E005F13700C2B2301990
:10116000C1B24846FFF7A2FF601CC4B2BC42DFDB3D
:10117000BDE8F0872DE9F04780460E4617461D462C
:10118000002415E0281B411E0A20FFF772FFB7FB61
:10119000F0F00A21B0FBF1F201FB120000F130097E
:1011A0003019C1B24A464046FFF780FF601CC4B206
:1011B000AC42E7DBBDE8F0872DE9F04107460E467B
:1011C0001546002407E02A5D3019C1B23846FFF702
:1011D0006DFF601CC4B2285D0028F4D1BDE8F08129
:1011E00010B50446FFF7C0FE7820FFF793FE0020FD
:1011F000FFF790FE2046FFF78DFEFFF7CFFE10BDF4
:1012000010B50446FFF7B0FE7820FFF783FE4020BC
:10121000FFF780FE2046FFF77DFEFFF7BFFE10BD03
:101220007047000029B1064AD2690243044BDA61D3
:1012300004E0034AD2698243014BDA61704700003F
:101240000010024029B1064A12690243044B1A6198
:1012500004E0034A12698243014B1A61704700009F
:101260000010024029B1064A92690243044B9A6178
:1012700004E0034A92698243014B9A61704700007F
:101280000010024029B1064AD2680243044BDA60DA
:1012900004E0034AD2688243014BDA6070470000E1
:1012A0000010024030B500210022002400232D4D03
:1012B0006D6805F00C0121B1042905D0082923D15E
:1012C00005E0294D056022E0274D05601FE0254D12
:1012D0006D6805F47012234D6D6805F480340225A5
:1012E00005EB92421CB9214D554305600BE01D4DA5
:1012F0006D6805F400351DB11C4D5543056002E0D5
:10130000194D5543056002E0174D056000BF00BF51
:10131000144D6D6805F0F0010909154D6B5C056809
:10132000DD4045600F4D6D6805F4E061090A104D20
:101330006B5C4568DD4085600A4D6D6805F4605161
:10134000C90A0B4D6B5C4568DD40C560054D6D6895
:1013500005F44041890B074D6B5CC568B5FBF3F59F
:10136000056130BD0010024000127A0000093D0006
:10137000000000201000002010B5002202211348B8
:10138000FFF7A6F8052212492A20FFF70DFD0121DB
:101390002120FFF7F1FC01212220FFF7EDFC28219D
:1013A0002520FFF7E9FC08213120FFF7E5FC0721A4
:1013B0002620FFF7E1FC0F212020FFF7DDFC0122B2
:1013C00002210248FFF784F810BD00000008014028
:1013D0001900002008B501210920FFF743FF012172
:1013E0001248FFF729F810208DF803004FF47040E1
:1013F000ADF8000003208DF8020069460C48FEF7A6
:101400008FFF4FF480510A48FFF75EF84FF4005108
:101410000748FFF759F84FF480410548FFF754F8A3
:101420004FF400410248FFF74FF808BD00023000BA
:10143000000C014070B504460D46042C0FD12A461D
:1014400081021948FFF744F82A46E1021648FFF7DF
:101450003FF82A4621031448FFF73AF823E0012C0D
:1014600009D10520FFF77CFB28B12A4621030E484D
:10147000FFF72EF817E0022C09D10620FFF770FBCA
:1014800028B12A4621030848FFF722F80BE0032C75
:1014900009D10720FFF764FB28B12A464FF48041A9
:1014A0000148FFF715F870BD000C014010B5002190
:1014B0000E4801F01BF900210D4801F017F90D4904
:1014C0000A4801F013F90B49094801F00FF90A2005
:1014D000FEF7FDFE0849054801F008F906490448F1
:1014E00001F004F90A20FEF7F2FE10BD00480040AA
:1014F000004400402307001CC6C4000270B5044627
:101500000D4622460621044801F0CAF82A46062163
:10151000024801F0C5F870BD00480040004400409A
:1015200021B1028842F04002028004E002884FF6B6
:10153000BF731A40028070470246002013890B4097
:101540000BB1012000E000207047014688897047F8
:101550008181704710B50022028802F441520B8845
:101560004C8823438C882343CC8823430C89234312
:101570004C8923438C892343CC8923431A4302801B
:10158000838B4FF2FF74234083830B8A038210BD49
:1015900010B504464FF48050174908600AE0164918
:1015A0000868411E144A116020B9002000F028F894
:1015B000C0B210BD02211148FFF7BEFF0028EED0D7
:1015C00021460E48FFF7C4FF0AE00B490868411E98
:1015D000094A116020B9012000F012F8C0B2E8E712
:1015E00001210648FFF7A8FF0028EED00348FFF7C7
:1015F000ACFFC0B2DDE70000300000200030014049
:1016000010B504460123224619460220FFF7B2FD19
:10161000002010BD704710B500F002F810BD0000AA
:101620000CB50020019000903348006840F48030F1
:101630003149086000BF3048006800F40030009075
:101640000198401C0190009818B90198B0F5A06F5E
:10165000F1D12948006800F4003010B10120009059
:1016600001E0002000900098012843D12348006841
:1016700040F01000214908600846006820F003008F
:1016800008600846006840F0020008601A48406898
:10169000194948600846406848600846406840F478
:1016A000806048600846406820F47C104860084626
:1016B000406840F4E81048600846006840F08070D8
:1016C000086000BF0C48006800F000700028F9D0E6
:1016D0000948406820F00300074948600846406810
:1016E00040F00200486000BF0348406800F00C0072
:1016F0000828F9D10CBD0000001002400020024073
:101700000249088002490880704700007E000020DE
:10171000800000202DE9F04704460CB314F1640F5B
:101720001FDB642C1DDCC4EB0410800000EB800088
:10173000C40004EB84004000FA2190FBF1F9484614
:1017400001F05BFD0746094A094B01F0CFFB054656
:1017500001F024FD0446600340F6B83190FBF1F43B
:1017600000E0002420B2BDE8F08700001F85EB51A7
:10177000B81E094070B506460C461546306820B1C3
:1017800001210846FFF756FE03E000210120FFF784
:1017900051FE206820B101210220FFF74BFE03E03B
:1017A00000210220FFF746FE286820B10121032016
:1017B000FFF740FE03E000210320FFF73BFE70BD72
:1017C00010B502238348B0F900200F210420FFF751
:1017D000D1FC0220FFF7C4F905287BD17E480078B0
:1017E0000A2857D2DFE800F05609141E272D394485
:1017F0004F050020FFF784FF4CE07648B0F9000069
:101800000A2190FBF1F002B21046FFF779FF41E0A8
:101810007049B1F90020D11702EB91718810FFF7E0
:101820006FFF37E06B49B1F9002002EBD27148102D
:10183000FFF766FF2EE06748B0F90000FFF760FF92
:1018400028E06448B0F9000040420A2190FBF1F022
:1018500002B21046FFF754FF1CE05E49B1F90010D8
:101860004A42D11702EB91718810FFF749FF11E04E
:101870005849B1F900104A4202EBD271491008B23E
:10188000FFF73EFF06E053480088404200B2FFF7F2
:1018900037FF00BF00BF0120504908705049087051
:1018A000504800780A285BD2DFE800F05A05061598
:1018B000222E2F3D4A5653E04648B0F900000A2137
:1018C00090FBF1F002B21046FFF71AFFFF204349E8
:1018D000087045E07DE03F49B1F90020D11702EBE7
:1018E00091718810FFF70CFFFF203C49087037E02A
:1018F0003849B1F9002002EBD2714810FFF700FF20
:10190000FF20364908702BE02AE03248B0F9000089
:101910000A2190FBF1F002B21046FFF7F1FEFF2022
:101920002F4908701CE02B49B1F90020D11702EBB8
:1019300091718810FFF7E4FEFF20294908700FE03D
:101940002449B1F9002002EBD2714810FFF7D8FE0C
:10195000FF202349087003E00020FFF7D1FE00BFFD
:1019600000BF0120FFF7FCF8082828D006DC01287A
:101970000BD0022814D004282AD11AE010281FD036
:10198000202823D0402823D121E040F2011116481D
:1019900000F0ACFE40F20111144800F0A7FE17E081
:1019A0000021114800F0A2FE0021104800F09EFE28
:1019B0000EE000200E4908800E49088008E007E08C
:1019C0000420FFF7CDF80349088001E000E000BFE4
:1019D00000BF10BD6E0000207C00002088000020A9
:1019E000890000207B0000200048004000440040A7
:1019F0007E0000208000002010B50220FFF7B0F824
:101A0000042826D10120FFF7ABF8082806D01028BB
:101A10000BD0202810D040281AD113E0FF203149E4
:101A2000087001203049087012E001202D4908702B
:101A3000FF202D4908700BE001202A4908702A492F
:101A4000087005E0FF20274908702749087000BF8B
:101A500000BF0120FFF784F8082809D10420FFF710
:101A60007FF8224908800846B0F90000FFF748FED9
:101A70000020FFF775F8032805D11D4A1D491E48AF
:101A8000FEF788FD00BF00BF0120FFF769F830B105
:101A900001280AD0022813D0042820D119E0002000
:101AA000164908801649088019E040F201111548CE
:101AB00000F01CFE40F20111134800F017FE0EE08A
:101AC0000021104800F012FE00210F4800F00EFE29
:101AD00005E00020094908800949088000BF00BFCF
:101AE00010BD000086000020870000206C00002050
:101AF000A8000020A0000020980000207E00002008
:101B000080000020004800400044004010B5012043
:101B1000FFF726F8082827D007DC68B1012811D084
:101B200002281AD0042823D118E010281DD020281C
:101B30001CD040281CD11AE000200E4908800E4914
:101B4000088015E040F201110C4800F0CFFD40F292
:101B500001110B4800F0CAFD0AE009E00020054928
:101B600008800549088003E002E001E000E000BFD2
:101B700000BF10BD7E000020800000200048004013
:101B8000004400407047000010B51348006840F062
:101B900001001149086008464068104908400E4994
:101BA0004860084600680E4908400B49086008462E
:101BB000006820F4802008600846406820F4FE0099
:101BC00048604FF41F008860FFF725FD4FF000606C
:101BD0000449086010BD0000001002400000FFF83A
:101BE000FFFFF6FE08ED00E0F0B50C4615460022BA
:101BF0000021068C4FF6FE773E400684028B018C56
:101C00004FF60C7632407E1C06EA03162E43324312
:101C1000104EB0420ED0104EB0420BD0B0F1804FFB
:101C200008D00E4EB04205D00D4EB04202D00D4E3F
:101C3000B04206D14FF6FD76314044F00106314303
:101C400005E04FF6F576314044F00106314302835A
:101C50000184F0BD002C014000340140000400402C
:101C600000080040000C0040F0B50C46154600226C
:101C700000210026078C4FF6EF7C07EA0C0707844B
:101C8000028B018C4FF6FF7707EA041640F6FF47F8
:101C90003A404FF6FF7707EA03373A434FF6FF77AC
:101CA00007EA05273A43114FB8420ED0104FB84209
:101CB0000BD0B0F1804F08D00E4FB84205D00E4F78
:101CC000B84202D00D4FB84206D14FF6DF77394007
:101CD00046F01007394305E04FF65F77394044F08E
:101CE0001007394302830184F0BD0000002C01403D
:101CF000003401400004004000080040000C004097
:101D0000F0B50C461546002200210026078C4FF640
:101D1000FF6C07EA0C070784828B018C4FF6FF7774
:101D200007EA04264FF60C773A404FF6FF7707EAAA
:101D300003172F433A43114FB8420ED0104FB84209
:101D40000BD0B0F1804F08D00E4FB84205D00E4FE7
:101D5000B84202D00D4FB84206D14FF6FF57394076
:101D600046F48077394305E04FF2FF57394044F499
:101D70008077394382830184F0BD0000002C01404C
:101D8000003401400004004000080040000C004006
:101D9000F0B50C461546002200210026078C4EF6B1
:101DA000FF7C07EA0C070784828B018C4FF6FF77D4
:101DB00007EA043640F6FF473A404FF6FF7707EA56
:101DC00005273A434FF6FF7707EA03373A43114FA7
:101DD000B8420ED0104FB8420BD0B0F1804F08D0AF
:101DE0000E4FB84205D00E4FB84202D00D4FB84248
:101DF00006D14DF6FF77394046F48057394305E068
:101E000047F6FF57394044F48057394382830184B1
:101E1000F0BD0000002C01400034014000040040EF
:101E200000080040000C004010B50121880700F0B8
:101E30001EFB012875D145488068401C43498860D5
:101E400008468068B0F5FA7F03D301204049087046
:101E500002E000203E4908703C480068401C3B49B5
:101E6000086008460068642816D3002008603948D6
:101E7000007800F00700042805DA36480078401C96
:101E80003449087002E00120324908703148007876
:101E900040F008002F4908702F48006828B12E48EC
:101EA0000068401E2C49086002E000202A490860B2
:101EB0002A48006828B129480068401E2749086060
:101EC00002E00020254908602548006828B1244820
:101ED0000068401E2249086002E000202049086096
:101EE0002048006828B11F480068401E1D4908604E
:101EF00002E000201B4908601848406828B11748D4
:101F00004068401E1549486002E0002013494860BF
:101F10001348406830B112484068401E104948607C
:101F200003E00EE000200E4948600E48406828B1EA
:101F30000C484068401E0B49486002E000200949F7
:101F400048600121880700F082F910BDD40000200C
:101F500075000020730000209000002094000020F5
:101F60009C000020A40000201FB501210846FFF7B7
:101F700059F94FF47A70ADF808004720ADF8040025
:101F80000020ADF80A00ADF8060001A94FF080402E
:101F900000F034FB1C208DF8000002208DF80100B9
:101FA0008DF8020001208DF803006846FEF732FF2D
:101FB0000121880700F048F901221146900700F03E
:101FC000B5FA0121880700F045F91FBD10B50121C0
:101FD000624800F04CFA012823D1614800780128BA
:101FE00004D160480068401C5E4908605E48007883
:101FF000012804D15B484068401C5A4948605B484E
:102000000078012804D157488068401C55498860F1
:1020100057480078012804D15248C068401C5149F3
:10202000C86002214D4800F022FA00B34C48007805
:1020300088B901204A49087000204A4908600021F7
:10204000464800F0ACFA00204A49086002214348A3
:1020500000F075FA0BE00020414908703F4800F09D
:10206000F9F94449086000213C4800F068FA04216D
:102070003A4800F0FCF900B33B48007888B90120E9
:10208000394908700020374948600021334800F082
:1020900086FA0020384908600221304800F058FADA
:1020A0000BE00020304908702C4800F0D6F9324986
:1020B00008600021294800F04BFA0821274800F069
:1020C000D6F900B32948007888B90120274908705B
:1020D0000020244988600021204800F060FA002098
:1020E0002649086002211D4800F03FFA0BE000205D
:1020F0001E490870194800F0B3F920490860002112
:10210000164800F032FA1021144800F0B0F900B37C
:102110001748007888B90120154908700020114936
:10212000C86000210D4800F03AFA00201449086008
:1021300002210A4800F026FA0BE000200C49087042
:10214000064800F090F90E4908600021034800F0AD
:1021500019FA1F21014800F07AF810BD000800406C
:1021600034000020C400002035000020360000208C
:1021700037000020380000203C00002040000020F4
:102180004400002000B587B001210420FFF74AF881
:102190002C4800F06BF84FF6FE70ADF814004720A5
:1021A000ADF810000020ADF81600ADF8120004A93B
:1021B000244800F023FA0020ADF80400ADF80C002C
:1021C000ADF80600ADF80A000120ADF8080001A93D
:1021D0001C4800F055F90420ADF8040001A9194885
:1021E00000F04EF90820ADF8040001A9154800F0F0
:1021F00047F90C20ADF8040001A9124800F040F99D
:102200004FF4A060FEF73EFE1E208DF80000022075
:102210008DF8010000208DF8020001208DF80300E8
:102220006846FEF7F7FD1F21064800F00DF8012271
:102230001F21044800F07AF90121024800F00AF851
:1022400007B000BD00080040CA4302827047CA437D
:102250000282704721B1028842F00102028004E04C
:1022600002884FF6FE731A400280704710B504468C
:102270006848844208D10121C014FFF703F8002107
:10228000E014FEF7FFFFC4E0B4F1804F08D1012154
:102290000846FEF7D7FF00210120FEF7D3FFB8E084
:1022A0005D48844208D101210220FEF7CBFF0021C6
:1022B0000220FEF7C7FFACE05848844208D1012154
:1022C0000420FEF7BFFF00210420FEF7BBFFA0E0C3
:1022D0005348844208D101210820FEF7B3FF0021B2
:1022E0000820FEF7AFFF94E04E48844208D1012158
:1022F0001020FEF7A7FF00211020FEF7A3FF88E0C3
:102300004948844208D101212020FEF79BFF00218B
:102310002020FEF797FF7CE04448844208D1012149
:102320004014FEF7AFFF00216014FEF7ABFF70E032
:102330003F48844209D10121C804FEF7A3FF0021D0
:102340004FF40020FEF79EFF63E03A48844209D133
:1023500001210805FEF796FF00214FF48010FEF7DB
:1023600091FF56E03448844209D101214805FEF727
:1023700089FF00214FF40010FEF784FF49E02F4849
:10238000844208D101214020FEF75CFF002140205B
:10239000FEF758FF3DE02A48844208D10121802001
:1023A000FEF750FF00218020FEF74CFF31E025486A
:1023B000844208D101218015FEF744FF0021A015B9
:1023C000FEF740FF25E02048844209D1012108049E
:1023D000FEF758FF00214FF48030FEF753FF18E05E
:1023E0001A48844209D101214804FEF74BFF00211D
:1023F0004FF40030FEF746FF0BE01548844208D149
:1024000001218804FEF73EFF00214FF48020FEF7F3
:1024100039FF10BD002C01400004004000080040BE
:10242000000C004000100040001400400034014047
:10243000004C014000500140005401400018004091
:10244000001C0040002000400040014000440140CA
:10245000004801400146888E70470146088F70474A
:102460000146888F70470146B1F840007047024628
:102470000020138A0B400BB1012000E000207047C0
:1024800070B505460C46244885420ED02348854247
:102490000BD0B5F1804F08D02148854205D02148A6
:1024A000854202D02048854200D100E000BF20884C
:1024B00050B92389A28861882846FFF795FBE188F7
:1024C000284600F06EF825E0208804280AD12389E8
:1024D000A28861882846FFF7C7FBE188284600F0FC
:1024E00069F817E0208808280AD12389A288618822
:1024F0002846FFF705FCE188284600F068F809E067
:102500002389A28861882846FFF742FCE188284693
:1025100000F066F870BD0000002C0140003401405E
:102520000004004000080040000C00401AB18389FC
:102530000B43838102E083898B43838170470A4682
:102540000021018C4FF6FD7319401143018470473F
:102550000A460021018C4FF6DF7319404FF6FF73D6
:1025600003EA02131943018470470A460021018CD3
:102570004FF6FF5319404FF6FF7303EA0223194346
:10258000018470470A460021018C4DF6FF73194003
:102590004FF6FF7303EA02331943018470478184C5
:1025A0007047028B4FF6F3731A400283028B0A4383
:1025B00002837047028B4FF2FF331A400283028B73
:1025C0004FF6FF7303EA01231A4302837047828B9D
:1025D0004FF6F3731A408283828B0A4382837047DB
:1025E000828B4FF2FF331A408283828B4FF6FF7348
:1025F00003EA01231A438283704700000022028805
:102600001D4B98420ED01D4B98420BD0B0F1804F1D
:1026100008D01B4B984205D01A4B984202D01A4B57
:10262000984204D14FF68F731A404B881A43174BC8
:10263000984207D0164B984204D04FF6FF431A40F9
:10264000CB881A4302808B8883850B8803850A4BCD
:1026500098420BD0094B984208D00E4B984205D0B7
:102660000D4B984202D00D4B984201D10B7A038654
:102670000123838270470000002C01400034014098
:102680000004004000080040000C00400010004022
:102690000014004000400140004401400048014057
:1026A0002DE9F84307460C4615468DF80040280AE8
:1026B00040B28DF8010068B28DF802009DF901006A
:1026C00020449DF9021000EB01084FFA88F08DF8C4
:1026D0000300002606E01DF90610384600F07BFADC
:1026E000701C46B2042EF6DBBDE8F883F8B506464A
:1026F0000C46200E8DF80000200C8DF80100200AF9
:102700008DF80200E0B28DF80300002507E01DF807
:10271000050041B2304600F05EFA681CC5B2042DD7
:10272000F5DBF8BD00B587B001210420FEF79AFD66
:1027300001218803FEF796FD18208DF81B004FF449
:102740000070ADF8180003208DF81A0006A9214882
:10275000FDF7E6FD04208DF81B000002ADF818001F
:1027600003208DF81A0006A91A48FDF7D9FD4FF489
:10277000165002900020ADF814000C20ADF81200A5
:102780000020ADF81000ADF80E00ADF80C0002A965
:10279000114800F0A9F94FF4A060FEF773FB252063
:1027A0008DF8040001208DF8070002208DF8050047
:1027B0008DF8060001A8FEF72DFB012240F22551FD
:1027C000054800F06CF90121034800F0C4F807B097
:1027D00000BD000000080140003801402DE9F04133
:1027E00004460D46164600203649087061213648D9
:1027F00000F0EBF9002701E0781CC7B20C2FFBDBDF
:1028000032484078302807DB30488078302803DBB6
:102810002E48C078302802DA0020207010E02B48C3
:10282000407830386421484328498978303901EBB1
:10283000810100EB41012548C07830380844207000
:1028400022484079302807DB20488079302803DB94
:102850001E48C079302802DA0020287010E01B489A
:10286000407930386421484318498979303901EB7F
:10287000810100EB41011548C079303808442870C7
:102880001248407A302807DB1048807A302803DB72
:102890000E48C07A302802DA0020307010E00B4871
:1028A000407A3038642148430849897A303901EB4D
:1028B000810100EB41010548C07A3038084430708E
:1028C000BDE8F0811600002000380140B40000206F
:1028D00010B52021144800F0D5F801281ED1124867
:1028E00000F06EF911490880084601781048027816
:1028F0000078401C0E4B18700E4881541846007822
:102900000D2804DD0020194608700A49087300BF2D
:102910008021054800F0B6F80128F9D120210248AD
:1029200000F00AF810BD000000380140140000203B
:1029300016000020B400002010B50022002340F64D
:102940006A14A14200D100BF0A1201249440A3B22C
:10295000DC43048010BD21B1828942F4005282819F
:1029600004E082894DF6FF731A40828170470000AF
:1029700000B58BB001210420FEF774FC012148044E
:10298000FEF750FC0420ADF8280018208DF82B002D
:1029900003208DF82A000AA93648FDF7C1FC08205B
:1029A000ADF8280004208DF82B000AA93148FDF766
:1029B000B7FC4FF4614006900020ADF81C00ADF864
:1029C0001E00ADF82000ADF824000C20ADF8220068
:1029D00006A9294800F088F8FEF708FA012240F21B
:1029E0002551254800F05BF801212348FFF7B3FF8C
:1029F00001210820FEF736FC01218804FEF712FCB5
:102A00004FF48060ADF8140018208DF817000320F3
:102A10008DF8160005A91948FDF782FC4FF40060F7
:102A2000ADF8140004208DF8170005A91348FDF730
:102A300077FC4FF4614001900020ADF80800ADF83C
:102A40000A00ADF80C00ADF810000C20ADF80E0037
:102A500001A90B4800F048F8FEF7C8F9012240F23E
:102A60002551074800F01BF801210548FFF773FFC7
:102A70000BB000BD0008014000440040000C0140C4
:102A80000048004002460020B1F5007F00D100BFA1
:102A900013880B400BB1012000E000207047F0B517
:102AA0000346002400260025002040F66A17B9429C
:102AB00000D100BF1846C1F3421401F01F060127E0
:102AC00007FA06F5012C01D10C3004E0022C01D1EB
:102AD000103000E014301AB107682F43076002E09D
:102AE0000768AF430760F0BD2DE9F04786B00546A3
:102AF0000E460024A24600BFA1460027B08900B1BF
:102B000000BF2F462C8A4CF6FF700440F088044327
:102B10002C82AC894EF6F3100440B088318908430A
:102B2000718908430443AC81AC8A4FF6FF400440EE
:102B3000B0890443AC8201A8FEF7B4FB1F4887426A
:102B400002D1DDF810A001E0DDF80CA0A88900F4A6
:102B5000004040B10AEBCA0000EB0A10316849009E
:102B6000B0FBF1F807E00AEBCA0000EB0A1031688D
:102B70008900B0FBF1F86420B8FBF0F004012009F3
:102B8000642101FB1089A88900F4004040B1322083
:102B900000EBC900B0FBF1F000F00700044308E0CF
:102BA000322000EB09106421B0FBF1F000F00F00BF
:102BB00004432C8106B0BDE8F087000000380140D6
:102BC00001468888C0F308007047C1F3080282807C
:102BD000704700BFFEE770B505460C46A1B2284617
:102BE000FFF7F3FF01E0FDF7E3FE80212846FFF742
:102BF00049FF0028F7D070BD10B54248FDF76EFCC4
:102C0000414A42494248FEF7B5FD4248FDF7FAFE07
:102C10000720FEF74FF8404908700120FEF74AF8F8
:102C20003E4908700220FEF745F83D4908700A2029
:102C3000FEF740F83B4908701720FEF73BF83A4989
:102C40000870FEF771F83949087037480078112884
:102C500005D04FF480713648FDF736FC04E04FF4A0
:102C600080713348FDF732FC02232B4802780121A2
:102C70000420FEF755FA022328480278042108466A
:102C8000FEF74EFA02232648027807210420FEF7B9
:102C900047FA0223234802780A210420FEF740FA6B
:102CA0000223214802780D210420FEF739FA002082
:102CB000FDF756FF48B10020FDF752FF04460223FE
:102CC000224601210846FEF72BFA1848007810B179
:102CD0000020164908700820FDF7F9FA0020FDF7DA
:102CE0003FFF0120FDF73CFF0220FDF739FF0320E5
:102CF000FDF736FF0420FDF733FF0E48FDF7A4FA79
:102D000010BD000090000020A40000209C000020C6
:102D100094000020730000207A000020760000203C
:102D20007700002078000020790000207200002049
:102D3000000801407D000020FDF71CFE3BA20121A0
:102D40000320FEF739FA3AA206210320FEF734FAEF
:102D500038A20C210320FEF72FFA65E00423364841
:102D600002780C210120FEF7DBF93448042301210D
:102D700042680220FEF7FEF931480423062142682A
:102D80000220FEF7F7F92F4804230B2142680220A6
:102D9000FEF7F0F9FFF730FF2B480078012804D048
:102DA000022805D0032809D105E0FEF7AFFE05E0B3
:102DB000FEF722FE02E0FEF703FD00BF00BFFDF7B5
:102DC000FFFB22480078012804D100202049088018
:102DD000204908801E48B0F90000FEF79BFC1E4900
:102DE00091F900101D4A92F900205143484300B266
:102DF0001B4908801748B0F90000FEF78BFC194901
:102E000091F90010184A92F900205143484300B24A
:102E1000164908800846B0F900101148B0F90000C2
:102E2000FEF76CFBFDF7BAFD98E70000313A0000B1
:102E3000323A0000333A00007D0000209400002068
:102E40009C000020A40000208E0000208B000020A9
:102E50007E000020800000208800002086000020E6
:102E600084000020890000208700002082000020CC
:102E700021F00042A2F16052B2F5801F01F0004340
:102E800028BFD2F17F6C0BD95FEA001C43EAC20273
:102E900042EB507018BF704728BF20F00100704708
:102EA000B2F5801FBCBF184670474FEA410C1CF5B5
:102EB000001F02D2084600F00EBC70B500F09AFA6E
:102EC00000000089FFF7F6BF4FF00040A0F580003A
:102ED0007047491058BFC1F140415B1058BFC3F162
:102EE00040438B42EFF30080704700002DE9C04162
:102EF00030B4DFF8A0C23CEA111418BF3CEA131446
:102F000000F0EC8081EA03051CEA111444EAD57450
:102F100018BF1CEA131500F0C780A4EB05044FF09E
:102F2000004545EAC12145EAC32341EA505143EA3D
:102F3000525304F17F74994204F500344FEAC020E3
:102F40004FEAC22208BF904200F09C804FEA13650E
:102F50000FF24016765D4FEA134506FB05F7C7F101
:102F6000807706FB07F74FEAD737A7FB036876425F
:102F7000C8F58038A7FB06CE38BFA8F1010807FBCB
:102F800008E64FF0000EA6FB028CE6FB03CEDCF158
:102F9000000CCEF1004E38BFAEF1010EA6FB0C586E
:102FA0004FF000074FF00005E6FB0E87A1FB08C6B7
:102FB000A0FB07CE16EB0E0645F10005E1FB076509
:102FC00015F1E04E7EBFA4F580345FEA46066D4100
:102FD00016F1800745F100054FEA17274FEA06660C
:102FE00047EA0567A6F1DE46B6F1805F4FEA152590
:102FF0001FD9384624F0010C05EBC471BCF1FE6FFB
:1030000001EB0C1102D8F0BCBDE8008124425CBF8A
:1030100001F5801E9EEAC47F02D4F0BCBDE80081A9
:10302000244238D4F0BCA1F1C041BDE8004100F019
:103030002FBA4FEAD22242EA43524FEAD323A7FBE8
:1030400002864FEAD02040EA415007FB03661EEAA1
:103050000E0F4FEAD12105FB026658BFA6EB0056C2
:10306000B6EB00564FEA520E4EEAC37E18EB0E0E38
:1030700056EB530EBDD518EB02085E417F1C55F18F
:103080000005B6E74FF480154FF000074FF000063B
:103090004FF00008ADE7F0BC4FF0000001F1C04177
:1030A00001F00041BDE8008111EA0C1F0CEA131584
:1030B00000D00CE013EA0C1F00F025804FF0000058
:1030C000F0BC81EA030101F00041BDE80081F0BCE1
:1030D000BDE8004181EA030100F0DAB9F0BCBDE8C7
:1030E000004170B500F086F9097EFC3E00F007B89B
:1030F00081EA03014FF0000001F00041704781EACE
:10310000030100F0C5B9F0BCBDE800414FF000007C
:1031100021497047FFFDFBF9F7F5F4F2F0EEEDEB16
:10312000E9E8E6E4E3E1E0DEDDDBDAD8D7D5D4D3C5
:10313000D1D0CFCDCCCBCAC8C7C6C5C4C2C1C0BF11
:10314000BEBDBCBBBAB9B8B7B6B5B4B3B2B1B0AF17
:10315000AEADACABAAA9A8A8A7A6A5A4A3A3A2A1FB
:10316000A09F9F9E9D9C9C9B9A99999897979695B6
:1031700095949393929191908F8F8E8E8D8C8C8B52
:103180008B8A8989888887878685858484838382DA
:10319000828181800000FF070000F87F4FEA410331
:1031A0004FEA5353A3F58063D3F11E03C8BFD3F195
:1031B000210C0CDD4FF0004242EAC12242EA50529B
:1031C00032FA03FC8CEAE17CACEBE1707047102B27
:1031D000C4BF0020704703F5787CBCF1FF3F04D0EA
:1031E0006FF0004282EA2100704770B500F002F9EA
:1031F0004992248000207047F2E710F0004248BF57
:103200004042B0FA80F310FA03F10AD0C3F11D0373
:1032100003F580634FEA415002EB035202EBD121E8
:1032200070474FF00000704751EA030C17D41CF5AB
:10323000801F58BFBCF5801F00F10680994218BF5F
:10324000704708BF9042704707D711F5801F58BFDD
:1032500013F5801F19D499427047894270471CF5B5
:10326000801F08D5BCF5801FF7D58B4218BF70476B
:1032700008BF824270474FF4001C1CEB410F38BF5F
:103280001CEB430F01D28B42704770B500F0B2F8CF
:10329000922449004FF000514FF08053FFF719BEC0
:1032A000DFF848C170B51CEA111E1EBF1CEA1315D9
:1032B0009EEA0C0F95EA0C0F00F06F8081EA030480
:1032C00023EA4C134EEAD47E21EA4C1141F48011DA
:1032D00043F48013AE44A1FB024CA0FB0365AEF1A6
:1032E0007F7E361955EB0C05A1FB034C4CF1000316
:1032F000A0FB021C16EB0C06654153F100030942CA
:1033000018BF46F0010613F4007F0BD14FEA0331DA
:103310004FEA0530340341EA155140EA16506FF088
:1033200003020AE04FEAC3214FEAC520F40241EA52
:10333000555140EA56506FF0020202EB2E4201EB6B
:10334000025585EACE710AD05FEA440C18BF24F01A
:10335000004450F1000041F1000120EAD47040F235
:10336000FE7C624500D270BDA84214BF4FF080447D
:103370004FF04044002E08BF0024BEF1806FA8BF6C
:10338000A1F1C041BDE8704080F282804FF00000A2
:1033900001F1C04101F0004170479EEA0C0F0CEAB8
:1033A000131518BF95EA0C0F06D04FF0000081EA04
:1033B000030E0EF0004170BD00F01CF88900013EC4
:1033C00000F007B800F009B84FEA430C5FEA5C5C14
:1033D00008D081EA030100F05BB84FEA410C5FEAD4
:1033E0005C5CF6D14FF00000014970470000FF0718
:1033F0000000F87F0EF1020E2EF0030E5EF8046B53
:10340000364205D4012A43EB030515F5001F12D8F7
:10341000012841EB010C1CF5001F0CD80ED14FEA1E
:10342000D17C15F5001F0CEB4C0C0CF1020C08BF05
:103430004CEBD37C04E04FF0080C01E04FEAD37C66
:103440000CEB4C0526FA05F606F00706B6F1040C5F
:1034500006D20EEB860CBDE870404CF0010C6047C4
:10346000DFE80CF0090B02024FF000414FF00000C2
:10347000A1F5002170BD19461046012851EB010449
:1034800018BFD4F5001484BF002001F0004170BDC6
:103490000808A0F500114FEA3101704753EA010C0A
:1034A00017D41CF5801F58BFBCF5801F00F10680A3
:1034B0008B4218BF704708BF8242704707D713F589
:1034C000801F58BF11F5801F19D48B4270479B4253
:1034D00070471CF5801F08D5BCF5801FF7D59942B1
:1034E00018BF704708BF904270474FF4001C1CEB98
:1034F000430F38BF1CEB410F01D2994270470FB404
:103500000CBC03BCFFF7C1BE43004FEAD30C4FEA2B
:103510003C0C43401FBF40070CF1605113F0FE4FBD
:1035200070471CF0006F03D100200CF00041704781
:103530000CF0004343EA507010B540EACC0000F0B4
:1035400084F800BF000000924FEA0001FFF7A0BF1F
:103550004FF000414FF00000A1F50021704700003E
:1035600090EA010F48BF81F0004100F1C080421A8B
:103570003CBF801A89184FEAD0524FF07F4C1CEAAA
:10358000410FA2EBD15318BF9CEA026F00F03B80C1
:103590004FF0004C4CEA00204CEA012121FA03FCD8
:1035A00010EB0C0C1ED202F1FF325FEA1C2040EB44
:1035B000C25038BF70471CF07F0F4FEA400C18BF55
:1035C000BCF17F4F38BF7047C3F12003994008BF5B
:1035D00020F00100BCF17F4F38BF7047A0F1C04020
:1035E00000F079B84FEA3C00000A40EBC25028BF17
:1035F0001CF0FF0F4FEA400CE6D018BFBCF17F4F24
:1036000038BF7047EAE79CEA026F05D010EA5C0F0A
:1036100008BF00F00040704710B500F016F800BF7A
:1036200064FBBE3EB0FA80F310FA03F2C3F19D03CF
:103630000AD0D90501EB1220530638BF704700F1BC
:10364000010008BF20F0010070470EF1020E2EF0BD
:10365000030E5EF8044B244204D44FEA4102B2F157
:103660007F4F11D84FEA4003B3F17F4F0CD80ED1F2
:103670004FEAD07CB2F17F4F0CEB4C0C0CF1020CFA
:1036800008BF4CEBD17C04E04FF0080C01E04FEA9E
:10369000D17C0CEB4C0324FA03F404F00704B4F1DE
:1036A000040C06D20EEB840CBDE810404CF0010C6B
:1036B0006047DFE80CF0070802024FF00040A0F579
:1036C000800010BD0846420018BFD2F1807288BF4A
:1036D00000F0004010BDFF2141EAD050C005704706
:1036E00090EA010F48BF81F000413FF540AF421A18
:1036F00004D882F00042A0EB020011444FEAD052FD
:103700004FF07F4C1CEA410FA2EBD15318BF9CEA4B
:10371000026F4AD04FF0004C4CEA00204CEA0121E5
:1037200021FA03FCB0EB0C0C0FD412F0FE0F36D0D4
:103730005FEA4C001DD5001240EBC25038BF704705
:103740001CF03F0F18BF70470BE0A2F101025FEAC7
:103750001C2040EBC25038BF70471CF07F0F18BFD1
:103760007047C3F12003994014BF401E20F00100B0
:10377000704780084FEA122308BF7047B0FA80FCF8
:10378000A2EB0C02CCF1280C60FA0CF093EA122F99
:1037900004BF00EBC25070474FEAC3707047130A72
:1037A0005FEADC1008BF7047F6E79CEA026F04D0BE
:1037B00010EA5C0F08BF0020704710B5FFF745FF07
:1037C00040DFF63E81F0004070470000000000003E
:1037D00000000000000000000000000000F80000F1
:1037E0000000000000333000000000100C06100C38
:1037F0000600000000000000000040C07840C078D3
:103800004000043F04043F040400007088FC0830BA
:103810000000001820FF211E0000F008F000E01852
:10382000000000211C031E211E0000F0088870000B
:1038300000001E2123241927211010160E0000005D
:1038400000000000000000000000000000E018047C
:103850000200000000071820400000020418E000E9
:1038600000000040201807000000404080F0804029
:1038700040000202010F01020200000000F00000FF
:1038800000000101011F0101010000000000000013
:10389000000080B070000000000000000000000088
:1038A0000000000101010101010100000000000011
:1038B00000000030300000000000000000008060C8
:1038C0001804006018060100000000E0100808104D
:1038D000E000000F102020100F00001010F8000072
:1038E00000000020203F2020000000700808088809
:1038F00070000030282422213000003008888848D9
:1039000030000018202020110E000000C02010F808
:10391000000000070424243F240000F808888808D9
:1039200008000019212020110E0000E010888818DE
:103930000000000F112020110E0000380808C838C0
:1039400008000000003F00000000007088080888A0
:103950007000001C222121221C0000E01008081029
:10396000E0000000312222110F00000000C0C00062
:103970000000000000303000000000000080000067
:103980000000000080600000000000008040201067
:103990000800000102040810200040404040404060
:1039A00040000404040404040400000810204080C3
:1039B00000000020100804020100007048080808F8
:1039C000F0000000003036010000C030C828E810C8
:1039D000E0000718272423140B000000C038E00083
:1039E0000000203C23020227382008F888888870CD
:1039F0000000203F202020110E00C03008080808D9
:103A00003800071820202010080008F808080810BF
:103A1000E000203F202020100F0008F88888E808E8
:103A20001000203F20202320180008F88888E8088C
:103A30001000203F200003000000C03008080838B4
:103A4000000007182020221E020008F808000008C5
:103A5000F808203F210101213F20000808F808084C
:103A600000000020203F2020000000000808F80887
:103A70000800C08080807F00000008F888C02818F7
:103A80000800203F20012638200008F80800000028
:103A90000000203F20202020300008F8F800F8F82F
:103AA0000800203F003F003F200008F830C0000819
:103AB000F808203F200007183F00E0100808081011
:103AC000E0000F10202020100F0008F80808080858
:103AD000F000203F210101010000E010080808105B
:103AE000E0000F18242438504F0008F88888888890
:103AF0007000203F2000030C302000708808080868
:103B000038000038202121221C00180808F8080875
:103B100018000000203F2000000008F808000008FE
:103B2000F808001F202020201F000878880000C807
:103B30003808000007380E010000F80800F80008F7
:103B4000F800033C0700073C030008186880806801
:103B5000180820302C03032C30200838C800C8383F
:103B600008000000203F2000000010080808C838A6
:103B700008002038262120201800000000FE020244
:103B800002000000007F40404000000C30C00000F8
:103B90000000000000010638C00000020202FE0022
:103BA0000000004040407F000000000004020202CC
:103BB0000400000000000000000000000000000001
:103BC00000008080808080808080000202040000ED
:103BD00000000000000000000000000080808080E5
:103BE00000000019242222223F2008F800808000D3
:103BF0000000003F112020110E0000000080808096
:103C00000000000E1120202011000000008080889C
:103C1000F800000E112020103F20000080808080DE
:103C20000000001F222222221300008080F08888DA
:103C300088180020203F2020000000008080808025
:103C40008000006B94949493600008F8008080805A
:103C50000000203F210000203F20008098980000B5
:103C600000000020203F20200000000000809898E5
:103C7000000000C08080807F000008F80000808085
:103C80008000203F24022D302000000808F80000AA
:103C900000000020203F2020000080808080808065
:103CA0008000203F20003F20003F808000808080F7
:103CB0000000203F210000203F2000008080808005
:103CC0000000001F202020201F0080800080800036
:103CD000000080FFA12020110E00000000808080E5
:103CE0008000000E112020A0FF8080808000808056
:103CF000800020203F212000010000008080808083
:103D000080000033242424241900008080E0808077
:103D100000000000001F20200000808000000080C4
:103D20008000001F202020103F2080808000008025
:103D3000808000010E300806010080800080008035
:103D400080800F300C030C300F00008080008080DA
:103D500080000020312E0E31200080808000008005
:103D6000808080818E7018060100008080808080B5
:103D700080000021302C2221300000000000807CD7
:103D8000020200000000003F404000000000FF0071
:103D9000000000000000FF0000000002027C800024
:103DA00000000040403F0000000000060101020248
:103DB000040400000000000000000000DC3D0008DA
:103DC00000000020B400000028010008903E000818
:103DD000B40000208C060000440100080000000030
:103DE000010203040102030406070809020406088D
:103DF000000000000034431010010000000000002B
:103E000000000000000000000000000000A0000012
:103E100000000000000000000000000000000000A2
:103E20000000000000000000000000000000000092
:103E30000000000000000000000000000000000082
:103E4000000000000000000000001400000000005E
:103E50000000000000000000000000000000000062
:103E6000000001FF0101010000000100000000004E
:103E70000000000000000000000000000000000042
:103E80000000000000000000000000000000000032
:04000005080000ED02
:00000001FF
