:020000040800F2
:10000000080700208901000891090008010600087E
:100010008D09000843020008AF230008000000001B
:100020000000000000000000000000006114000853
:1000300079020008000000006D100008AD150008EE
:10004000A3010008A3010008A3010008A301000800
:10005000A3010008A3010008A3010008A3010008F0
:10006000A3010008A3010008A3010008A3010008E0
:10007000A3010008A3010008A3010008A3010008D0
:10008000A3010008A3010008A3010008A3010008C0
:10009000A3010008A3010008A3010008A3010008B0
:1000A000A3010008A3010008A3010008A3010008A0
:1000B00051180008A301000851190008A301000805
:1000C000A3010008A3010008A3010008A301000880
:1000D000A3010008A9200008A3010008A30100084B
:1000E000A3010008A3010008A301000800F002F822
:1000F00000F03AF80AA090E8000C82448344AAF188
:100100000107DA4501D100F02FF8AFF2090EBAE885
:100110000F0013F0010F18BFFB1A43F0010318473B
:100120002C3500004C350000103A24BF78C878C147
:10013000FAD8520724BF30C830C144BF04680C60ED
:10014000704700000023002400250026103A28BF35
:1001500078C1FBD8520728BF30C148BF0B60704739
:100160001FB51FBD10B510BD00F031F81146FFF7E7
:10017000F7FF02F02FF900F04FF803B4FFF7F2FF9A
:1001800003BC00F057F800000948804709480047C1
:10019000FEE7FEE7FEE7FEE7FEE7FEE7FEE7FEE737
:1001A000FEE7FEE704480549054A064B7047000094
:1001B000B1150008ED000008080100200807002024
:1001C00008030020080300207047704770477546F9
:1001D00000F02CF8AE4605006946534620F00700B3
:1001E000854618B020B5FFF7DDFFBDE820404FF091
:1001F00000064FF000074FF000084FF0000B21F011
:100200000701AC46ACE8C009ACE8C009ACE8C009DD
:10021000ACE8C0098D46704710B50446AFF30080C6
:100220002046BDE81040FFF7A8BF00000048704717
:10023000A400002001491820ABBEFEE72600020002
:10024000704700BFFEE7000010B5032000F0B4FBCC
:10025000064908700846007800F00F00044908704D
:100260000248007800090349087010BD6F000020A3
:100270006D0000206E000020704700B5034603E0CB
:100280004FF47A7000F005F8181EA3F10103F7D1BE
:1002900000BD00EBC001C9004FF0E0225161002118
:1002A00091610521116100BF4FF0E021096901F45E
:1002B00080310029F8D004214FF0E022116170470D
:1002C00070B50223554802780421012000F04EFE4B
:1002D0005248007800F0080038B35048007800F029
:1002E0000700012806D0022809D003280CD00428D2
:1002F00014D10EE000F086F9494908600EE000F0E4
:10030000D1F94849086009E000F01AFA4649086046
:1003100004E000F063FA4549086000BF00BF3F48B1
:10032000007800F007003D49087041493C480068EA
:1003300002F0DEFC054602F09DFD04460223224643
:100340000321184600F03CFE39493648006802F0A7
:10035000CFFC054602F08EFD0446022322460B2107
:10036000184600F02DFE32492F48006802F0C0FC0C
:10037000054602F07FFD044602232246032108467B
:1003800000F01EFE2A492948006802F0B1FC05462B
:1003900002F070FD0446022322460B21032000F0E8
:1003A0000FFE1F48006802F065FD0A21B0FBF1F264
:1003B00001FB1204012322460621022000F000FE68
:1003C0001848006802F056FD0A21B0FBF1F201FB6B
:1003D0001204012322460E21022000F0F1FD1248F2
:1003E000006802F047FD0A21B0FBF1F201FB1204A4
:1003F000012322460621032000F0E2FD0B4800689D
:1004000002F038FD0A21B0FBF1F201FB12040123D6
:1004100022460E21032000F0D3FD70BD67000020AE
:100420007000002074000020780000207C00002074
:10043000000020412DE9F041024600250026002061
:1004400000230024002791F803C00CF00F0591F859
:1004500003C00CF0100CBCF1000F03D091F802C0E7
:100460004CEA050591F800C0BCF1000F31D01468CA
:1004700000202BE04FF0010C0CFA00F3B1F800C0A3
:100480000CEA03069E4220D183004FF00F0C0CFAB9
:1004900003F7BC4305FA03FC4CEA040491F803C0DB
:1004A000BCF1280F06D14FF0010C0CFA00FCC2F889
:1004B00014C00AE091F803C0BCF1480F05D14FF019
:1004C000010C0CFA00FCC2F810C0401C0828D1D363
:1004D0001460B1F800C0BCF1FF0F34DD5468002097
:1004E0002EE000F1080C4FF0010808FA0CF3B1F807
:1004F00000C00CEA03069E4221D183004FF00F0C8E
:100500000CFA03F7BC4305FA03FC4CEA040491F827
:1005100003C0BCF1280F05D100F1080C08FA0CF853
:10052000C2F8148091F803C0BCF1480F07D100F164
:10053000080C4FF0010808FA0CF8C2F81080401CB3
:100540000828CED35460BDE8F0810000F0B50A461B
:10055000002300240021002500F00046B6F1004FE2
:1005600002D11D4EF16901E01B4E7168C0F30345D5
:1005700083B200F44016B6F5401F08D121F0706137
:10058000154E766826F07066134F7E6012E000F418
:100590008016B6F5801F06D1032606FA05F4A1439E
:1005A00041F0706106E0460D360103FA06F6B143EC
:1005B00041F0706122B1460D360103FA06F631436F
:1005C00000F00046B6F1004F02D1034EF16101E0A8
:1005D000014E7160F0BD00000000014002460020A5
:1005E000D3680B400BB1012000E00020704741614F
:1005F0007047016170470AB1016100E041617047D5
:1006000000BFFEE72DE9F0411F48006868B90122EC
:10061000D1031E48FFF7EFFF0F20FFF73AFE00223D
:100620004FF400411948FFF7E6FF1748006830B360
:100630001748007818BB17490988080402F03AFCEB
:10064000154908601048006802F034FC044612485E
:100650000168204602F0EAFA0F490860084600687F
:1006600002F0B8FA06460D4A0D4B02F0B5F9044601
:1006700001F0E2FF084908600020034908600648CD
:100680000068BDE8F0810000400000200008014043
:100690003C0000209400002050000020C3F5285C9E
:1006A0008FC2C53F2DE9F0411E48006860B90122A4
:1006B00008211D48FFF79FFF0F20FFF7EAFD0022EA
:1006C00008211948FFF797FF1648006830B317480C
:1006D000007818BB16498988080402F0EBFB15491D
:1006E00008601048006802F0E5FB04461148016804
:1006F000204602F09BFA0F4908600846006802F0A5
:1007000069FA06460C4A0D4B02F066F9044601F000
:1007100093FF084908600020024908600548006806
:10072000BDE8F08144000020000C01403D000020A5
:100730009400002054000020C3F5285C8FC2C53F00
:100740002DE9F0411E48006860B9012210211D48C2
:10075000FFF751FF0F20FFF79CFD002210211948E1
:10076000FFF749FF1648006830B31748007818BBF8
:1007700016490989080402F09DFB154908601048D4
:10078000006802F097FB044611480168204602F019
:100790004DFA0F4908600846006802F01BFA064649
:1007A0000C4A0D4B02F018F9044601F045FF0849C8
:1007B000086000200249086005480068BDE8F08133
:1007C00048000020000C01403E0000209400002062
:1007D00058000020C3F5285C8FC2C53F2DE9F041C9
:1007E0001E48006860B9012220211D48FFF703FF61
:1007F0000F20FFF74EFD002220211948FFF7FBFED6
:100800001648006830B31748007818BB1649898924
:10081000080402F04FFB154908601048006802F018
:1008200049FB044611480168204602F0FFF90F49D0
:1008300008600846006802F0CDF906460C4A0D4BE8
:1008400002F0CAF8044601F0F7FE084908600020EB
:100850000249086005480068BDE8F0814C000020AE
:10086000000C01403F000020940000205C000020AC
:10087000C3F5285C8FC2C53F08B501210D2000F0EB
:1008800017FC01211B48FFF761FE28208DF80300AB
:100890004FF47070ADF8000069461748FFF7CAFDC5
:1008A00010208DF803003820ADF8000003208DF8EB
:1008B000020069461048FFF7BDFD4FF40040ADF857
:1008C000000069460D48FFF7B5FD01F01DF94FF432
:1008D00000410948FFF78BFE08210748FFF787FE14
:1008E00010210548FFF783FE20210348FFF77FFE14
:1008F00008BD000000023000000C0140000801406B
:1009000010B54FF400510248FFF773FE10BD000010
:100910000010014010B54FF400510248FFF767FE88
:1009200010BD00000010014008B50121042000F0B6
:10093000BFFB10208DF803000620ADF80000032057
:100940008DF8020069460F48FFF774FD06210D4837
:10095000FFF74FFE0121102000F0AAFB4FF40050DA
:10096000ADF8000010208DF8030003208DF8020080
:1009700069460548FFF75EFD4FF400510248FFF756
:1009800036FE08BD000801400010014000BFFEE730
:100990007047000010B50748007820B900210420F6
:1009A00000F06EFC02E000200249087000200149BE
:1009B000487010BD2600002001460148405C704789
:1009C0002600002000B587B00121080300F070FB6D
:1009D0000121D42000F06CFB18208DF81B00E020D2
:1009E000ADF8180003208DF81A0006A94448FFF757
:1009F00021FD10208DF81B001220ADF8180006A96B
:100A00003F48FFF717FD48208DF81B000120ADF887
:100A1000180006A93B48FFF70DFD012210213848B8
:100A2000FFF7E9FD002202213548FFF7E4FD01222E
:100A300011463448FFF7DFFD0020ADF804004FF405
:100A40008270ADF806000020ADF80800ADF80A008D
:100A5000ADF80C004FF40070ADF80E000820ADF8B2
:100A600010000020ADF812000720ADF8140001A915
:100A7000254800F095FC0121234800F077FC08216F
:100A8000202000F09FF83F21212000F09BF8032157
:100A9000222000F097F80321232000F093F803218F
:100AA000242000F08FF80221252000F08BF80E2181
:100AB000262000F087F80021272000F083F800218D
:100AC000312000F07FF80021322000F07BF8002177
:100AD000332000F077F80021342000F073F8002173
:100AE000352000F06FF80021362000F06BF8E2208E
:100AF00000F00CF8E12000F009F807B000BD00009C
:100B000000080140000C01400030014070B504466F
:100B1000002210210848FFF76EFD204600F05EFC21
:100B2000002000F05BFC0546012210210248FFF77F
:100B300062FD284670BD0000000801402DE9F0412B
:100B400007460D461646002210210C48FFF753FDBC
:100B5000384600F043FC8046002405E0002000F009
:100B60003DFC2855601CC4B2B442F7DB01221021C1
:100B70000248FFF740FD4046BDE8F0810008014013
:100B800010B50720FFF7C2FF0C490870084600782F
:100B900000F0400030B1082209496120FFF7CEFF84
:100BA000012400E0002405480178272000F00AF81D
:100BB000E220FFF7ABFF204610BD00002000002020
:100BC0002600002070B505460C460022102108487A
:100BD000FFF711FD284600F001FC0646204600F014
:100BE000FDFB012210210248FFF705FD304670BDD4
:100BF000000801402DE9F04107460D461646002247
:100C000010210C48FFF7F7FC384600F0E7FB804660
:100C1000002404E0285D00F0E1FB601CC4B2B44293
:100C2000F8DB012210210348FFF7E5FC4046BDE850
:100C3000F08100000008014008B54FF4A06000F00A
:100C400047F826208DF8000001208DF801008DF86E
:100C500002008DF80300684600F002F808BD0000AD
:100C600070B5002100230F22C47804B3154C24680A
:100C700004F4E064C4F5E064210AC1F10403CA404D
:100C8000447804FA03F184781440214309010E4C9E
:100C90000678A155047804F01F050124AC400578BE
:100CA0006D11AD0005F1E025C5F8004109E00478BB
:100CB00004F01F050124AC40044D0678761145F878
:100CC000264070BD0CED00E000E400E080E100E0B3
:100CD00002490143024A1160704700000000FA0512
:100CE0000CED00E070B500240EE00021204600F07D
:100CF000F0F8002504E0002000F0A8F9681CC5B257
:100D0000802DF8DB601CC4B2082CEEDB70BD000047
:100D100008B50121082000F0CBF914208DF803005C
:100D200003208DF802004FF40060ADF80000694622
:100D30000A48FFF77FFB4FF48050ADF8000069468A
:100D40000648FFF777FB0122D1020448FFF753FC66
:100D5000012211030148FFF74EFC08BD00080140C5
:100D600070B50546002415E08020204100EA050208
:100D70004FF480510E48FFF73EFC0122D1020C488F
:100D8000FFF739FC00224FF400610948FFF733FCFC
:100D9000601CC4B2082CE7DB0122D1020448FFF733
:100DA0002AFC00224FF400610148FFF724FC70BDCB
:100DB0000008014010B5012211030A48FFF71BFC8F
:100DC0000122D1020748FFF716FC00224FF48051A0
:100DD0000448FFF710FC00224FF400610148FFF7C0
:100DE0000AFC10BD0008014010B500224FF48051EC
:100DF0000648FFF700FC0122D1020448FFF7FBFB85
:100E0000012211030148FFF7F6FB10BD0008014065
:100E100070B5002406E0002500E06D1CB5F57A7F72
:100E2000FBD3641CB4F57A7FF5D3FFF771FFAE20D6
:100E300000F0FCF8D52000F0F9F8802000F0F6F87A
:100E4000A82000F0F3F83F2000F0F0F8D02000F0E8
:100E5000EDF8002000F0EAF8402000F0E7F8A120CB
:100E600000F0E4F8C82000F0E1F8DA2000F0DEF845
:100E7000122000F0DBF8812000F0D8F8CF2000F03D
:100E8000D5F8D92000F0D2F8F12000F0CFF8DB201F
:100E900000F0CCF8302000F0C9F8A42000F0C6F82B
:100EA000A62000F0C3F88D2000F0C0F8142000F058
:100EB000BDF8AF2000F0BAF8FFF714FF70BD10B511
:100EC0000246012000E050430B1EA1F10101FAD1BE
:100ED00010BD70B505460C4645F0B00000F0A6F810
:100EE000102141EA141000F0A1F804F00F0141F0C4
:100EF000020000F09BF870BD2DE9F04105460E465A
:100F00001746721ED206110E6A1E5206100EFFF709
:100F1000E0FF002409E0A7F12001134A02EB0111D0
:100F2000085D00F093F8601CC4B2082CF3DB721E5D
:100F3000D206110E6A1E012303EB4202D0B2FFF764
:100F4000C8FF00240BE0A7F12001074A02EB0112C1
:100F500004F10801505C00F079F8601CC4B2082C60
:100F6000F1DBBDE8F08100005A3000082DE9F047C0
:100F700081460E4690461F4600241DE0381B411E48
:100F80001020FFF79CFFB8FBF0F000F00F050A2DD2
:100F900008DA05F13000C2B23019C1B24846FFF795
:100FA000ABFF07E005F13700C2B23019C1B24846C5
:100FB000FFF7A2FF601CC4B2BC42DFDBBDE8F087D4
:100FC0002DE9F04780460E4617461D46002415E0E1
:100FD000281B411E0A20FFF772FFB7FBF0F00A2121
:100FE000B0FBF1F201FB120000F130093019C1B27F
:100FF0004A464046FFF780FF601CC4B2AC42E7DBC4
:10100000BDE8F0872DE9F04107460E46154600245D
:1010100007E02A5D3019C1B23846FFF76DFF601C4A
:10102000C4B2285D0028F4D1BDE8F08110B50446B3
:10103000FFF7C0FE7820FFF793FE0020FFF790FE39
:101040002046FFF78DFEFFF7CFFE10BD10B504461A
:10105000FFF7B0FE7820FFF783FE4020FFF780FE09
:101060002046FFF77DFEFFF7BFFE10BD7047000072
:1010700029B1064AD2690243044BDA6104E0034A0B
:10108000D2698243014BDA617047000000100240D0
:1010900029B1064A12690243044B1A6104E0034A6B
:1010A00012698243014B1A61704700000010024030
:1010B00029B1064A92690243044B9A6104E0034A4B
:1010C00092698243014B9A61704700000010024010
:1010D00029B1064AD2680243044BDA6004E0034AAD
:1010E000D2688243014BDA60704700000010024072
:1010F00030B500210022002400232D4D6D6805F03D
:101100000C0121B1042905D0082923D105E0294D7E
:10111000056022E0274D05601FE0254D6D6805F450
:101120007012234D6D6805F48034022505EB924260
:101130001CB9214D554305600BE01D4D6D6805F44C
:1011400000351DB11C4D5543056002E0194D554356
:10115000056002E0174D056000BF00BF144D6D68CB
:1011600005F0F0010909154D6B5C0568DD4045602F
:101170000F4D6D6805F4E061090A104D6B5C456820
:10118000DD4085600A4D6D6805F46051C90A0B4D5C
:101190006B5C4568DD40C560054D6D6805F44041F8
:1011A000890B074D6B5CC568B5FBF3F5056130BD78
:1011B0000010024000127A0000093D0000000020EB
:1011C0001000002010B5002202211348FFF713FA87
:1011D000052212492A20FFF70DFD01212120FFF7EA
:1011E000F1FC01212220FFF7EDFC28212520FFF74B
:1011F000E9FC08213120FFF7E5FC07212620FFF755
:10120000E1FC0F212020FFF7DDFC01220221024832
:10121000FFF7F1F910BD0000000801402100002097
:1012200008B501210920FFF743FF01211248FFF70C
:101230008DF910208DF803004FF47040ADF80000D8
:1012400003208DF8020069460C48FFF7F3F84FF4CD
:1012500080510A48FFF7CBF94FF400510748FFF7D8
:10126000C6F94FF480410548FFF7C1F94FF400413A
:101270000248FFF7BCF908BD00023000000C014035
:1012800070B504460D46042C0FD12A468102194838
:10129000FFF7B1F92A46E1021648FFF7ACF92A46F2
:1012A00021031448FFF7A7F923E0012C09D10520F9
:1012B000FFF782FB28B12A4621030E48FFF79BF96E
:1012C00017E0022C09D10620FFF776FB28B12A4649
:1012D00021030848FFF78FF90BE0032C09D1072001
:1012E000FFF76AFB28B12A464FF480410148FFF717
:1012F00082F970BD000C014010B500210E4800F0CD
:10130000B7FE00210D4800F0B3FE0D490A4800F079
:10131000AFFE0B49094800F0ABFE0A20FEF7ADFF17
:101320000849054800F0A4FE0649044800F0A0FE64
:101330000A20FEF7A2FF10BD004800400044004014
:101340002307001CC6C4000270B504460D462246A1
:101350000621044800F066FE2A460621024800F0F5
:1013600061FE70BD004800400044004021B1028889
:1013700042F04002028004E002884FF6BF731A4038
:10138000028070470246002013890B400BB10120F8
:1013900000E00020704701468889704781817047CE
:1013A00010B50022028802F441520B884C88234376
:1013B0008C882343CC8823430C8923434C892343C3
:1013C0008C892343CC8923431A430280838B4FF2B9
:1013D000FF74234083830B8A038210BD10B504463B
:1013E0004FF48050174908600AE016490868411E0A
:1013F000144A116020B9002000F028F8C0B210BDD6
:1014000002211148FFF7BEFF0028EED021460E480A
:10141000FFF7C4FF0AE00B490868411E094A116042
:1014200020B9012000F012F8C0B2E8E70121064817
:10143000FFF7A8FF0028EED00348FFF7ACFFC0B2CB
:10144000DDE70000380000200030014010B5044600
:101450000123224619460220FFF7B2FD002010BDED
:10146000704710B500F002F810BD00000CB5002068
:10147000019000903348006840F4803031490860A2
:1014800000BF3048006800F4003000900198401C14
:101490000190009818B90198B0F5A06FF1D12948D2
:1014A000006800F4003010B10120009001E000203D
:1014B00000900098012843D12348006840F01000B4
:1014C000214908600846006820F0030008600846CB
:1014D000006840F0020008601A48406819494860F6
:1014E0000846406848600846406840F480604860AC
:1014F0000846406820F47C1048600846406840F484
:10150000E81048600846006840F08070086000BF3E
:101510000C48006800F000700028F9D009484068C5
:1015200020F00300074948600846406840F0020088
:10153000486000BF0348406800F00C000828F9D15B
:101540000CBD000000100240002002402DE9F047D1
:1015500004460CB314F1640F1FDB642C1DDCC4EBD8
:101560000410800000EB8000C40004EB8400400005
:10157000FA2190FBF1F9484601F017FA0746094AAB
:10158000094B01F08BF8054601F0E0F904466003D1
:1015900040F6B83190FBF1F400E0002420B2BDE841
:1015A000F08700001F85EB51B81E0940704700000E
:1015B00010B51348006840F0010011490860084662
:1015C0004068104908400E494860084600680E49C6
:1015D00008400B4908600846006820F48020086035
:1015E0000846406820F4FE0048604FF41F00886001
:1015F000FFF737FF4FF000600449086010BD00009E
:10160000001002400000FFF8FFFFF6FE08ED00E0CA
:10161000F0B50C46154600220021068C4FF6FE77E9
:101620003E400684028B018C4FF60C7632407E1CC5
:1016300006EA03162E433243104EB0420ED0104E2F
:10164000B0420BD0B0F1804F08D00E4EB04205D062
:101650000D4EB04202D00D4EB04206D14FF6FD768F
:10166000314044F00106314305E04FF6F576314054
:1016700044F00106314302830184F0BD002C014097
:10168000003401400004004000080040000C00400D
:10169000F0B50C461546002200210026078C4FF6B7
:1016A000EF7C07EA0C070784028B018C4FF6FF776B
:1016B00007EA041640F6FF473A404FF6FF7707EA7D
:1016C00003373A434FF6FF7707EA05273A43114FAE
:1016D000B8420ED0104FB8420BD0B0F1804F08D0B6
:1016E0000E4FB84205D00E4FB84202D00D4FB8424F
:1016F00006D14FF6DF77394046F01007394305E051
:101700004FF65F77394044F0100739430283018474
:10171000F0BD0000002C01400034014000040040F6
:1017200000080040000C0040F0B50C4615460022B1
:1017300000210026078C4FF6FF6C07EA0C07078490
:10174000828B018C4FF6FF7707EA04264FF60C7761
:101750003A404FF6FF7707EA03172F433A43114FFA
:10176000B8420ED0104FB8420BD0B0F1804F08D025
:101770000E4FB84205D00E4FB84202D00D4FB842BE
:1017800006D14FF6FF57394046F48077394305E0DC
:101790004FF2FF57394044F4807739438283018404
:1017A000F0BD0000002C0140003401400004004066
:1017B00000080040000C0040F0B50C461546002221
:1017C00000210026078C4EF6FF7C07EA0C070784F1
:1017D000828B018C4FF6FF7707EA043640F6FF470D
:1017E0003A404FF6FF7707EA05273A434FF6FF776F
:1017F00007EA03373A43114FB8420ED0104FB842B0
:101800000BD0B0F1804F08D00E4FB84205D00E4F2C
:10181000B84202D00D4FB84206D14DF6FF7739409D
:1018200046F48057394305E047F6FF57394044F402
:101830008057394382830184F0BD0000002C0140B1
:10184000003401400004004000080040000C00404B
:1018500010B50121880700F0CCFA01281FD11F48DC
:101860000068401C1D49086008460068642816D3BB
:10187000002008601A48007800F00700042805DA04
:1018800017480078401C1649087002E001201449EE
:1018900008701348007840F008001149087011489A
:1018A0000068401C0F49086008460068B0F5FA7FE0
:1018B0000FD30020086002210B48FEF78FFE08B905
:1018C000012000E000200446224602210648FEF7DF
:1018D00092FE0121880700F07CF910BD8C000020E9
:1018E0006700002090000020000C01401FB501217E
:1018F0000846FFF7BDFB4FF47A70ADF808004720AB
:10190000ADF804000020ADF80A00ADF8060001A90A
:101910004FF0804000F034FB1C208DF800000220C6
:101920008DF801008DF8020001208DF80300684653
:10193000FFF796F90121880700F048F901221146C6
:10194000900700F0B5FA0121880700F045F91FBDA6
:1019500010B50121624800F04CFA012823D16148FA
:101960000078012804D160480068401C5E49086086
:101970005E480078012804D15B484068401C5A4901
:1019800048605B480078012804D157488068401CB3
:101990005549886057480078012804D15248C068EA
:1019A000401C5149C86002214D4800F022FA00B3A2
:1019B0004C48007888B901204A49087000204A49FB
:1019C00008600021464800F0ACFA00204A4908604F
:1019D0000221434800F075FA0BE0002041490870ED
:1019E0003F4800F0F9F94449086000213C4800F004
:1019F00068FA04213A4800F0FCF900B33B4800784B
:101A000088B9012039490870002037494860002111
:101A1000334800F086FA0020384908600221304837
:101A200000F058FA0BE00020304908702C4800F014
:101A3000D6F9324908600021294800F04BFA082104
:101A4000274800F0D6F900B32948007888B901206A
:101A5000274908700020244988600021204800F0B0
:101A600060FA00202649086002211D4800F03FFA74
:101A70000BE000201E490870194800F0B3F9204916
:101A800008600021164800F032FA1021144800F0D6
:101A9000B0F900B31748007888B9012015490870DB
:101AA00000201149C86000210D4800F03AFA0020DA
:101AB0001449086002210A4800F026FA0BE00020D1
:101AC0000C490870064800F090F90E4908600021A2
:101AD000034800F019FA1F21014800F07AF810BD00
:101AE000000800403C000020940000203D00002041
:101AF0003E0000203F000020400000204400002065
:101B0000480000204C00002000B587B001210420CF
:101B1000FFF7AEFA2C4800F06BF84FF6FE70ADF808
:101B200014004720ADF810000020ADF81600ADF805
:101B3000120004A9244800F023FA0020ADF80400A4
:101B4000ADF80C00ADF80600ADF80A000120ADF8C4
:101B5000080001A91C4800F055F90420ADF8040064
:101B600001A9194800F04EF90820ADF8040001A9B8
:101B7000154800F047F90C20ADF8040001A91248FF
:101B800000F040F94FF4A060FFF7A2F81E208DF896
:101B9000000002208DF8010000208DF802000120D5
:101BA0008DF803006846FFF75BF81F21064800F038
:101BB0000DF801221F21044800F07AF901210248A2
:101BC00000F00AF807B000BD00080040CA430282D6
:101BD0007047CA430282704721B1028842F0010275
:101BE000028004E002884FF6FE731A4002807047BC
:101BF00010B504466848844208D10121C014FFF79B
:101C000067FA0021E014FFF763FAC4E0B4F1804FF3
:101C100008D101210846FFF73BFA00210120FFF718
:101C200037FAB8E05D48844208D101210220FFF76D
:101C30002FFA00210220FFF72BFAACE0584884422B
:101C400008D101210420FFF723FA00210420FFF727
:101C50001FFAA0E05348844208D101210820FFF771
:101C600017FA00210820FFF713FA94E04E48844247
:101C700008D101211020FFF70BFA00211020FFF7F7
:101C800007FA88E04948844208D101212020FFF763
:101C9000FFF900212020FFF7FBF97CE04448844253
:101CA00008D101214014FFF713FA00216014FFF757
:101CB0000FFA70E03F48844209D10121C804FFF7C0
:101CC00007FA00214FF40020FFF702FA63E03A48D8
:101CD000844209D101210805FFF7FAF900214FF4E8
:101CE0008010FFF7F5F956E03448844209D101210C
:101CF0004805FFF7EDF900214FF40010FFF7E8F970
:101D000049E02F48844208D101214020FFF7C0F963
:101D100000214020FFF7BCF93DE02A48844208D169
:101D200001218020FFF7B4F900218020FFF7B0F9EE
:101D300031E02548844208D101218015FFF7A8F938
:101D40000021A015FFF7A4F925E02048844209D11D
:101D500001210804FFF7BCF900214FF48030FFF7A0
:101D6000B7F918E01A48844209D101214804FFF765
:101D7000AFF900214FF40030FFF7AAF90BE0154846
:101D8000844208D101218804FFF7A2F900214FF411
:101D90008020FFF79DF910BD002C01400004004099
:101DA00000080040000C00400010004000140040FB
:101DB00000340140004C01400050014000540140FB
:101DC00000180040001C004000200040004001407E
:101DD00000440140004801400146888E704701469A
:101DE000088F70470146888F70470146B1F8400060
:101DF000704702460020138A0B400BB1012000E01F
:101E00000020704770B505460C46244885420ED028
:101E1000234885420BD0B5F1804F08D02148854238
:101E200005D02148854202D02048854200D100E0FB
:101E300000BF208850B92389A28861882846FFF70F
:101E4000E7FBE188284600F06EF825E020880428AA
:101E50000AD12389A28861882846FFF719FCE18806
:101E6000284600F069F817E0208808280AD123895D
:101E7000A28861882846FFF757FCE188284600F0D1
:101E800068F809E02389A28861882846FFF794FC56
:101E9000E188284600F066F870BD0000002C014083
:101EA000003401400004004000080040000C0040E5
:101EB0001AB183890B43838102E083898B43838139
:101EC00070470A460021018C4FF6FD7319401143FB
:101ED000018470470A460021018C4FF6DF731940D8
:101EE0004FF6FF7303EA02131943018470470A4651
:101EF0000021018C4FF6FF5319404FF6FF7303EAA0
:101F000002231943018470470A460021018C4DF6D3
:101F1000FF7319404FF6FF7303EA0233194301843C
:101F2000704781847047028B4FF6F3731A40028327
:101F3000028B0A4302837047028B4FF2FF331A4031
:101F40000283028B4FF6FF7303EA01231A430283D5
:101F50007047828B4FF6F3731A408283828B0A4359
:101F600082837047828B4FF2FF331A408283828BC9
:101F70004FF6FF7303EA01231A4382837047000080
:101F8000002202881D4B98420ED01D4B98420BD068
:101F9000B0F1804F08D01B4B984205D01A4B9842A5
:101FA00002D01A4B984204D14FF68F731A404B88D7
:101FB0001A43174B984207D0164B984204D04FF65D
:101FC000FF431A40CB881A4302808B8883850B8895
:101FD00003850A4B98420BD0094B984208D00E4B10
:101FE000984205D00D4B984202D00D4B984201D13A
:101FF0000B7A03860123838270470000002C014086
:10200000003401400004004000080040000C004083
:102010000010004000140040004001400044014016
:10202000004801402DE9F84307460C4615468DF857
:102030000040280A40B28DF8010068B28DF8020015
:102040009DF9010020449DF9021000EB01084FFAB0
:1020500088F08DF80300002606E01DF906103846CA
:1020600000F0A7F9701C46B2042EF6DBBDE8F88339
:10207000F8B506460C46200E8DF80000200C8DF8B1
:102080000100200A8DF80200E0B28DF8030000255F
:1020900007E01DF8050041B2304600F08AF9681CDF
:1020A000C5B2042DF5DBF8BD10B52021154800F0B0
:1020B000D7F8012820D1134800F070F912490880A0
:1020C00008460188114802780078401C0F4B1870B0
:1020D0000F4820F8121019460878C11700EB9171CB
:1020E0008910A0EB81011A46117000BF80210548BC
:1020F00000F0B6F80128F9D12021024800F00AF8D2
:1021000010BD000000380140140000201E00002017
:102110001600002010B50022002340F66A14A142E8
:1021200000D100BF0A1201249440A3B2DC43048012
:1021300010BD21B1828942F40052828104E082897B
:102140004DF6FF731A4082817047000000B58BB0D6
:1021500001210420FEF7ACFF01214804FEF788FFAF
:102160000420ADF8280018208DF82B0003208DF8EE
:102170002A000AA93648FEF75DF90820ADF82800C4
:1021800004208DF82B000AA93148FEF753F94FF4CB
:10219000614006900020ADF81C00ADF81E00ADF8BF
:1021A0002000ADF824000C20ADF8220006A9294833
:1021B00000F088F8FEF740FD012240F22551254845
:1021C00000F05BF801212348FFF7B3FF012108204D
:1021D000FEF76EFF01218804FEF74AFF4FF480608E
:1021E000ADF8140018208DF8170003208DF81600A4
:1021F00005A91948FEF71EF94FF40060ADF8140068
:1022000004208DF8170005A91348FEF713F94FF4C1
:10221000614001900020ADF80800ADF80A00ADF86B
:102220000C00ADF810000C20ADF80E0001A90B4811
:1022300000F048F8FEF700FD012240F22551074862
:1022400000F01BF801210548FFF773FF0BB000BD3C
:102250000008014000440040000C014000480040DC
:1022600002460020B1F5007F00D100BF13880B406B
:102270000BB1012000E000207047F0B503460024B8
:1022800000260025002040F66A17B94200D100BFA1
:102290001846C1F3421401F01F06012707FA06F59C
:1022A000012C01D10C3004E0022C01D1103000E0EF
:1022B00014301AB107682F43076002E00768AF4384
:1022C0000760F0BD2DE9F04786B005460E460024B4
:1022D000A24600BFA1460027B08900B100BF2F462B
:1022E0002C8A4CF6FF700440F08804432C82AC89A1
:1022F0004EF6F3100440B0883189084371890843D1
:102300000443AC81AC8A4FF6FF400440B0890443DB
:10231000AC8201A8FEF7ECFE1F48874202D1DDF82F
:1023200010A001E0DDF80CA0A88900F4004040B145
:102330000AEBCA0000EB0A1031684900B0FBF1F863
:1023400007E00AEBCA0000EB0A1031688900B0FB15
:10235000F1F86420B8FBF0F004012009642101FBCE
:102360001089A88900F4004040B1322000EBC90078
:10237000B0FBF1F000F00700044308E0322000EB6E
:1023800009106421B0FBF1F000F00F0004432C8130
:1023900006B0BDE8F087000000380140014688889B
:1023A000C0F308007047C1F308028280704700BF85
:1023B000FEE770B505460C46A1B22846FFF7F3FFCD
:1023C00001E0FEF7A7FA80212846FFF749FF002821
:1023D000F7D070BD08B5FEF7A7FAFEF719FD7CA28D
:1023E00001210220FEF70EFE7EA201210320FEF74E
:1023F00009FEFEF7E7FAFEF7E5FEFEF711FFFEF72E
:102400003BFAFFF773FAFFF7A1FEFEF779FAFEF742
:1024100073FF01210420FEF74BFE01210820FEF787
:1024200047FE10208DF803000220ADF800000320C5
:102430008DF8020069467048FDF7FCFF4FF480708C
:10244000ADF8000069466D48FDF7F4FFBFE0FDF709
:1024500037FF6B480088401C00B26949088001239F
:102460000846B0F9002010211846FEF7A9FD072004
:10247000FEF74CFB634908700120FEF747FB6249F9
:1024800008700220FEF742FB604908700A20FEF740
:102490003DFB5F4908701720FEF738FB5D49087067
:1024A000FEF76EFB5C4908705A480078112805D089
:1024B0004FF480715148FEF79AF804E04FF48071B0
:1024C0004E48FEF796F802234E4802780121042078
:1024D000FEF74CFD02234C48027804210846FEF723
:1024E00045FD02234948027807210420FEF73EFDFE
:1024F0000223474802780A210420FEF737FD022311
:10250000444802780D210420FEF730FD0320FEF739
:1025100053FA04460223224601210846FEF726FD0F
:102520003D48007810B100203B4908700820FDF7B5
:10253000A4FE0020FEF740FA0120FEF73DFA02203B
:10254000FEF73AFA0320FEF737FA0420FEF734FAD2
:10255000FDF77AFE31480078401C30490870084683
:102560000078142190FBF1F201FB12002B49087056
:102570000846007808B9FEF70DFA2948B0F90000BE
:10258000FEF7E4FF274991F90010274A92F900204D
:102590005143484300B2224908802448B0F9000062
:1025A000FEF7D4FF224991F90010224A92F9002047
:1025B0005143484300B21D4908800846B0F9001055
:1025C0001748B0F90000FEF7BFFEFEF799F93EE7A5
:1025D000313A30302E302020323A30302E30636D98
:1025E00000000000333A30302E302020343A3030B2
:1025F0002E30636D00000000000C01400008014017
:10260000640000206C0000206800002069000020A9
:102610006A0000206B000020660000208800002077
:10262000800000208600002084000020820000201E
:10263000870000208500002021F00042A2F16052B6
:10264000B2F5801F01F0004328BFD2F17F6C0BD997
:102650005FEA001C43EAC20242EB507018BF7047A9
:1026600028BF20F001007047B2F5801FBCBF18469C
:1026700070474FEA410C1CF5001F02D2084600F0DB
:1026800072BC70B500F052FA00000089FFF7F6BF87
:102690004FF00040A0F58000704700002DE9C041D8
:1026A00030B4DFF8A0C23CEA111418BF3CEA13149E
:1026B00000F0EC8081EA03051CEA111444EAD574A9
:1026C00018BF1CEA131500F0C780A4EB05044FF0F7
:1026D000004545EAC12145EAC32341EA505143EA96
:1026E000525304F17F74994204F500344FEAC0203C
:1026F0004FEAC22208BF904200F09C804FEA136567
:102700000FF24016765D4FEA134506FB05F7C7F159
:10271000807706FB07F74FEAD737A7FB03687642B7
:10272000C8F58038A7FB06CE38BFA8F1010807FB23
:1027300008E64FF0000EA6FB028CE6FB03CEDCF1B0
:10274000000CCEF1004E38BFAEF1010EA6FB0C58C6
:102750004FF000074FF00005E6FB0E87A1FB08C60F
:10276000A0FB07CE16EB0E0645F10005E1FB076561
:1027700015F1E04E7EBFA4F580345FEA46066D4158
:1027800016F1800745F100054FEA17274FEA066664
:1027900047EA0567A6F1DE46B6F1805F4FEA1525E8
:1027A0001FD9384624F0010C05EBC471BCF1FE6F53
:1027B00001EB0C1102D8F0BCBDE8008124425CBFE3
:1027C00001F5801E9EEAC47F02D4F0BCBDE8008102
:1027D000244238D4F0BCA1F1C041BDE8004100F072
:1027E000F3B94FEAD22242EA43524FEAD323A7FB7E
:1027F00002864FEAD02040EA415007FB03661EEAFA
:102800000E0F4FEAD12105FB026658BFA6EB00561A
:10281000B6EB00564FEA520E4EEAC37E18EB0E0E90
:1028200056EB530EBDD518EB02085E417F1C55F1E7
:102830000005B6E74FF480154FF000074FF0000693
:102840004FF00008ADE7F0BC4FF0000001F1C041CF
:1028500001F00041BDE8008111EA0C1F0CEA1315DC
:1028600000D00CE013EA0C1F00F025804FF00000B0
:10287000F0BC81EA030101F00041BDE80081F0BC39
:10288000BDE8004181EA030100F09EB9F0BCBDE85B
:10289000004170B500F04AF9097EFC3E00F007B82F
:1028A00081EA03014FF0000001F00041704781EA26
:1028B000030100F089B9F0BCBDE800414FF0000011
:1028C00021497047FFFDFBF9F7F5F4F2F0EEEDEB6F
:1028D000E9E8E6E4E3E1E0DEDDDBDAD8D7D5D4D31E
:1028E000D1D0CFCDCCCBCAC8C7C6C5C4C2C1C0BF6A
:1028F000BEBDBCBBBAB9B8B7B6B5B4B3B2B1B0AF70
:10290000AEADACABAAA9A8A8A7A6A5A4A3A3A2A153
:10291000A09F9F9E9D9C9C9B9A999998979796950E
:1029200095949393929191908F8F8E8E8D8C8C8BAA
:102930008B8A898988888787868585848483838232
:10294000828181800000FF070000F87F4FEA410389
:102950004FEA5353A3F58063D3F11E03C8BFD3F1ED
:10296000210C0CDD4FF0004242EAC12242EA5052F3
:1029700032FA03FC8CEAE17CACEBE1707047102B7F
:10298000C4BF0020704703F5787CBCF1FF3F04D042
:102990006FF0004282EA2100704770B500F0C6F87F
:1029A0004992248000207047F2E710F0004248BFAF
:1029B0004042B0FA80F310FA03F10AD0C3F11D03CC
:1029C00003F580634FEA415002EB035202EBD12141
:1029D00070474FF000007047DFF848C170B51CEA3F
:1029E000111E1EBF1CEA13159EEA0C0F95EA0C0F70
:1029F00000F06F8081EA030423EA4C134EEAD47E90
:102A000021EA4C1141F4801143F48013AE44A1FB40
:102A1000024CA0FB0365AEF17F7E361955EB0C0529
:102A2000A1FB034C4CF10003A0FB021C16EB0C06AF
:102A3000654153F10003094218BF46F0010613F443
:102A4000007F0BD14FEA03314FEA0530340341EAEE
:102A5000155140EA16506FF003020AE04FEAC32115
:102A60004FEAC520F40241EA555140EA56506FF052
:102A7000020202EB2E4201EB025585EACE710AD02A
:102A80005FEA440C18BF24F0004450F1000041F10B
:102A9000000120EAD47040F2FE7C624500D270BD95
:102AA000A84214BF4FF080444FF04044002E08BFAE
:102AB0000024BEF1806FA8BFA1F1C041BDE8704005
:102AC00080F282804FF0000001F1C04101F000412E
:102AD00070479EEA0C0F0CEA131518BF95EA0C0F0D
:102AE00006D04FF0000081EA030E0EF0004170BDE9
:102AF00000F01CF88900013E00F007B800F009B8AA
:102B00004FEA430C5FEA5C5C08D081EA030100F005
:102B10005BB84FEA410C5FEA5C5CF6D14FF0000015
:102B2000014970470000FF070000F87F0EF1020E18
:102B30002EF0030E5EF8046B364205D4012A43EBF7
:102B4000030515F5001F12D8012841EB010C1CF5F7
:102B5000001F0CD80ED14FEAD17C15F5001F0CEBED
:102B60004C0C0CF1020C08BF4CEBD37C04E04FF092
:102B7000080C01E04FEAD37C0CEB4C0526FA05F675
:102B800006F00706B6F1040C06D20EEB860CBDE883
:102B900070404CF0010C6047DFE80CF0090B0202BA
:102BA0004FF000414FF00000A1F5002170BD194623
:102BB0001046012851EB010418BFD4F5001484BF5E
:102BC000002001F0004170BD0808A0F500114FEA97
:102BD0003101704743004FEAD30C4FEA3C0C4340AD
:102BE0001FBF40070CF1605113F0FE4F70471CF0FF
:102BF000006F03D100200CF0004170470CF000433F
:102C000043EA507010B540EACC0000F066F900BF0E
:102C1000000000924FEA0001FFF7D6BF4FF00041DD
:102C20004FF00000A1F500217047000090EA010F6D
:102C300048BF81F0004100F1A281421A3CBF801AD6
:102C400089184FEAD0524FF07F4C1CEA410FA2EB9B
:102C5000D15318BF9CEA026F00F03B804FF0004C4C
:102C60004CEA00204CEA012121FA03FC10EB0C0C89
:102C70001ED202F1FF325FEA1C2040EBC25038BF87
:102C800070471CF07F0F4FEA400C18BFBCF17F4F1C
:102C900038BF7047C3F12003994008BF20F00100FE
:102CA000BCF17F4F38BF7047A0F1C04000F05BB966
:102CB0004FEA3C00000A40EBC25028BF1CF0FF0F57
:102CC0004FEA400CE6D018BFBCF17F4F38BF7047C9
:102CD000EAE79CEA026F05D010EA5C0F08BF00F03B
:102CE0000040704710B500F0F8F800BF64FBBE3E2E
:102CF0004FF47F0C1CEAD0121EBF1CEAD11392EADB
:102D00000C0F93EA0C0F00F0858090EA010F48BF8A
:102D100042F4807240F4000C41F400002CF07F413A
:102D200020F07F4000B58142A2EB03020FF2081CA5
:102D3000ACEB504EC0F100009EF800E04FEA4E0EA2
:102D400000FB0EFC38BF49004FEA2C1C02F5FA02CA
:102D50000CFB0EF34FEACE1E4FEA112C4FEAC121B5
:102D60000EEB635E42EB22420EFB0CFC4FEA1C535F
:102D700000FB03114FEA112C4FEA01310EFB0CFC52
:102D80004FEADC4C00FB0C11C14228BF09184CEB88
:102D900003335DF804EB10EB410143EBC250B2F595
:102DA0007C0F38BF704729D512F0F00F1CBF00F11F
:102DB000C04000F000407047008182838485868790
:102DC00088898B8C8D8E8F919293959697999A9CEA
:102DD0009D9FA0A2A3A5A7A8AAACAEB0B2B3B5B759
:102DE000B9BCBEC0C2C5C7C9CCCED1D4D7D9DCDF2F
:102DF000E2E6E9ECF0F3F7FAFE0000004FEA400CDF
:102E00000CF1807CBCF17E4F28BF7047B0F1C04010
:102E100000F0A9B890EA010F0CEAD11348BF42F4C0
:102E20008072624538BF634507D213F47F0F16D016
:102E300080EA010000F00040704710B500F04DF846
:102E4000097EFC3E00F005B880EA010000F0004079
:102E5000704780EA010000F0004000F084B812F4EE
:102E60007F0F04BF0248704780EA010000F07BB882
:102E70000000C07FC10DD1F19E0206DB4FEA0023A6
:102E800043F0004323FA02F07047004207D54FEAAF
:102E90004001B1F1FE4F02D24FF00000704710B573
:102EA00000F01BF849922480002070476FEA200050
:102EB00070470000B0FA80F310FA03F2C3F19D03EB
:102EC0000AD0D90501EB1220530638BF704700F134
:102ED000010008BF20F0010070470EF1020E2EF035
:102EE000030E5EF8044B244204D44FEA4102B2F1CF
:102EF0007F4F11D84FEA4003B3F17F4F0CD80ED16A
:102F00004FEAD07CB2F17F4F0CEB4C0C0CF1020C71
:102F100008BF4CEBD17C04E04FF0080C01E04FEA15
:102F2000D17C0CEB4C0324FA03F404F00704B4F155
:102F3000040C06D20EEB840CBDE810404CF0010CE2
:102F40006047DFE80CF0070802024FF00040A0F5F0
:102F5000800010BD0846420018BFD2F1807288BFC1
:102F600000F0004010BDFF2141EAD050C00570477D
:102F700090EA010F48BF81F000413FF55EAE421A72
:102F800004D882F00042A0EB020011444FEAD05274
:102F90004FF07F4C1CEA410FA2EBD15318BF9CEAC3
:102FA000026F4AD04FF0004C4CEA00204CEA01215D
:102FB00021FA03FCB0EB0C0C0FD412F0FE0F36D04C
:102FC0005FEA4C001DD5001240EBC25038BF70477D
:102FD0001CF03F0F18BF70470BE0A2F101025FEA3F
:102FE0001C2040EBC25038BF70471CF07F0F18BF49
:102FF0007047C3F12003994014BF401E20F0010028
:10300000704780084FEA122308BF7047B0FA80FC6F
:10301000A2EB0C02CCF1280C60FA0CF093EA122F10
:1030200004BF00EBC25070474FEAC3707047130AE9
:103030005FEADC1008BF7047F6E79CEA026F04D035
:1030400010EA5C0F08BF0020704710B5FFF745FF7E
:1030500040DFF63E81F000407047000000000000B5
:1030600000000000000000000000000000F8000068
:103070000000000000333000000000100C06100CAF
:103080000600000000000000000040C07840C0784A
:103090004000043F04043F040400007088FC083032
:1030A0000000001820FF211E0000F008F000E018CA
:1030B000000000211C031E211E0000F00888700083
:1030C00000001E2123241927211010160E000000D5
:1030D00000000000000000000000000000E01804F4
:1030E0000200000000071820400000020418E00061
:1030F00000000040201807000000404080F08040A1
:1031000040000202010F01020200000000F0000076
:1031100000000101011F010101000000000000008A
:10312000000080B0700000000000000000000000FF
:103130000000000101010101010100000000000088
:10314000000000303000000000000000000080603F
:103150001804006018060100000000E010080810C4
:10316000E000000F102020100F00001010F80000E9
:1031700000000020203F2020000000700808088880
:103180007000003028242221300000300888884850
:1031900030000018202020110E000000C02010F880
:1031A000000000070424243F240000F80888880851
:1031B00008000019212020110E0000E01088881856
:1031C0000000000F112020110E0000380808C83838
:1031D00008000000003F0000000000708808088818
:1031E0007000001C222121221C0000E010080810A1
:1031F000E0000000312222110F00000000C0C000DA
:1032000000000000003030000000000000800000DE
:1032100000000000806000000000000080402010DE
:1032200008000001020408102000404040404040D7
:10323000400004040404040404000008102040803A
:10324000000000201008040201000070480808086F
:10325000F0000000003036010000C030C828E8103F
:10326000E0000718272423140B000000C038E000FA
:103270000000203C23020227382008F88888887044
:103280000000203F202020110E00C0300808080850
:103290003800071820202010080008F80808081037
:1032A000E000203F202020100F0008F88888E80860
:1032B0001000203F20202320180008F88888E80804
:1032C0001000203F200003000000C030080808382C
:1032D000000007182020221E020008F8080000083D
:1032E000F808203F210101213F20000808F80808C4
:1032F00000000020203F2020000000000808F808FF
:103300000800C08080807F00000008F888C028186E
:103310000800203F20012638200008F8080000009F
:103320000000203F20202020300008F8F800F8F8A6
:103330000800203F003F003F200008F830C0000890
:10334000F808203F200007183F00E0100808081088
:10335000E0000F10202020100F0008F808080808CF
:10336000F000203F210101010000E01008080810D2
:10337000E0000F18242438504F0008F88888888807
:103380007000203F2000030C3020007088080808DF
:1033900038000038202121221C00180808F80808ED
:1033A00018000000203F2000000008F80800000876
:1033B000F808001F202020201F000878880000C87F
:1033C0003808000007380E010000F80800F800086F
:1033D000F800033C0700073C030008186880806879
:1033E000180820302C03032C30200838C800C838B7
:1033F00008000000203F2000000010080808C8381E
:1034000008002038262120201800000000FE0202BB
:1034100002000000007F40404000000C30C000006F
:103420000000000000010638C00000020202FE0099
:103430000000004040407F00000000000402020243
:103440000400000000000000000000000000000078
:103450000000808080808080808000020204000064
:10346000000000000000000000000000808080805C
:1034700000000019242222223F2008F8008080004A
:103480000000003F112020110E000000008080800D
:103490000000000E11202020110000000080808814
:1034A000F800000E112020103F2000008080808056
:1034B0000000001F222222221300008080F0888852
:1034C00088180020203F202000000000808080809D
:1034D0008000006B94949493600008F800808080D2
:1034E0000000203F210000203F200080989800002D
:1034F00000000020203F202000000000008098985D
:10350000000000C08080807F000008F800008080FC
:103510008000203F24022D302000000808F8000021
:1035200000000020203F20200000808080808080DC
:103530008000203F20003F20003F8080008080806E
:103540000000203F210000203F200000808080807C
:103550000000001F202020201F00808000808000AD
:10356000000080FFA12020110E000000008080805C
:103570008000000E112020A0FF80808080008080CD
:10358000800020203F2120000100000080808080FA
:1035900080000033242424241900008080E08080EF
:1035A00000000000001F202000008080000000803C
:1035B0008000001F202020103F208080800000809D
:1035C000808000010E3008060100808000800080AD
:1035D00080800F300C030C300F0000808000808052
:1035E00080000020312E0E3120008080800000807D
:1035F000808080818E70180601000080808080802D
:1036000080000021302C2221300000000000807C4E
:10361000020200000000003F404000000000FF00E8
:10362000000000000000FF0000000002027C80009B
:1036300000000040403F00000000000601010202BF
:103640000404000000000000000000006C360008C8
:103650000000002094000000280100080037000846
:1036600094000020740600004401000800000000DF
:103670000102030401020304060708090204060804
:1036800000000000000000000000000000344310B3
:103690001001000000000000000000000000000019
:1036A0000000000000A0000000000000000000007A
:1036B000000000000000000000000000000000000A
:1036C00000000000000000000000000000001400E6
:1036D00000000000000000000000000000000000EA
:1036E00000000000000000000000000000000000DA
:1036F00001010101010100000000000000000000C4
:04000005080000ED02
:00000001FF
